:04000000D5EF18F030
:1031AA0000EEA5F0160EEE6AE806FDE1000EF86ED6
:1031BA00000123EF19F00CBEEDEF18F00C5006E1F8
:1031CA000B04D8B0EBEF18F0EDEF18F0FBEF18F0A6
:1031DA000BC00DF00CC00EF00D1E0E1E0D4A0E2A6D
:1031EA000DC00BF00EC00CF0FFEF18F00BC00BF087
:1031FA000CC00CF01200000E151A000E161A000E62
:10320A00171A800E181A11C001F012C002F013C06A
:10321A0003F014C004F015C005F016C006F017C07C
:10322A0007F018C008F054EC22F001C011F002C0F7
:10323A0012F003C013F004C014F01200000E946ED2
:10324A00000E936E000E966E000E956E800E826EC4
:10325A00000E846E020E816E000E836EA30E0001B4
:10326A00A46FE20EA36FFF0EA325A36FFF0EA42186
:10327A00A46F130E5B6E5C0E5C6EA3C05DF0A4C0FF
:10328A005EF0FEEC27F0D9EC1AF04AEF19F000EFE5
:10329A0000F0200E836E000E486E000E476E64EF3B
:1032AA0019F0500E8312A60EE82EFED700D0AF0EEC
:1032BA008316530EE82EFED700F0474A482A47C025
:1032CA000FF048C010F0000E10BEFF0E116E126E05
:1032DA00010EB8EC1CF00FC01DF010C01EF011C09A
:1032EA001FF012C020F043C021F044C022F045C0B4
:1032FA0023F046C024F0B3EC1BF0D8A087EF19F0F6
:10330A0089EF19F056EF19F01200A00E836E000E25
:10331A00486E000E476EA0EF19F0500E8312A60EEB
:10332A00E82EFED700D0AF0E8316530EE82EFED736
:10333A0000F0474A482A47C00FF048C010F0000E74
:10334A0010BEFF0E116E126E010EB8EC1CF00FC00B
:10335A001DF010C01EF011C01FF012C020F043C0B3
:10336A0021F044C022F045C023F046C024F0B3EC5B
:10337A001BF0D8A0C3EF19F0C5EF19F092EF19F0BE
:10338A001200000E836E000E486E000E476EDCEFD0
:10339A0019F0500E8312A60EE82EFED700D0AF0EFB
:1033AA008316530EE82EFED700F0474A482A47C034
:1033BA000FF048C010F0000E10BEFF0E116E126E14
:1033CA00010EB8EC1CF00FC01DF010C01EF011C0A9
:1033DA001FF012C020F043C021F044C022F045C0C3
:1033EA0023F046C024F0B3EC1BF0D8A0FFEF19F08D
:1033FA0001EF1AF0CEEF19F01200800E836E000E64
:10340A00486E000E476E18EF1AF0500E8312A60E81
:10341A00E82EFED700D0AF0E8316530EE82EFED745
:10342A0000F0474A482A47C00FF048C010F0000E83
:10343A0010BEFF0E116E126E010EB8EC1CF00FC01A
:10344A001DF010C01EF011C01FF012C020F043C0C2
:10345A0021F044C022F045C023F046C024F0B3EC6A
:10346A001BF0D8A03BEF1AF03DEF1AF00AEF1AF062
:10347A001200000E056E000E046E640E0118021092
:10348A00D8A44AEF1AF04CEF1AF05CEF1AF08182D6
:10349A00D60E00D000D0E82EFCD700D08192190EAB
:1034AA00036E050EE82EFED7032EFCD700F00A0E97
:1034BA0001180210D8A464EF1AF066EF1AF073EF3D
:1034CA001AF08182FA0EE82EFED78192190E036E47
:1034DA00FF0EE82EFED7032EFCD700F0044A052A79
:1034EA0005BE81EF1AF0055009E1190E045CD8A057
:1034FA0081EF1AF083EF1AF042EF1AF01200000E71
:10350A000114096E000E02140A6E800E03140B6E6B
:10351A007F0E04140C6E09500A100B100C10D8A45C
:10352A0099EF1AF09BEF1AF0A3EF1AF0000E016E52
:10353A00000E026E000E036E000E046E000E0514DD
:10354A00096E000E06140A6E800E07140B6E7F0EAB
:10355A0008140C6E09500A100B100C10D8A4B8EFFE
:10356A001AF0BAEF1AF0C2EF1AF0000E056E000E4A
:10357A00066E000E076E000E086E055001180FE168
:10358A00065002180CE10750031809E10850041804
:10359A00D8B4D2EF1AF0D4EF1AF0D7EF1AF0D890C5
:1035AA00D8EF1AF0D8801200000E1D6E000E1E6EA3
:1035BA00000E1F6E000E206EB1C021F0B2C022F0C4
:1035CA00B3C023F0B4C024F0B3EC1BF0D8B0F0EFD2
:1035DA001AF0F2EF1AF006EF1BF0B1C033F0B2C0E6
:1035EA0034F0B3C035F0B4C036F092EC1DF033C0FD
:1035FA0043F034C044F035C045F036C046F002EC22
:10360A001AF0000E1D6E000E1E6E000E1F6E000ECA
:10361A00206EB5C021F0B6C022F0B7C023F0B8C002
:10362A0024F0B3EC1BF0D8B01DEF1BF01FEF1BF01A
:10363A0033EF1BF0B5C033F0B6C034F0B7C035F085
:10364A00B8C036F092EC1DF033C043F034C044F0F9
:10365A0035C045F036C046F08AEC19F01200A5C014
:10366A000BF0A6C00CF0A7C00DF0A8C00EF001C068
:10367A000BF002C00CF003C00DF004C00EF00BC03A
:10368A0005F00CC006F00DC007F00EC008F0180EC9
:10369A0054EF1BF0D8900832073206320532E82E72
:1036AA004FEF1BF00550096E0A6A09500A10D8A498
:1036BA0061EF1BF063EF1BF083EF1BF0D8900B3424
:1036CA00056E0C34066E0D34076E0E34086E055006
:1036DA00061007100810D8A475EF1BF077EF1BF03F
:1036EA007DEF1BF0000E026E020E016EB2EF1BF0B0
:1036FA00000E026E030E016EB2EF1BF009280A10CB
:10370A00D8A48AEF1BF08CEF1BF0AEEF1BF00BC0B6
:10371A0005F00CC006F00DC007F00EC008F0090E47
:10372A00D8900536063607360836E82E95EF1BF090
:10373A000550061007100810D8B4A6EF1BF0A9EF21
:10374A001BF0010EAAEF1BF0000E016E026AB2EF27
:10375A001BF0000E026E040E016E1200000E1D1404
:10376A00256E000E1E14266E800E1F14276E7F0E05
:10377A002014286E2550261027102810D8A4C8EF28
:10378A001BF0CAEF1BF0D2EF1BF0000E1D6E000EED
:10379A001E6E000E1F6E000E206E000E2114256E86
:1037AA00000E2214266E800E2314276E7F0E241418
:1037BA00286E2550261027102810D8A4E7EF1BF0F2
:1037CA00E9EF1BF0F1EF1BF0000E216E000E226EE6
:1037DA00000E236E000E246E20AEF6EF1BF0F8EFFB
:1037EA001BF001EF1CF01D6C1E1ED8B01E2A1F1EF6
:1037FA00D8B01F2A800E205624AE06EF1CF008EF20
:10380A001CF011EF1CF0216C221ED8B0222A231EB4
:10381A00D8B0232A800E2456000E1D1A000E1E1A36
:10382A00000E1F1A800E201A000E211A000E221AEC
:10383A00000E231A800E241A21501D5C22501E5895
:10384A0023501F5824502058D8B02EEF1CF030EFC8
:10385A001CF033EF1CF0D89034EF1CF0D880120023
:10386A00033404340A6E0A50D8A43EEF1CF040EF29
:10387A001CF04AEF1CF0000E016E000E026E000EE4
:10388A00036E000E046EB7EF1CF001C005F002C013
:10389A0006F003C007F004C008F0200E5AEF1CF02F
:1038AA00D8900832073206320532E82E55EF1CF05E
:1038BA000550096E038EFF0E0116FF0E0216FF0E4B
:1038CA000316000E0416960E0A5E0ABE71EF1CF06D
:1038DA006FEF1CF087EF1CF00A50800A970FD8B0E0
:1038EA0079EF1CF07BEF1CF07DEF1CF040EF1CF031
:1038FA00D89004320332023201320A3E7DEF1CF0C4
:10390A009FEF1CF01F0E0A648DEF1CF08FEF1CF066
:10391A0097EF1CF040EF1CF0D890013602360336C0
:10392A0004360A060A50D8A49DEF1CF09FEF1CF03B
:10393A0091EF1CF00950D8B4A5EF1CF0A7EF1CF0CA
:10394A00AFEF1CF0041E031E021E016C000E0222C1
:10395A000322042201C001F002C002F003C003F0F6
:10396A0004C004F01200176E1750D8B4BFEF1CF051
:10397A00C1EF1CF0E3EF1CF012BEC8EF1CF0C6EF5B
:10398A001CF0E3EF1CF00FC013F010C014F011C0CC
:10399A0015F012C016F0131E141E151E161E132A39
:1039AA00000E14221522162213C019F014C01AF0A0
:1039BA0015C01BF016C01CF0EBEF1CF00FC019F07D
:1039CA0010C01AF011C01BF012C01CF00F501010DA
:1039DA0011101210D8A4F4EF1CF0F6EF1CF000EF4F
:1039EA001DF0000E0F6E000E106E000E116E000E0E
:1039FA00126E91EF1DF0960E186E0AEF1DF0182A3E
:103A0A00D8901C321B321A321932000E1914136E56
:103A1A00000E1A14146E000E1B14156EFE0E1C14E2
:103A2A00166E1350141015101610D8A41FEF1DF09F
:103A3A0021EF1DF004EF1DF02FEF1DF0182A010EE3
:103A4A001926000E1A221B221C22D8901C321B3265
:103A5A001A321932000E1914136E000E1A14146E4B
:103A6A00000E1B14156EFF0E1C14166E1350141044
:103A7A0015101610D8A444EF1DF046EF1DF023EFE1
:103A8A001DF04EEF1DF01806D89019361A361B365F
:103A9A001C361BBE53EF1DF055EF1DF05DEF1DF0F8
:103AAA00020E18605BEF1DF05DEF1DF048EF1DF090
:103ABA0018B062EF1DF064EF1DF065EF1DF01B9E5C
:103ACA00D890183218C013F0146A156A166A13C00F
:103ADA0016F0156A146A136A1350191214501A123E
:103AEA0015501B1216501C121750D8B47FEF1DF038
:103AFA0081EF1DF089EF1DF012BE88EF1DF086EFF1
:103B0A001DF089EF1DF01C8E19C00FF01AC010F0BD
:103B1A001BC011F01CC012F01200000E376E000E0E
:103B2A00386E000E396E000E3A6E000E3F6E000EB1
:103B3A00406E000E416E000E426E33C01AF034C061
:103B4A001BF035C01CF036C01DF00A0E1E6ED70ED3
:103B5A001F6E230E206E3E0E216E72EC1EF01AC0EE
:103B6A003BF01BC03CF01CC03DF01DC03EF033C012
:103B7A0001F034C002F035C003F036C004F0000E84
:103B8A00056E000E066EC80E076E420E086E3FECFA
:103B9A0020F037C001F038C002F039C003F03AC053
:103BAA0004F035EC1CF00F0E0116000E021601C0CF
:103BBA000FF002C010F0000E10BEFF0E116E126E52
:103BCA00010EB8EC1CF00FC03FF010C040F011C05D
:103BDA0041F012C042F03FC01DF040C01EF041C08B
:103BEA001FF042C020F0000E216E000E226E000E61
:103BFA00236E410E246EB3EC1BF0D8A007EF1EF023
:103C0A0009EF1EF01DEF1EF03BC001F03CC002F0B0
:103C1A003DC003F03EC004F0000E056E000E066EB5
:103C2A00800E076E3F0E086E54EC22F061EF1EF014
:103C3A003FC01DF040C01EF041C01FF042C020F03E
:103C4A00000E216E000E226E000E236E410E246EAF
:103C5A00B3EC1BF0D8B034EF1EF036EF1EF061EF74
:103C6A001EF03FC001F040C002F041C003F042C064
:103C7A0004F0000E056E000E066E000E076E000EB2
:103C8A00086E84EC1AF0D8B04DEF1EF04FEF1EF01C
:103C9A0061EF1EF03BC001F03CC002F03DC003F0F2
:103CAA003EC004F0000E056E000E066E800E076E12
:103CBA00BF0E086E54EC22F03BC037F03CC038F01F
:103CCA003DC039F03EC03AF037C033F038C034F066
:103CDA0039C035F03AC036F012001D50800B2A6EFA
:103CEA001D501D24316E1CAE7DEF1EF07FEF1EF0BD
:103CFA0080EF1EF031803150D8B486EF1EF088EF85
:103D0A001EF09DEF1EF03128D8A48EEF1EF090EF22
:103D1A001EF098EF1EF0000E1A6E000E1B6E000EBB
:103D2A001C6E000E1D6E1C8E000E1D6EA5EF1EF081
:103D3A00000E1A6E000E1B6E000E1C6E000E1D6E1B
:103D4A002150800B2A1A21502124326E20AEB0EF66
:103D5A001EF0B2EF1EF0B3EF1EF032803250D8B42C
:103D6A00B9EF1EF0BBEF1EF0D0EF1EF03228D8A438
:103D7A00C1EF1EF0C3EF1EF0CBEF1EF0000E1E6E59
:103D8A00000E1F6E000E206E000E216E208E000E99
:103D9A00216ED8EF1EF0000E1E6E000E1F6E000E72
:103DAA00206E000E216E1E501F1020102110D8A464
:103DBA00E1EF1EF0E3EF1EF0FBEF1EF0000E1A6EAD
:103DCA00000E1B6E000E1C6E000E1D6E800E1C1265
:103DDA007F0E1D122A501D121AC01AF01BC01BF0AA
:103DEA001CC01CF01DC01DF03EEF20F03150D8A4BD
:103DFA0001EF1FF003EF1FF00DEF1FF0000E1A6E18
:103E0A00000E1B6E000E1C6E000E1D6E3EEF20F0A3
:103E1A00325031C022F0236A225E000E235A7F0EEE
:103E2A0022242B6E000E23202C6E1AC026F01BC0F3
:103E3A0027F01CC028F01DC029F0000E1A6E000ED3
:103E4A001B6E000E1C6E000E1D6E000E2D6E000EF7
:103E5A002E6E000E2F6E000E306E000E326E6EEF5A
:103E6A001FF03250D8B43CEF1FF03EEF1FF055EF71
:103E7A001FF0D8902636273628362936D8901A3693
:103E8A001B361C361D3630AE4DEF1FF04FEF1FF0BC
:103E9A0050EF1FF01A80D8902D362E362F36303636
:103EAA001E50265C1F502758205028582150295848
:103EBA00D8A062EF1FF064EF1FF06DEF1FF0308C97
:103ECA001E50265E1F50275A2050285A2150295A20
:103EDA00322A190E326474EF1FF076EF1FF036EFB4
:103EEA001FF02650271028102910D8B47FEF1FF092
:103EFA0081EF1FF099EF1FF02D8099EF1FF0D890F6
:103F0A001A361B361C361D3630AE8EEF1FF090EF78
:103F1A001FF091EF1FF01A80D8902D362E362F36CB
:103F2A0030362B06D8A02C061CAE9EEF1FF0A0EF51
:103F3A001FF084EF1FF0000E326E30AEA7EF1FF0B5
:103F4A00A9EF1FF0CDEF1FF0FF0E2D14226EFF0E0A
:103F5A002E14236EFF0E2F14246E7F0E3014256E3E
:103F6A002250231024102510D8B4BEEF1FF0C0EF42
:103F7A001FF0C4EF1FF0010E326ECDEF1FF01AA032
:103F8A00C9EF1FF0CBEF1FF0CDEF1FF0C0EF1FF00E
:103F9A003250D8B4D3EF1FF0D5EF1FF0F9EF1FF06E
:103FAA00010E1A26000E1B221C221D221DA0E0EF64
:103FBA001FF0E2EF1FF0F9EF1FF01AC022F01BC04A
:103FCA0023F01CC024F01DC025F0253425322432EC
:103FDA002332223222C01AF023C01BF024C01CF064
:103FEA0025C01DF02B4A2C2A2CBE04EF20F02C50A1
:103FFA0008E12B28D8A004EF20F006EF20F011EFFB
:10400A0020F0000E2C6E2B68000E1A6E000E1B6E2E
:10401A00000E1C6E000E1D6E2CBE1EEF20F02C50E2
:10402A0006E12B04D8B01CEF20F01EEF20F02CEF95
:10403A0020F0000E2C6E000E2B6E000E1A6E000E73
:10404A001B6E000E1C6E000E1D6E000E2A6E2BC01B
:10405A0031F031A033EF20F035EF20F038EF20F0C7
:10406A001C8E39EF20F01C9ED89031301D6EEFEF78
:10407A001EF012000450800B0D6E04500424136EBF
:10408A0003AE4AEF20F04CEF20F04DEF20F0138002
:10409A001350D8B453EF20F055EF20F068EF20F01A
:1040AA001328D8A45BEF20F05DEF20F065EF20F035
:1040BA00000E016E000E026E000E036E000E046EFC
:1040CA00038E70EF20F0000E016E000E026E000EDD
:1040DA00036E000E046E0850800B0D1A0850082457
:1040EA00126E07AE7BEF20F07DEF20F07EEF20F01E
:1040FA0012801250D8B484EF20F086EF20F099EFA6
:10410A0020F01228D8A48CEF20F08EEF20F096EF42
:10411A0020F0000E056E000E066E000E076E000EF1
:10412A00086E078EA1EF20F0000E056E000E066ED7
:10413A00000E076E000E086E1250D8B4A7EF20F0DA
:10414A00A9EF20F0B1EF20F01350D8A4AFEF20F080
:10415A00B1EF20F0BBEF20F0000E016E000E026EF0
:10416A00000E036E000E046E53EF22F00750010298
:10417A00F3CF18F0F4CF19F018500E6E0F6A106AC8
:10418A00116A1950146E156A166A176A06500202E5
:10419A00F3CF18F0F4CF19F018500E26000E0F22A4
:1041AA001022112219501426000E15221622172247
:1041BA0005500302F3CF18F0F4CF19F018500E2669
:1041CA00000E0F221022112219501426000E152259
:1041DA001622172210C011F00FC010F00EC00FF0F7
:1041EA000E6A05500202F3CF18F0F4CF19F01850F6
:1041FA000E2619500F22000E1022000E1122065010
:10420A000102F3CF18F0F4CF19F018500E26195006
:10421A000F22000E1022000E112210C011F00FC042
:10422A0010F00EC00FF00E6A05500102F3CF18F01D
:10423A00F4CF19F018500E2619500F22000E102232
:10424A00000E112207500202F3CF18F0F4CF19F032
:10425A001850142619501522000E1622000E172285
:10426A0006500302F3CF18F0F4CF19F018501426B1
:10427A0019501522000E1622000E172207500302AB
:10428A00F3CF18F0F4CF19F01850096E19500A6ECE
:10429A000B6A0C6A0BC00CF00AC00BF009C00AF0DA
:1042AA00096A095014260A5015220B5016220C507E
:1042BA0017220EC009F00FC00AF010C00BF011C08F
:1042CA000CF0190E6EEF21F0D8900C320B320A3234
:1042DA000932E82E69EF21F0095014260A501522F6
:1042EA000B5016220C50172210C011F00FC010F0FC
:1042FA000EC00FF00E6A125013C009F00A6A09269E
:10430A00000E0A22820E0924186EFF0E0A20196E68
:10431A00A4EF21F0D890143615361636173611AE9A
:10432A0099EF21F09BEF21F09CEF21F01480D890B7
:10433A000E360F36103611361806D8A0190616AEE4
:10434A00A9EF21F0ABEF21F08FEF21F0000E126EF2
:10435A0011AEB2EF21F0B4EF21F0D8EF21F0FF0E49
:10436A000E14096EFF0E0F140A6EFF0E10140B6E58
:10437A007F0E11140C6E09500A100B100C10D8B4D1
:10438A00C9EF21F0CBEF21F0CFEF21F0010E126E31
:10439A00D8EF21F014A0D4EF21F0D6EF21F0D8EF16
:1043AA0021F0CBEF21F01250D8B4DEEF21F0E0EF8C
:1043BA0021F004EF22F0010E1426000E1522162217
:1043CA00172217A0EBEF21F0EDEF21F004EF22F016
:1043DA0014C009F015C00AF016C00BF017C00CF093
:1043EA000C340C320B320A32093209C014F00AC0FA
:1043FA0015F00BC016F00CC017F0184A192A19BE8E
:10440A000FEF22F0195008E11828D8A00FEF22F078
:10441A0011EF22F01BEF22F0000E146E000E156E43
:10442A00800E166E7F0E176E49EF22F019BE28EF26
:10443A0022F0195006E11804D8B026EF22F028EF2E
:10444A0022F034EF22F0000E146E000E156E000EEC
:10445A00166E000E176E000E0D6E49EF22F018C090
:10446A0013F0FF0E1416FF0E15167F0E1616000E09
:10447A00171613A043EF22F045EF22F046EF22F081
:10448A00168ED8901330176E0D50171214C001F003
:10449A0015C002F016C003F017C004F01200045051
:1044AA00800B0D6E045004240F6E03AE5FEF22F0F2
:1044BA0061EF22F062EF22F00F800F50D8B468EF5C
:1044CA0022F06AEF22F07FEF22F00F28D8A470EFD3
:1044DA0022F072EF22F07AEF22F0000E016E000E47
:1044EA00026E000E036E000E046E038E000E046E42
:1044FA0087EF22F0000E016E000E026E000E036EB0
:10450A00000E046E0850800B0E6E0D500E18D8B4B3
:10451A0091EF22F093EF22F094EF22F00D8C0850E5
:10452A0008240E6E07AE9CEF22F09EEF22F09FEF5A
:10453A0022F00E800E50D8B4A5EF22F0A7EF22F099
:10454A00BCEF22F00E28D8A4ADEF22F0AFEF22F094
:10455A00B7EF22F0000E056E000E066E000E076E13
:10456A00000E086E078E000E086EC4EF22F0000ED1
:10457A00056E000E066E000E076E000E086E0F50D6
:10458A000E5CD8B0CBEF22F0CDEF22F0F4EF22F0A0
:10459A000DACD2EF22F0D4EF22F0D6EF22F0800E4B
:1045AA000D1A0FC010F00EC00FF010C00EF001C0AF
:1045BA0010F005C001F010C005F002C010F006C0EE
:1045CA0002F010C006F003C010F007C003F010C0DC
:1045DA0007F004C010F008C004F010C008F0000E84
:1045EA00106E0F500EC009F00A6A095E000E0A5AD0
:1045FA000ABE09EF23F00A5009E11A0E095CD8A095
:10460A0009EF23F00BEF23F042EF23F001500210E1
:10461A0003100410D8A414EF23F017EF23F0010EAF
:10462A0018EF23F0000E106E000E016E000E026EDF
:10463A00000E036E000E046E0EC00FF04BEF23F057
:10464A0010A02AEF23F02CEF23F032EF23F0D890BA
:10465A0010300109106E34EF23F0D890103201A007
:10466A0039EF23F03BEF23F03CEF23F0108E0434B4
:10467A0004320332023201320F2A0E500F5CD8A0E4
:10468A0049EF23F04BEF23F025EF23F00DBC50EF59
:10469A0023F052EF23F092EF23F00F50D8A458EFF3
:1046AA0023F05AEF23F064EF23F0000E016E000EA0
:1046BA00026E000E036E000E046EB3EF24F0055076
:1046CA00012606500222075003220850042204A0A1
:1046DA0071EF23F073EF23F01FEF24F010A078EFAF
:1046EA0023F07AEF23F080EF23F0D89010300109FD
:1046FA00106E82EF23F0D890103201A087EF23F0DA
:10470A0089EF23F08AEF23F0108E04340432033247
:10471A00023201320F2A1FEF24F00550015C0650C5
:10472A000258075003580450800A096E0850800A3C
:10473A000958D8B0A3EF23F0A5EF23F0D0EF23F068
:10474A000150055C096E025006580A6E035007585C
:10475A000B6E045008580C6EFF0E0924016EFF0EF2
:10476A000A20026EFF0E0B20036EFF0E0C20046E51
:10477A00800E0D1A106C1050D8A4C6EF23F0C8EFA3
:10478A0023F0D8EF23F0010E0126000E02220322A5
:10479A000422D8EF23F00550015E0650025A075052
:1047AA00035A0850045A0150021003100410D8A4E6
:1047BA00E1EF23F0E3EF23F018EF24F01050D8A430
:1047CA00E9EF23F0EBEF23F018EF24F0000E016E6F
:1047DA00000E026E000E036E000E046EB3EF24F09C
:1047EA00D890013602360336043610AEFFEF23F0B6
:1047FA0001EF24F002EF24F0018010A007EF24F06B
:10480A0009EF24F00DEF24F0D88010360FEF24F0D2
:10481A00D89010360F50D8B415EF24F017EF24F0C3
:10482A0018EF24F00F0603AE1DEF24F01FEF24F05B
:10483A00F5EF23F0000E0E6E10AE26EF24F028EFEF
:10484A0024F040EF24F010C009F07F0E0916D8B406
:10485A0031EF24F033EF24F037EF24F0010E0E6E1F
:10486A0040EF24F001A03CEF24F03EEF24F040EFAB
:10487A0024F033EF24F00E50D8B446EF24F048EF7A
:10488A0024F073EF24F0010E0126000E0222032207
:10489A00042204A053EF24F055EF24F073EF24F020
:1048AA0001C009F002C00AF003C00BF004C00CF00A
:1048BA000C340C320B320A32093209C001F00AC038
:1048CA0002F00BC003F00CC004F00F28D8B470EF4C
:1048DA0024F072EF24F073EF24F00F2A0F28D8B4D3
:1048EA0079EF24F07BEF24F083EF24F00F50D8A463
:1048FA0081EF24F083EF24F095EF24F0000E016E8F
:10490A00000E026E000E036E000E046E0F50D8A445
:10491A0091EF24F093EF24F095EF24F0000E0D6E42
:10492A000FA09AEF24F09CEF24F09FEF24F0038E5F
:10493A00A0EF24F0039ED8900F30046E0DAEA8EFBE
:10494A0024F0AAEF24F0ABEF24F0048E01C001F0AA
:10495A0002C002F003C003F004C004F01200ADC0AC
:10496A0049F0AEC04AF0AFC04BF0B0C04CF033C013
:10497A0049F034C04AF035C04BF036C04CF0A9C0FB
:10498A004FF0AAC050F0ABC051F0ACC052F037C0E3
:10499A004FF038C050F039C051F03AC052F049C017
:1049AA003BF04AC03CF04BC03DF04CC03EF0180E04
:1049BA00E4EF24F0D8903E323D323C323B32E82ECE
:1049CA00DFEF24F03B504D6E4E6A4FC03BF050C0B3
:1049DA003CF051C03DF052C03EF0180EFAEF24F000
:1049EA00D8903E323D323C323B32E82EF5EF24F08D
:1049FA003B50476E486A000E4914436E000E4A1433
:104A0A00446E000E4B14456E800E4C14466E49C01F
:104A1A0057F04AC058F04BC059F04CC05AF0D890E1
:104A2A004F343B6E50343C6E51343D6E52343E6EC0
:104A3A003B503C103D103E10D8B426EF25F028EF2D
:104A4A0025F044EF25F037C001F038C002F039C034
:104A5A0003F03AC004F034EC1BF001500210D8B451
:104A6A0039EF25F03BEF25F044EF25F04D284E10A5
:104A7A00D8A442EF25F044EF25F084EF25F037C0A3
:104A8A0005F038C006F039C007F03AC008F033C064
:104A9A0001F034C002F035C003F036C004F03FEC38
:104AAA0020F001C01AF002C01BF003C01CF004C0C1
:104ABA001DF037C005F038C006F039C007F03AC01B
:104ACA0008F033C001F034C002F035C003F036C03C
:104ADA0004F03FEC20F001C01EF002C01FF003C03A
:104AEA0020F004C021F072EC1EF01AC033F01BC093
:104AFA0034F01CC035F01DC036F0FDEF27F0D89019
:104B0A0057343B6E58343C6E59343D6E5A343E6EBF
:104B1A00D8904F343F6E5034406E5134416E523407
:104B2A00426E3B503F5C3C5040583D5041583E50CD
:104B3A004258D8A0A3EF25F0A5EF25F0EFEF25F016
:104B4A00D8904F343B6E50343C6E51343D6E5234E3
:104B5A003E6ED89057343F6E5834406E5934416E89
:104B6A005A34426E3B503F180DE13C5040180AE15E
:104B7A003D50411807E13E504218D8A4C7EF25F02E
:104B8A00C9EF25F0E5EF25F033C001F034C002F09B
:104B9A0035C003F036C004F0000E056E000E066E36
:104BAA00000E076E000E086E3FEC20F001C033F0D5
:104BBA0002C034F003C035F004C036F0FDEF27F030
:104BCA0033C033F034C034F035C035F036C036F077
:104BDA00FDEF27F04D504E10D8A4F6EF25F0F8EF70
:104BEA0025F049EF26F057C03BF058C03CF059C0B9
:104BFA003DF05AC03EF0090ED8903B363C363D3661
:104C0A003E36E82E01EF26F03BC053F03CC054F08C
:104C1A003DC055F03EC056F01BEF26F04D06D8A019
:104C2A004E06D890533654365536563653C03BF056
:104C3A0054C03CF055C03DF056C03EF0200E2BEF5C
:104C4A0026F0D8903E323D323C323B32E82E26EFF7
:104C5A0026F03B503C103D103E10D8B437EF26F0FA
:104C6A0039EF26F013EF26F04D5001083B6E3B2832
:104C7A0044EF26F0D8905736583659365A36E82E29
:104C8A003FEF26F052EF26F0FF0E5716FF0E58168A
:104C9A007F0E5916000E5A16598E47504810D8A43E
:104CAA0059EF26F05BEF26F0ACEF26F04FC03BF051
:104CBA0050C03CF051C03DF052C03EF0090ED890B1
:104CCA003B363C363D363E36E82E64EF26F03BC096
:104CDA0053F03CC054F03DC055F03EC056F07EEF54
:104CEA0026F04706D8A04806D8905336543655368B
:104CFA00563653C03BF054C03CF055C03DF056C048
:104D0A003EF0200E8EEF26F0D8903E323D323C32F5
:104D1A003B32E82E89EF26F03B503C103D103E1006
:104D2A00D8B49AEF26F09CEF26F076EF26F047509B
:104D3A0001083B6E3B28A7EF26F0D8904F36503635
:104D4A0051365236E82EA2EF26F018EF27F0FF0E62
:104D5A004F16FF0E50167F0E5116000E5216518E28
:104D6A0018EF27F04F50575C536E50505858546EF6
:104D7A0051505958556E52505A58566E53C03BF0BE
:104D8A0054C03CF055C03DF056C03EF0200ED3EF63
:104D9A0026F0D8903E323D323C323B32E82ECEEFFE
:104DAA0026F03B503C103D103E10D8A4DFEF26F011
:104DBA00E1EF26F010EF27F053505410551056101B
:104DCA00D8A4EAEF26F0ECEF26F008EF27F033C07C
:104DDA0001F034C002F035C003F036C004F0000E12
:104DEA00056E000E066E000E076E000E086E3FEC92
:104DFA0020F001C033F002C034F003C035F004C023
:104E0A0036F0FDEF27F053C057F054C058F055C0A4
:104E1A0059F056C05AF0D8905736583659365A363D
:104E2A004D06D8A04E064D50475C4850800A3B6E4E
:104E3A004E50800A3B58D8A025EF27F027EF27F0DD
:104E4A00B7EF26F04F50575C536E50505858546E77
:104E5A0051505958556E52505A58566E53C03BF0DD
:104E6A0054C03CF055C03DF056C03EF0200E43EF12
:104E7A0027F0D8903E323D323C323B32E82E3EEFAC
:104E8A0027F03B503C103D103E10D8A44FEF27F0BE
:104E9A0051EF27F08AEF27F053505410551056104F
:104EAA00D8A45AEF27F05CEF27F078EF27F033C049
:104EBA0001F034C002F035C003F036C004F0000E31
:104ECA00056E000E066E000E076E000E086E3FECB1
:104EDA0020F001C033F002C034F003C035F004C042
:104EEA0036F0FDEF27F053C057F054C058F055C0C4
:104EFA0059F056C05AF08AEF27F0D89057365836EC
:104F0A0059365A364D06D8A04E0657C03BF058C0FF
:104F1A003CF059C03DF05AC03EF0180E9AEF27F007
:104F2A00D8903E323D323C323B32E82E95EF27F0A4
:104F3A003B503C103D103E10D8B4A6EF27F0A8EF26
:104F4A0027F082EF27F04EBEB3EF27F04E5008E16C
:104F5A004D04D8A0B3EF27F0B5EF27F0D6EF27F02E
:104F6A00000E575E000E585A800E595A000E5A5AB1
:104F7A004D503B6E4E503C6E3D6A3E6A170ED890BD
:104F8A003B363C363D363E36E82EC4EF27F03B50E2
:104F9A0057123C5058123D5059123E505A12E5EFE2
:104FAA0027F04D5001083B6E3B283C6EE2EF27F09C
:104FBA00D8905A325932583257323C2EDDEF27F008
:104FCA0043505712445058124550591246505A12DB
:104FDA0057C049F058C04AF059C04BF05AC04CF07B
:104FEA0049C033F04AC034F04BC035F04CC036F0FB
:104FFA001200000E0001816F000E826F000E836F97
:10500A00000E846F000E856F000E866F000E876F8C
:10501A00000E886F000E786F010E776F000E656FB5
:10502A00000E666F000E676F000E686F000E896FC4
:10503A00000E8A6F000E8B6F000E8C6F000E916F40
:10504A00000E926F000E936F000E946F000E956F14
:10505A00000E966F000E976F000E986F000E996FF4
:10506A00000E9A6F000E9B6F000E9C6F000E9D6FD4
:10507A00000E9E6F000E9F6F000EA06F000E7A6FDB
:10508A00000E796F000E7C6F000E7B6F000E7E6F34
:10509A00000E7D6F000E806F000E7F6F000E696F2D
:1050AA00000E6A6F000E6B6F000E6C6F6D696E6991
:1050BA00000EA26F000EA16FFBEF2DF0A1515B2431
:1050CA00606FA2515C20616F60C0F6FF61C0F7FF9C
:1050DA000800F550580AD8A475EF28F077EF28F0A1
:1050EA007DEF28F0000E7C6F010E7B6FF8EF2DF03C
:1050FA00A1515B24606FA2515C20616F60C0F6FF12
:10510A0061C0F7FF0800F550590AD8A48FEF28F0BC
:10511A0091EF28F097EF28F0000E7E6F010E7D6F59
:10512A00F8EF2DF0A1515B24606FA2515C20616FF2
:10513A0060C0F6FF61C0F7FF0800F5505A0AD8A40C
:10514A00A9EF28F0ABEF28F0B1EF28F0000E806F3E
:10515A00010E7F6FF8EF2DF0A1515B24606FA25111
:10516A005C20616F60C0F6FF61C0F7FF0800F55070
:10517A00320AD8A4C3EF28F0C5EF28F0D6EF28F0FA
:10518A007F518011D8B4CCEF28F0CEEF28F0D6EFBB
:10519A0028F0000E026E0A0E016E3EEC1AF0F8EFCD
:1051AA002DF0A1515B24606FA2515C20616F60C039
:1051BA00F6FF61C0F7FF0800F550330AD8A4E8EFFC
:1051CA0028F0EAEF28F0FBEF28F07F518011D8B4DD
:1051DA00F1EF28F0F3EF28F0FBEF28F0000E026E53
:1051EA00640E016E3EEC1AF0F8EF2DF0A1515B242B
:1051FA00606FA2515C20616F60C0F6FF61C0F7FF6B
:10520A000800F5502E0AD8A40DEF29F00FEF29F067
:10521A0042EF29F0A1515B24606FA2515C20616FBB
:10522A00FE0E6025626FFF0E6121636F62C0F6FF9A
:10523A0063C0F7FF0800F5505A0AD8A427EF29F0EF
:10524A0029EF29F03CEF29F07F058011D8A430EF2F
:10525A0029F032EF29F03CEF29F0000E7A6F000EA8
:10526A00796F000E806F000E7F6FF8EF2DF0000E41
:10527A007A6F010E796FF8EF2DF0A1515B24606F00
:10528A00A2515C20616F60C0F6FF61C0F7FF0800A1
:10529A00F5503B0AD8B454EF29F056EF29F06AEFDB
:1052AA002AF079517A11D8A45DEF29F05FEF29F03D
:1052BA006AEF2AF0A1515B24606FA2515C20616FF2
:1052CA0060C0F6FF61C0F7FF0800F550200AD8B4A5
:1052DA0071EF29F073EF29F06AEF2AF07B517C1104
:1052EA00D8B47AEF29F07CEF29F0EDEF29F0A1513B
:1052FA005B24606FA2515C20616F60C0F6FF61C0E1
:10530A00F7FF0800F5CF62F0D00E6225636F646B79
:10531A00FF0E642363C00FF064C010F0116A126AB2
:10532A00000EB8EC1CF00FC081F010C082F011C062
:10533A0083F012C084F0000E1D6E000E1E6E000E69
:10534A001F6E000E206E91C021F092C022F093C011
:10535A0023F094C024F0B3EC1BF0D8B0B7EF29F0D7
:10536A00B9EF29F0D3EF29F091C001F092C002F011
:10537A0093C003F094C004F0000E056E000E066E92
:10538A00200E076E410E086E3FEC20F001C091F02E
:10539A0002C092F003C093F004C094F091C001F0EF
:1053AA0092C002F093C003F094C004F081C005F0EB
:1053BA0082C006F083C007F084C008F054EC22F0E3
:1053CA0001C091F002C092F003C093F004C094F0BF
:1053DA0000017D517E11D8B4F5EF29F0F7EF29F0DD
:1053EA00F8EF2DF0A1515B24606FA2515C20616F30
:1053FA0060C0F6FF61C0F7FF0800F5CF62F0D00E7B
:10540A006225636F646BFF0E642363C00FF064C090
:10541A0010F0116A126A000EB8EC1CF00FC085F089
:10542A0010C086F011C087F012C088F0000E1D6E01
:10543A00000E1E6E000E1F6E000E206E95C021F02B
:10544A0096C022F097C023F098C024F0B3EC1BF06A
:10545A00D8B032EF2AF034EF2AF04EEF2AF095C096
:10546A0001F096C002F097C003F098C004F0000E55
:10547A00056E000E066E200E076E410E086E3FEC9A
:10548A0020F001C095F002C096F003C097F004C066
:10549A0098F095C001F096C002F097C003F098C04A
:1054AA0004F085C005F086C006F087C007F088C002
:1054BA0008F054EC22F001C095F002C096F003C047
:1054CA0097F004C098F0F8EF2DF0A1515B24606FBB
:1054DA00A2515C20616F60C0F6FF61C0F7FF08004F
:1054EA00F5503B0AD8B47CEF2AF07EEF2AF07DEF24
:1054FA002BF079057A11D8A485EF2AF087EF2AF0E4
:10550A007DEF2BF0A1515B24606FA2515C20616F8B
:10551A0060C0F6FF61C0F7FF0800F550200AD8B452
:10552A0099EF2AF09BEF2AF07DEF2BF07B517C114B
:10553A00D8B4A2EF2AF0A4EF2AF019EF2BF0A15168
:10554A005B24606FA2515C20616F60C0F6FF61C08E
:10555A00F7FF0800F5CF62F0D00E6225636F646B27
:10556A00FF0E642363C00FF064C010F0116A126A60
:10557A00000EB8EC1CF00FC081F010C082F011C010
:10558A0083F012C084F0000E0001706F000E6F6F7E
:10559A00ECEF2AF081C01AF082C01BF083C01CF025
:1055AA0084C01DF0000E1E6E000E1F6E200E206EAF
:1055BA00410E216E72EC1EF01AC081F01BC082F0FF
:1055CA001CC083F01DC084F000016F4B702B775113
:1055DA006F5D7051800A606F7851800A6059D8A057
:1055EA00F9EF2AF0FBEF2AF0CFEF2AF0774B782B6E
:1055FA0091C001F092C002F093C003F094C004F08D
:10560A0081C005F082C006F083C007F084C008F0AC
:10561A0054EC22F001C091F002C092F003C093F062
:10562A0004C094F0F8EF2DF07D517E11D8B420EF2C
:10563A002BF022EF2BF0F8EF2DF0A1515B24606FD5
:10564A00A2515C20616F60C0F6FF61C0F7FF0800DD
:10565A00F5CF62F0D00E6225636F646BFF0E642390
:10566A0063C00FF064C010F0116A126A000EB8EC41
:10567A001CF00FC085F010C086F011C087F012C070
:10568A0088F0000E0001726F000E716F6AEF2BF046
:10569A0085C01AF086C01BF087C01CF088C01DF0B8
:1056AA00000E1E6E000E1F6E200E206E410E216E21
:1056BA0072EC1EF01AC085F01BC086F01CC087F081
:1056CA001DC088F00001714B722B7751715D7251C8
:1056DA00800A606F7851800A6059D8A077EF2BF062
:1056EA0079EF2BF04DEF2BF0774B782B4EEF2AF01A
:1056FA00A1515B24606FA2515C20616F60C0F6FF0C
:10570A0061C0F7FF0800F5503B0AD8B48FEF2BF0C1
:10571A0091EF2BF0A5EF2BF0A1515B24606FA25102
:10572A005C20616F60C0F6FF61C0F7FF0800F550AA
:10573A00200AD8A4A3EF2BF0A5EF2BF0F8EF2DF059
:10574A00000E7A6F000E796F000E786F010E776F78
:10575A0091C09DF092C09EF093C09FF094C0A0F0BB
:10576A0095C099F096C09AF097C09BF098C09CF0AB
:10577A00000E916F000E926F000E936F000E946FE1
:10578A00000E956F000E966F000E976F000E986FC1
:10579A009DC033F09EC034F09FC035F0A0C036F0F3
:1057AA00000E376E000E386E800E396E3F0E3A6E5E
:1057BA00B4EC24F033C089F034C08AF035C08BF0E1
:1057CA0036C08CF09DC011F09EC012F09FC013F03D
:1057DA00A0C014F089C015F08AC016F08BC017F06B
:1057EA008CC018F000EC19F011C09DF012C09EF0A8
:1057FA0013C09FF014C0A0F089C01DF08AC01EF02B
:10580A008BC01FF08CC020F0000E216E000E226E9D
:10581A00000E236E3F0E246EB3EC1BF0D8A018EFD7
:10582A002CF01AEF2CF034EF2CF09DC001F09EC042
:10583A0002F09FC003F0A0C004F0000E056E000E37
:10584A00066E800E076E3F0E086E54EC22F001C001
:10585A009DF002C09EF003C09FF004C0A0F099C062
:10586A0033F09AC034F09BC035F09CC036F0000E7D
:10587A00376E000E386E800E396E3F0E3A6EB4ECFB
:10588A0024F033C089F034C08AF035C08BF036C0BA
:10589A008CF099C011F09AC012F09BC013F09CC012
:1058AA0014F089C015F08AC016F08BC017F08CC0AE
:1058BA0018F000EC19F011C099F012C09AF013C058
:1058CA009BF014C09CF089C01DF08AC01EF08BC0EA
:1058DA001FF08CC020F0000E216E000E226E000E0A
:1058EA00236E3F0E246EB3EC1BF0D8A07FEF2CF092
:1058FA0081EF2CF09BEF2CF099C001F09AC002F0D6
:10590A009BC003F09CC004F0000E056E000E066EEC
:10591A00800E076E3F0E086E54EC22F001C099F01B
:10592A0002C09AF003C09BF004C09CF0000E000174
:10593A008D6F000E8E6F000E8F6F000E906F7B5171
:10594A007C11D8B4ABEF2CF0ADEF2CF048EF2DF072
:10595A009DC08DF09EC08EF09FC08FF0A0C090F0C9
:10596A009DC011F09EC012F09FC013F0A0C014F0A9
:10597A00B5C015F0B6C016F0B7C017F0B8C018F029
:10598A0000EC19F011C09DF012C09EF013C09FF0F8
:10599A0014C0A0F0000E1D6E000E1E6E000E1F6ECB
:1059AA00000E206E9DC021F09EC022F09FC023F001
:1059BA00A0C024F0B3EC1BF0D8B0E6EF2CF0E8EF6F
:1059CA002CF006EF2DF09DC033F09EC034F09FC03E
:1059DA0035F0A0C036F092EC1DF033C043F034C06D
:1059EA0044F035C045F036C046F0C6EC19F08DC01B
:1059FA00B5F08EC0B6F08FC0B7F090C0B8F048EFDF
:105A0A002DF00001A0BF0EEF2DF00CEF2DF048EFA6
:105A1A002DF09DC001F09EC002F09FC003F0A0C00F
:105A2A0004F035EC1CF001C00BF002C00CF0E0EC05
:105A3A0018F00BC00FF00CC010F0000E10BEFF0ED5
:105A4A00116E126E010EB8EC1CF00FC073F010C08C
:105A5A0074F011C075F012C076F073C033F074C0E0
:105A6A0034F075C035F076C036F092EC1DF033C0D4
:105A7A0043F034C044F035C045F036C046F08AECF5
:105A8A0019F0FCEF2CF000017D517E11D8B450EFD3
:105A9A002DF052EF2DF0EDEF2DF099C08DF09AC058
:105AAA008EF09BC08FF09CC090F099C011F09AC004
:105ABA0012F09BC013F09CC014F0B1C015F0B2C034
:105ACA0016F0B3C017F0B4C018F000EC19F011C00A
:105ADA0099F012C09AF013C09BF014C09CF0000E0B
:105AEA001D6E000E1E6E000E1F6E000E206E99C0F7
:105AFA0021F09AC022F09BC023F09CC024F0B3ECA2
:105B0A001BF0D8B08BEF2DF08DEF2DF0ABEF2DF011
:105B1A0099C033F09AC034F09BC035F09CC036F07F
:105B2A0092EC1DF033C043F034C044F035C045F068
:105B3A0036C046F04EEC19F08DC0B1F08EC0B2F00E
:105B4A008FC0B3F090C0B4F0EDEF2DF000019CBF10
:105B5A00B3EF2DF0B1EF2DF0EDEF2DF099C001F07C
:105B6A009AC002F09BC003F09CC004F035EC1CF014
:105B7A0001C00BF002C00CF0E0EC18F00BC00FF003
:105B8A000CC010F0000E10BEFF0E116E126E010E48
:105B9A00B8EC1CF00FC073F010C074F011C075F0AF
:105BAA0012C076F073C033F074C034F075C035F0AB
:105BBA0076C036F092EC1DF033C043F034C044F0A6
:105BCA0035C045F036C046F002EC1AF0A1EF2DF0D0
:105BDA00000E00017C6F000E7B6F000E7E6F000EC0
:105BEA007D6FF8EF2DF00001A14BA22B5D50A15D56
:105BFA005E50A259D8A004EF2EF006EF2EF063EF04
:105C0A0028F01200006042A20D4739303B4731208C
:105C1A005833362E32343739313720593134372E0A
:105C2A003337323931373B4739313B204731205AF4
:105C3A00332E303030303030204739303B4739311D
:105C4A003B204731205A322E303030303030204716
:105C5A0039303B4731205839312E323831323530DC
:105C6A00205933302E3935363235303B4739313BBE
:105C7A00204731205A332E303030303030204739E7
:105C8A00303B4731205839312E30313636363720BD
:105C9A005933312E3232303833333B473120583979
:105CAA00312E303136363637205933312E343835A5
:105CBA003431373B4731205839302E32323239317C
:105CCA0037205933322E3237393136373B47312074
:105CDA005839302E323232393137205933322E3553
:105CEA0034333735303B4731205838392E39353837
:105CFA00333333205933322E3830383333333B473A
:105D0A0031205838392E3935383333332059333323
:105D1A002E3037323931373B4731205838392E3611
:105D2A003933373530205933332E33333735303022
:105D3A003B4731205838392E3639333735302059D8
:105D4A0033332E3630323038333B473120583839E6
:105D5A002E343239313637205933332E38363636E7
:105D6A0036373B4731205838392E343239313637B5
:105D7A00205933342E3133313235303B47312058B4
:105D8A0038392E313634353833205933342E3339B5
:105D9A00353833333B4731205838392E313634358C
:105DAA003833205933342E3636303431373B473185
:105DBA00205838382E393030303030205933342E8C
:105DCA003932353030303B4731205838382E393067
:105DDA0030303030205933352E3138393538333B6D
:105DEA004731205838382E36333534313720593335
:105DFA00352E3435343136373B4731205838382E32
:105E0A00363335343137205933352E393833333335
:105E1A00333B4731205838382E3337303833332024
:105E2A005933362E3234373931373B4731205838D7
:105E3A00382E333730383333205933362E35313212
:105E4A003530303B4731205838382E3130363235EC
:105E5A0030205933362E3737373038333B473120E5
:105E6A005838382E313036323530205933372E30C3
:105E7A0034313636373B4731205838372E383431AB
:105E8A00363637205933372E3330363235303B47A2
:105E9A0031205838372E383431363637205933378F
:105EAA002E3537303833333B4731205838372E3583
:105EBA003737303833205933372E38333534313782
:105ECA003B4731205838372E353737303833205949
:105EDA0033382E3130303030303B47312058383764
:105EEA002E333132353030205933382E333634356B
:105EFA0038333B4731205838372E3331323530303A
:105F0A00205933382E3632393136373B473120580B
:105F1A0038372E303437393137205933382E38391B
:105F2A00333735303B4731205838372E30343739FC
:105F3A003137205933392E3135383333333B4731F2
:105F4A00205838362E373833333333205933392EE5
:105F5A003432323931373B4731205838362E3738C8
:105F6A0033333333205933392E3935323038333BD2
:105F7A004731205838362E353138373530205934A4
:105F8A00302E3231363636373B4731205838362EA6
:105F9A00353138373530205934302E3438313235AE
:105FAA00303B4731205838362E3235343136372097
:105FBA005934302E3734353833333B47312058384B
:105FCA00362E323534313637205934312E3031308D
:105FDA003431373B4731205838352E39383935383E
:105FEA0033205934312E3237353030303B47312067
:105FFA005838352E393839353833205934312E3519
:10600A0033393538333B4731205838352E37323516
:10601A00303030205934312E3830343136373B471E
:10602A0031205838352E3732353030302059343215
:10603A002E3036383735303B4731205838352E34F4
:10604A003630343137205934322E33333333333305
:10605A003B4731205838352E3436303431372059C1
:10606A0034322E3539373931373B473120583835B4
:10607A002E313935383333205934322E38363235C9
:10608A0030303B4731205838352E313935383333A3
:10609A00205934332E3132373038333B4731205888
:1060AA0038342E393331323530205934332E33399E
:1060BA00313636373B4731205838342E393331326E
:1060CA003530205934332E3635363235303B473168
:1060DA00205838342E363636363637205934332E51
:1060EA003932303833333B4731205838342E36363C
:1060FA0036363637205934342E3138353431373B39
:10610A004731205838342E3430323038332059341D
:10611A00342E3435303030303B4731205838342E25
:10612A00343032303833205934342E393739313615
:10613A00373B4731205838342E3133373530302009
:10614A005934352E3234333735303B4731205838BD
:10615A00342E313337353030205934352E353038F6
:10616A003333333B4731205838332E3837323931BD
:10617A0037205934352E3737323931373B473120BA
:10618A005838332E383732393137205934362E3091
:10619A0033373530303B4731205838332E36303894
:1061AA00333333205934362E3330323038333B4789
:1061BA0031205838332E3630383333332059343679
:1061CA002E3536363636373B4731205838332E335C
:1061DA003433373530205934362E3833313235306E
:1061EA003B4731205838332E333433373530205932
:1061FA0034372E3039353833333B4731205838332A
:10620A002E303739313637205934372E3336303439
:10621A0031373B4731205838332E3037393136370A
:10622A00205934372E3632353030303B47312058FA
:10623A0038322E383134353833205934372E3838FD
:10624A00393538333B4731205838322E38313435D6
:10625A003833205934382E3135343136373B4731CB
:10626A00205838322E353530303030205934382ED7
:10627A003431383735303B4731205838322E3535AE
:10628A0030303030205934382E3638333333333BBC
:10629A004731205838322E32383534313720593484
:1062AA00382E3934373931373B4731205838322E76
:1062BA00323835343137205934392E32313235308B
:1062CA00303B4731205838322E3032303833332081
:1062DA005934392E3437373038333B473120583820
:1062EA00322E303230383333205935302E30303672
:1062FA003235303B4731205838312E373536323532
:10630A0030205935302E3237303833333B4731203D
:10631A005838312E373536323530205935302E350A
:10632A0033353431373B4731205838312E343931FF
:10633A00363637205935302E3830303030303B47FA
:10634A0031205838312E34393136363720593531E3
:10635A002E3036343538333B4731205838312E32D7
:10636A003237303833205935312E333239313637D6
:10637A003B4731205838312E3232373038332059A2
:10638A0035312E3539333735303B4731205838309F
:10639A002E393632353030205935312E38353833AA
:1063AA0033333B4731205838302E39363235303086
:1063BA00205935322E3132323931373B4731205864
:1063CA0038302E363937393137205935322E33386D
:1063DA00373530303B4731205838302E3639373947
:1063EA003137205935322E3635323038333B473142
:1063FA00205838302E343333333333205935322E44
:10640A003931363636373B4731205838302E343317
:10641A0033333333205935332E3434353833333B21
:10642A004731205838302E313638373530205935F3
:10643A00332E3731303431373B4731205838302EFC
:10644A00313638373530205935332E3937353030F3
:10645A00303B4731205837392E39303431363720DE
:10646A005935342E3233393538333B473120583792
:10647A00392E393034313637205935342E353034C7
:10648A003136373B4731205837392E36333935388C
:10649A0033205935342E3736383735303B4731209B
:1064AA005837392E363339353833205935352E3069
:1064BA0033333333333B4731205837392E3337356B
:1064CA00303030205935352E3239373931373B475C
:1064DA0031205837392E3337353030302059353559
:1064EA002E3536323530303B4731205837392E3148
:1064FA003130343137205935352E38323730383348
:10650A003B4731205837392E313130343137205911
:10651A0035362E3039313636373B47312058373801
:10652A002E383435383333205935362E3335363212
:10653A0035303B4731205837382E383435383333E5
:10654A00205935362E3632303833333B47312058CE
:10655A0037382E353831323530205935362E3838DD
:10656A00353431373B4731205837382E35383132B8
:10657A003530205935372E3135303030303B4731C0
:10658A00205837382E333136363637205935372E9C
:10659A003431343538333B4731205837382E33318C
:1065AA0036363637205935372E3934333735303B7E
:1065BA004731205837372E3738373530302059355C
:1065CA00382E3437323931373B4731205837372E56
:1065DA00373837353030205935392E303032303867
:1065EA00333B4731205837372E353232393137204D
:1065FA005935392E3236363636373B4731205837F9
:10660A00372E353232393137205935392E35333133
:10661A003235303B4731205837372E32353833330D
:10662A0033205935392E3739353833333B47312002
:10663A005837372E323538333333205936302E30E7
:10664A0036303431373B4731205837362E393933D3
:10665A00373530205936302E3332353030303B47DB
:10666A0031205837362E39393337353020593630BC
:10667A002E3538393538333B4731205837362E379F
:10668A003239313637205936302E383534313637AB
:10669A003B4731205837362E373239313637205971
:1066AA0036312E3131383735303B4731205837367D
:1066BA002E343634353833205936312E3338333385
:1066CA0033333B4731205837362E34363435383356
:1066DA00205936312E3634373931373B4731205835
:1066EA0037362E323030303030205936312E39316B
:1066FA00323530303B4731205837362E3230303041
:10670A003030205936322E3434313636373B473121
:10671A00205837352E393335343137205936322E11
:10672A003730363235303B4731205837352E3933FA
:10673A0035343137205936322E3937303833333BF6
:10674A004731205837352E363730383333205936CB
:10675A00332E3233353431373B4731205837352ED3
:10676A00363730383333205936332E3530303030DF
:10677A00303B4731205837352E34303632353020C9
:10678A005936332E3736343538333B47312058376C
:10679A00352E343036323530205936342E303239AF
:1067AA003136373B4731205837352E31343136367A
:1067BA0037205936342E3239333735303B4731207A
:1067CA005837352E313431363637205936342E354E
:1067DA0035383333333B4731205837342E3837373F
:1067EA00303833205936342E3832323931373B4734
:1067FA0031205837342E3837373038332059363528
:10680A002E3038373530303B4731205837342E3622
:10681A003132353030205936352E3335323038332F
:10682A003B4731205837342E3631323530302059F3
:10683A0036352E3631363636373B473120583734DF
:10684A002E333437393137205936352E38383132EC
:10685A0035303B4731205837342E333437393137C6
:10686A00205936362E3134353833333B47312058A8
:10687A0037342E303833333333205936362E3431C9
:10688A00303431373B4731205837342E30383333A0
:10689A003333205936362E3637353030303B473190
:1068AA00205837332E383138373530205936362E7E
:1068BA003933393538333B4731205837332E38315D
:1068CA0038373530205936372E3436383735303B5D
:1068DA004731205837332E3535343136372059363B
:1068EA00372E3733333333333B4731205837332E40
:1068FA00353534313637205936372E39393739312B
:10690A00373B4731205837332E3238393538332020
:10691A005936382E3236323530303B4731205837E7
:10692A00332E323839353833205936382E35323706
:10693A003038333B4731205837332E3032353030F8
:10694A0030205936382E3739313636373B473120E1
:10695A005837332E303235303030205936392E30D0
:10696A0035363235303B4731205837322E373630BC
:10697A00343137205936392E3332303833333B47A6
:10698A0031205837322E373630343137205936399C
:10699A002E3538353431373B4731205837322E348B
:1069AA003935383333205936392E3835303030308E
:1069BA003B4731205837322E343935383333205952
:1069CA0037302E3131343538333B4731205837325E
:1069DA002E323331323530205937302E3337393170
:1069EA0036373B4731205837322E32333132353041
:1069FA00205937302E3634333735303B473120581B
:106A0A0037312E393636363637205937302E393027
:106A1A00383333333B4731205837312E39363636FF
:106A2A003637205937312E3137323931373B4731F2
:106A3A00205837312E373032303833205937312EFB
:106A4A003433373530303B4731205837312E3730E1
:106A5A0032303833205937312E3936363636373BCD
:106A6A004731205837312E343337353030205937B3
:106A7A00322E3233313235303B4731205837312EBE
:106A8A00343337353030205937322E3439353833AC
:106A9A00333B4731205837312E313732393137209D
:106AAA005937322E3736303431373B473120583751
:106ABA00312E313732393137205937332E3032358A
:106ACA003030303B4731205837302E393038333365
:106ADA0033205937332E3238393538333B47312052
:106AEA005837302E393038333333205937332E352F
:106AFA0035343136373B4731205837302E36343328
:106B0A00373530205937332E3831383735303B470F
:106B1A0031205837302E3634333735302059373410
:106B2A002E3038333333333B4731205837302E3306
:106B3A003739313637205937342E333437393137EC
:106B4A003B4731205837302E3337393136372059C1
:106B5A0037342E3631323530303B473120583730D2
:106B6A002E313134353833205937342E38373730CF
:106B7A0038333B4731205837302E313134353833AA
:106B8A00205937352E3134313636373B4731205884
:106B9A0036392E383530303030205937352E3430AA
:106BAA00363235303B4731205836392E3835303079
:106BBA003030205937352E3933353431373B473168
:106BCA00205836392E353835343137205937362E54
:106BDA003230303030303B4731205836392E353854
:106BEA0035343137205937362E3436343538333B3D
:106BFA004731205836392E3035363235302059371C
:106C0A00362E3939333735303B4731205836392E0D
:106C1A00303536323530205937372E353232393120
:106C2A00373B4731205836382E37393136363720F8
:106C3A005937372E3738373530303B4731205836B9
:106C4A00382E373931363637205937382E303532E3
:106C5A003038333B4731205836382E3532373038C2
:106C6A0033205937382E3331363636373B473120C1
:106C7A005836382E353237303833205937382E3592
:106C8A0038313235303B4731205836382E32363299
:106C9A00353030205937382E3834353833333B477E
:106CAA0031205836382E323632353030205937397D
:106CBA002E3131303431373B4731205836372E396F
:106CCA003937393137205937392E33373530303063
:106CDA003B4731205836372E393937393137205921
:106CEA0037392E3633393538333B47312058363722
:106CFA002E373333333333205937392E3930343141
:106D0A0036373B4731205836372E37333333333310
:106D1A00205938302E3136383735303B47312058F4
:106D2A0036372E343638373530205938302E34330A
:106D3A00333333333B4731205836372E34363837DE
:106D4A003530205938302E3936323530303B4731DC
:106D5A00205836372E323034313637205938312ED2
:106D6A003232373038333B4731205836372E3230BB
:106D7A0034313637205938312E3439313636373BAB
:106D8A004731205836362E39333935383320593879
:106D9A00312E3735363235303B4731205836362E8C
:106DAA00393339353833205938322E303230383386
:106DBA00333B4731205836362E363735303030207F
:106DCA005938322E3238353431373B47312058362C
:106DDA00362E363735303030205938322E35353068
:106DEA003030303B4731205836362E34313034314A
:106DFA0037205938322E3831343538333B47312031
:106E0A005836362E343130343137205938332E3013
:106E1A0037393136373B4731205836362E313435FB
:106E2A00383333205938332E3334333735303B47F0
:106E3A0031205836362E31343538333320593833E9
:106E4A002E3630383333333B4731205836352E38D7
:106E5A003831323530205938332E383732393137D4
:106E6A003B4731205836352E3838313235302059A3
:106E7A0038342E3133373530303B473120583635A8
:106E8A002E363136363637205938342E34303230B1
:106E9A0038333B4731205836352E36313636363779
:106EAA00205938342E3636363636373B4731205855
:106EBA0036352E333532303833205938342E39337B
:106ECA00313235303B4731205836352E3335323062
:106EDA003833205938352E3139353833333B473139
:106EEA00205836352E303837353030205938352E3F
:106EFA003436303431373B4731205836352E303826
:106F0A0037353030205938352E3732353030303B2E
:106F1A004731205836342E383232393137205938F1
:106F2A00352E3938393538333B4731205836342EE7
:106F3A00383232393137205938362E3531383735EB
:106F4A00303B4731205836342E35353833333320E9
:106F5A005938362E3738333333333B473120583696
:106F6A00342E353538333333205938372E303437C9
:106F7A003931373B4731205836342E323933373599
:106F8A0030205938372E3331323530303B473120B3
:106F9A005836342E323933373530205938372E3572
:106FAA0037373038333B4731205836342E30323970
:106FBA00313637205938372E3834313636373B4751
:106FCA0031205836342E3032393136372059383854
:106FDA002E3130363235303B4731205836332E3752
:106FEA003634353833205938382E3337303833333E
:106FFA003B4731205836332E37363435383320590B
:10700A0038382E3633353431373B4731205836330A
:10701A002E353030303030205938382E3930303033
:10702A0030303B4731205836332E3530303030300F
:10703A00205938392E3432393136373B47312058C6
:10704A0036332E323335343137205938392E3639E2
:10705A00333735303B4731205836332E32333534C7
:10706A003137205938392E3935383333333B4731A4
:10707A00205836322E393730383333205939302EAA
:10708A003232323931373B4731205836322E39378E
:10709A0030383333205939302E3438373530303B95
:1070AA004731205836322E3730363235302059396A
:1070BA00302E3735323038333B4731205836322E6E
:1070CA00373036323530205939312E30313636366E
:1070DA00373B4731205836322E3434313636372052
:1070EA005939312E3238313235303B473120583612
:1070FA00322E343431363637205939312E3534353B
:10710A003833333B4731205836322E31373730380F
:10711A0033205939312E3831303431373B47312019
:10712A005836322E313737303833205939322E30EB
:10713A0037353030303B4731205836312E393132ED
:10714A00353030205939322E3333393538333B47CD
:10715A0031205836312E39313235303020593932D2
:10716A002E3630343136373B4731205836312E36B9
:10717A003437393137205939322E383638373530A5
:10718A003B4731205836312E36343739313720597A
:10719A0039332E3133333333333B47312058363189
:1071AA002E333833333333205939332E3339373981
:1071BA0031373B4731205836312E33383333333366
:1071CA00205939332E3932373038333B473120583A
:1071DA0036302E383534313637205939342E343555
:1071EA00363235303B4731205836302E3835343137
:1071FA003637205939342E3938353431373B47310F
:10720A00205836302E353839353833205939352E0D
:10721A003235303030303B4731205836302E353811
:10722A0039353833205939352E3531343538333BF1
:10723A004731205836302E333235303030205939E4
:10724A00352E3737393136373B4731205836302ECD
:10725A00333235303030205939362E3034333735E1
:10726A00303B4731205836302E30363034313720D3
:10727A005939362E3330383333333B473120583679
:10728A00302E303630343137205939362E353732B0
:10729A003931373B4731205835392E37393538336C
:1072AA0033205939362E3833373530303B47312081
:1072BA005835392E373935383333205939372E3145
:1072CA0030323038333B4731205835392E35333157
:1072DA00323530205939372E3336363636373B4732
:1072EA0031205835392E3533313235302059393736
:1072FA002E3633313235303B4731205835392E322C
:10730A003636363637205939372E38393538333309
:10731A003B4731205835392E3236363636372059E2
:10732A0039382E3432353030303B473120583539F0
:10733A002E303032303833205939382E36383935F4
:10734A0038333B4731205835392E303032303833D4
:10735A00205939382E3935343136373B47312058A0
:10736A0035382E373337353030205939392E3231C6
:10737A00383735303B4731205835382E3733373593
:10738A003030205939392E3438333333333B47318F
:10739A00205835382E343732393137205939392E79
:1073AA003734373931373B4731205835382E34375F
:1073BA003239313720593130302E30313235303090
:1073CA003B4731205835382E323038333333205941
:1073DA003130302E3237373038333B473120583549
:1073EA00382E32303833333320593130302E353459
:1073FA00313636373B4731205835372E3934333713
:10740A00353020593130302E3830363235303B471E
:10741A0031205835372E3934333735302059313009
:10742A00312E3037303833333B4731205835372EF9
:10743A0036373931363720593130312E33333534F6
:10744A0031373B4731205835372E363739313637C1
:10745A0020593130312E3630303030303B473120F0
:10746A005835372E34313435383320593130312EAE
:10747A003836343538333B4731205835372E343196
:10748A003435383320593130322E313239313637AA
:10749A003B4731205835372E31353030303020597E
:1074AA003130322E3339333735303B473120583576
:1074BA00372E31353030303020593130322E363592
:1074CA00383333333B4731205835362E3838353444
:1074DA00313720593130322E3932323931373B4740
:1074EA0031205835362E3838353431372059313035
:1074FA00332E3138373530303B4731205835362E28
:10750A0036323038333320593130332E3435323035
:10751A0038333B4731205835362E363230383333FC
:10752A0020593130332E3731363636373B47312002
:10753A005835362E33353632353020593130332EE0
:10754A003938313235303B4731205835362E3335CC
:10755A003632353020593130342E353130343137E6
:10756A003B4731205835362E303931363637205997
:10757A003130342E3737353030303B4731205835AB
:10758A00362E30393136363720593130352E3033B0
:10759A00393538333B4731205835352E3832373074
:1075AA00383320593130352E3330343136373B4772
:1075BA0031205835352E383237303833205931306A
:1075CA00352E3536383735303B4731205835352E4C
:1075DA0035363235303020593130352E3833333361
:1075EA0033333B4731205835352E35363235303036
:1075FA0020593130362E3039373931373B4731202F
:10760A005835352E32393739313720593130362EFF
:10761A003336323530303B4731205835352E323902
:10762A003739313720593130362E36323730383300
:10763A003B4731205835352E3033333333332059D5
:10764A003130362E3839313636373B4731205835C6
:10765A00352E30333333333320593130372E3135E9
:10766A00363235303B4731205835342E37363837A5
:10767A00353020593130372E3432303833333B47A6
:10768A0031205835342E3736383735302059313095
:10769A00372E3638353431373B4731205835342E7A
:1076AA0035303431363720593130372E393530308C
:1076BA0030303B4731205835342E35303431363767
:1076CA0020593130382E3437393136373B4731205B
:1076DA005835342E32333935383320593130382E33
:1076EA003734333735303B4731205835342E32332F
:1076FA003935383320593130392E30303833333335
:10770A003B4731205835332E393735303030205900
:10771A003130392E3237323931373B4731205835FB
:10772A00332E39373530303020593130392E353310
:10773A00373530303B4731205835332E37313034E6
:10774A00313720593130392E3830323038333B47CF
:10775A0031205835332E37313034313720593131D1
:10776A00302E3036363636373B4731205835332EB1
:10777A0034343538333320593131302E33333132C2
:10778A0035303B4731205835332E3434353833338E
:10779A0020593131302E3539353833333B47312092
:1077AA005835332E31383132353020593131302E77
:1077BA003836303431373B4731205835332E31385B
:1077CA003132353020593131312E31323530303085
:1077DA003B4731205835322E393136363637205923
:1077EA003131312E3338393538333B47312058352A
:1077FA00322E39313636363720593131312E393138
:10780A00383735303B4731205835322E363532300D
:10781A00383320593131322E3138333333333B4701
:10782A0031205835322E36353230383320593131FD
:10783A00322E3434373931373B4731205835322EDE
:10784A0031323239313720593131322E39373730E6
:10785A0038333B4731205835322E313232393137BD
:10786A0020593131332E3530363235303B473120CD
:10787A005835312E38353833333320593131332E98
:10788A003737303833333B4731205835312E383586
:10789A003833333320593131342E3033353431379C
:1078AA003B4731205835312E353933373530205959
:1078BA003131342E3330303030303B473120583577
:1078CA00312E35393337353020593131342E35366A
:1078DA00343538333B4731205835312E333239313C
:1078EA00363720593131342E3832393136373B4721
:1078FA0031205835312E333239313637205931312A
:10790A00352E3039333735303B4731205835312E13
:10791A0030363435383320593131352E3335383312
:10792A0033333B4731205835312E303634353833EE
:10793A0020593131352E3632323931373B473120F1
:10794A005835302E38303030303020593131352EDC
:10795A003838373530303B4731205835302E3830BB
:10796A003030303020593131362E313532303833DB
:10797A003B4731205835302E35333534313720598D
:10798A003131362E3431363636373B473120583589
:10799A00302E35333534313720593131362E363899
:1079AA00313235303B4731205835302E3237303876
:1079BA00333320593131362E3934353833333B4756
:1079CA0031205835302E323730383333205931315F
:1079DA00372E3437353030303B4731205835302E4A
:1079EA0030303632353020593131372E3733393548
:1079FA0038333B4731205835302E30303632353027
:107A0A0020593131382E3030343136373B47312026
:107A1A005834392E37343136363720593131382EE9
:107A2A003236383735303B4731205834392E3734DF
:107A3A003136363720593131382E353333333333F3
:107A4A003B4731205834392E3437373038332059B0
:107A5A003131382E3739373931373B4731205834AD
:107A6A00392E34373730383320593131392E3036C0
:107A7A00323530303B4731205834392E32313235A5
:107A8A00303020593131392E3332373038333B4791
:107A9A0031205834392E3231323530302059313193
:107AAA00392E3539313636373B4731205834382E5E
:107ABA0039343739313720593131392E3835363260
:107ACA0035303B4731205834382E3934373931373D
:107ADA0020593132302E3132303833333B4731205E
:107AEA005834382E36383333333320593132302E26
:107AFA003338353431373B4731205834382E36380D
:107B0A003333333320593132302E3635303030303A
:107B1A003B4731205834382E3431383735302059E4
:107B2A003132302E3931343538333B4731205834ED
:107B3A00382E34313837353020593132312E3137F9
:107B4A00393136373B4731205834382E31353431C4
:107B5A00363720593132312E3434333735303B47BA
:107B6A0031205834382E31353431363720593132B4
:107B7A00312E3730383333333B4731205834372EA0
:107B8A0038383935383320593132312E393732398C
:107B9A0031373B4731205834372E38383935383366
:107BAA0020593132322E3530323038333B4731208A
:107BBA005834372E36323530303020593132322E61
:107BCA003736363636373B4731205834372E363239
:107BDA003530303020593132332E3033313235306E
:107BEA003B4731205834372E333630343137205919
:107BFA003132332E3239353833333B47312058341A
:107C0A00372E33363034313720593132332E353628
:107C1A00303431373B4731205834372E30393538F4
:107C2A00333320593132332E3832353030303B47F6
:107C3A0031205834372E30393538333320593132E0
:107C4A00342E3038393538333B4731205834362EC4
:107C5A0038333132353020593132342E33353431DC
:107C6A0036373B4731205834362E383331323530A7
:107C7A0020593132342E3631383735303B473120AE
:107C8A005834362E35363636363720593132342E78
:107C9A003838333333333B4731205834362E353670
:107CAA003636363720593132352E34313235303086
:107CBA003B4731205834362E33303230383320594E
:107CCA003132352E3637373038333B473120583446
:107CDA00362E33303230383320593132352E39345A
:107CEA00313636373B4731205834362E3033373524
:107CFA00303020593132362E3230363235303B4729
:107D0A0031205834362E303337353030205931321D
:107D1A00362E3437303833333B4731205834352EFA
:107D2A0037373239313720593132362E37333534F5
:107D3A0031373B4731205834352E373732393137CE
:107D4A0020593132372E3030303030303B473120F5
:107D5A005834352E35303833333320593132372EB3
:107D6A003236343538333B4731205834352E3530A6
:107D7A003833333320593132372E353239313637A9
:107D8A003B4731205834352E323433373530205979
:107D9A003132372E3739333735303B473120583473
:107DAA00352E32343337353020593132382E30358A
:107DBA00383333333B4731205834342E393739314D
:107DCA00363720593132382E3332323931373B4740
:107DDA0031205834342E3937393136372059313237
:107DEA00382E3538373530303B4731205834342E29
:107DFA0037313435383320593132382E383532302C
:107E0A0038333B4731205834342E37313435383300
:107E1A0020593132392E3131363636373B47312007
:107E2A005834342E34353030303020593132392EEE
:107E3A003338313235303B4731205834342E3435DB
:107E4A003030303020593132392E363435383333E8
:107E5A003B4731205834342E3138353431372059A4
:107E6A003132392E3931303431373B4731205834A9
:107E7A00342E31383534313720593133302E3137B9
:107E8A00353030303B4731205834332E3932303890
:107E9A00333320593133302E3433393538333B4775
:107EAA0031205834332E3932303833332059313374
:107EBA00302E3730343136373B4731205834332E61
:107ECA0036353632353020593133302E3936383757
:107EDA0035303B4731205834332E3635363235303B
:107EEA0020593133312E3439373931373B47312034
:107EFA005834332E33393136363720593133312E0F
:107F0A003736323530303B4731205834332E333907
:107F1A003136363720593133322E30323730383312
:107F2A003B4731205834332E3132373038332059D9
:107F3A003133322E3239313636373B4731205834D5
:107F4A00332E31323730383320593133322E3535EA
:107F5A00363235303B4731205834322E38363235B6
:107F6A00303020593133322E3832303833333B47B0
:107F7A0031205834322E38363235303020593133A8
:107F8A00332E3038353431373B4731205834322E8E
:107F9A0035393739313720593133332E333530308B
:107FAA0030303B4731205834322E35393739313762
:107FBA0020593133332E3631343538333B4731206B
:107FCA005834322E33333333333320593133332E4B
:107FDA003837393136373B4731205834322E33332C
:107FEA003333333320593133342E31343337353048
:107FFA003B4731205834322E303638373530205905
:10800A003133342E3430383333333B47312058340C
:10801A00322E30363837353020593133342E393311
:10802A00373530303B4731205834312E38303431EF
:10803A00363720593133352E3230323038333B47D8
:10804A0031205834312E38303431363720593133D3
:10805A00352E3436363636373B4731205834312EB2
:10806A0035333935383320593133352E37333132B8
:10807A0035303B4731205834312E35333935383392
:10808A0020593133352E3939353833333B4731208E
:10809A005834312E32373530303020593133362E7C
:1080AA003236303431373B4731205834312E32376B
:1080BA003530303020593133362E35323530303084
:1080CA003B4731205834312E303130343137205942
:1080DA003133362E3738393538333B473120583427
:1080EA00312E30313034313720593133372E303553
:1080FA00343136373B4731205834302E373435380F
:10810A00333320593133372E3331383735303B4703
:10811A0031205834302E37343538333320593133FF
:10812A00372E3538333333333B4731205834302EEA
:10813A0034383132353020593133372E38343739E3
:10814A0031373B4731205834302E343831323530CC
:10815A0020593133382E3131323530303B473120D6
:10816A005834302E32313636363720593133382E9C
:10817A003337373038333B4731205834302E323199
:10818A003636363720593133382E3634313636378B
:10819A003B4731205833392E39353230383320595C
:1081AA003133382E3930363235303B473120583367
:1081BA00392E39353230383320593133392E313767
:1081CA00303833333B4731205833392E3638373538
:1081DA00303020593133392E3433353431373B4737
:1081EA0031205833392E363837353030205931332B
:1081FA00392E3730303030303B4731205833392E22
:10820A0034323239313720593133392E393634350F
:10821A0038333B4731205833392E343232393137EB
:10822A0020593134302E3439333735303B473120F9
:10823A005833392E31353833333320593134302ECF
:10824A003735383333333B4731205833392E3135BC
:10825A003833333320593134312E303232393137D1
:10826A003B4731205833382E383933373530205987
:10827A003134312E3238373530303B47312058339C
:10828A00382E38393337353020593134312E353597
:10829A00323038333B4731205833382E3632393171
:1082AA00363720593134312E3831363636373B4756
:1082BA0031205833382E3632393136372059313455
:1082CA00322E3038313235303B4731205833382E50
:1082DA0033363435383320593134322E3334353845
:1082EA0033333B4731205833382E3336343538331D
:1082FA0020593134322E3631303431373B47312030
:10830A005833382E31303030303020593134322E13
:10831A003837353030303B4731205833382E3130FA
:10832A003030303020593134332E31333935383307
:10833A003B4731205833372E3833353431372059BB
:10834A003134332E3430343136373B4731205833C9
:10835A00372E38333534313720593134332E3636C7
:10836A00383735303B4731205833372E3537303898
:10837A00333320593134332E3933333333333B4794
:10838A0031205833372E353730383333205931348A
:10839A00342E3436323530303B4731205833372E7D
:1083AA0033303632353020593134342E3732373083
:1083BA0038333B4731205833372E33303632353055
:1083CA0020593134342E3939313636373B4731204A
:1083DA005833372E30343136363720593134352E2A
:1083EA003235363235303B4731205833372E303428
:1083FA003136363720593134352E35323038333329
:10840A003B4731205833362E3737373038332059E7
:10841A003134352E3738353431373B4731205833EC
:10842A00372E30343136363720593134352E3738F5
:10843A00353431373B4731205833372E30343136D3
:10844A00363720593134352E3532303833333B47BD
:10845A0031205833372E33303632353020593134C3
:10846A00352E3235363235303B4731205833372EA8
:10847A0033303632353020593134342E39393136A9
:10848A0036373B4731205833372E35373038333378
:10849A0020593134342E3732373038333B47312084
:1084AA005833372E35373038333320593134342E58
:1084BA003436323530303B4731205833372E383353
:1084CA003534313720593134342E3139373931374F
:1084DA003B4731205833372E38333534313720591A
:1084EA003134332E3636383735303B47312058331E
:1084FA00382E31303030303020593134332E343048
:10850A00343136373B4731205833382E313030300A
:10851A00303020593134332E3133393538333B47F3
:10852A0031205833382E33363435383320593134E4
:10853A00322E3837353030303B4731205833382ED9
:10854A0033363435383320593134322E36313034DB
:10855A0031373B4731205833382E363239313637A6
:10856A0020593134322E3334353833333B473120B6
:10857A005833382E36323931363720593134322E83
:10858A003038313235303B4731205833382E38397C
:10859A003337353020593134312E38313636363783
:1085AA003B4731205833382E383933373530205944
:1085BA003134312E3535323038333B473120583358
:1085CA00392E31353833333320593134312E32385C
:1085DA00373530303B4731205833392E313538332F
:1085EA00333320593134312E3032323931373B4727
:1085FA0031205833392E3432323931372059313417
:10860A00302E3735383333333B4731205833392E00
:10861A0034323239313720593134302E3439333704
:10862A0035303B4731205833392E363837353030DC
:10863A0020593134302E3232393136373B473120E6
:10864A005833392E36383735303020593133392EB0
:10865A003936343538333B4731205833392E39359A
:10866A003230383320593133392E373030303030C8
:10867A003B4731205833392E393532303833205977
:10868A003133392E3433353431373B47312058347E
:10869A00302E32313636363720593133392E31378A
:1086AA00303833333B4731205834302E3231363666
:1086BA00363720593133382E3930363235303B4748
:1086CA0031205834302E3438313235302059313354
:1086DA00382E3634313636373B4731205834302E2F
:1086EA0034383132353020593133382E3131323540
:1086FA0030303B4731205834302E37343538333315
:10870A0020593133372E3834373931373B47312006
:10871A005834302E37343538333320593133372EE5
:10872A003538333333333B4731205834312E3031E7
:10873A003034313720593133372E333138373530E9
:10874A003B4731205834312E3031303431372059BB
:10875A003133372E3035343136373B4731205834B0
:10876A00312E32373530303020593133362E3738C2
:10877A00393538333B4731205834312E323735308A
:10878A00303020593133362E3532353030303B4790
:10879A0031205834312E3533393538332059313375
:1087AA00362E3236303431373B4731205834312E69
:1087BA0035333935383320593133352E393935384F
:1087CA0033333B4731205834312E38303431363741
:1087DA0020593133352E3733313235303B4731204A
:1087EA005834312E38303431363720593133352E1A
:1087FA003436363636373B4731205834322E303607
:10880A003837353020593133352E3230323038331B
:10881A003B4731205834322E3036383735302059DC
:10882A003133342E3637323931373B4731205834D9
:10883A00322E35393739313720593133342E3134E4
:10884A00333735303B4731205834322E35393739B2
:10885A00313720593133332E3631343538333B47AB
:10886A0031205834322E38363235303020593133AF
:10887A00332E3335303030303B4731205834322EA6
:10888A0038363235303020593133332E303835349A
:10889A0031373B4731205834332E31323730383371
:1088AA0020593133322E3832303833333B47312076
:1088BA005834332E31323730383320593133322E4F
:1088CA003535363235303B4731205834332E33393B
:1088DA003136363720593133322E3239313636373E
:1088EA003B4731205834332E333931363637205905
:1088FA003133322E3032373038333B473120583417
:10890A00332E36353632353020593133312E37361B
:10891A00323530303B4731205834332E36353632F3
:10892A00353020593133312E3439373931373B47D5
:10893A0031205834332E39323038333320593133D9
:10894A00312E3233333333333B4731205834332ECD
:10895A0039323038333320593133302E39363837BB
:10896A0035303B4731205834342E3138353431379D
:10897A0020593133302E3730343136373B473120A6
:10898A005834342E31383534313720593133302E7A
:10899A003137353030303B4731205834342E373177
:1089AA003435383320593132392E36343538333369
:1089BA003B4731205834342E373134353833205937
:1089CA003132392E3131363636373B473120583439
:1089DA00342E39373931363720593132382E383535
:1089EA00323038333B4731205834342E3937393115
:1089FA00363720593132382E3538373530303B4703
:108A0A0031205834352E323433373530205931320B
:108A1A00382E3332323931373B4731205834352EEC
:108A2A0032343337353020593132382E30353833F5
:108A3A0033333B4731205834352E353038333333CE
:108A4A0020593132372E3739333735303B473120C9
:108A5A005834352E35303833333320593132372EA6
:108A6A003532393136373B4731205834352E37378E
:108A7A003239313720593132372E3236343538339C
:108A8A003B4731205834352E373732393137205960
:108A9A003132372E3030303030303B473120583485
:108AAA00362E30333735303020593132362E37337F
:108ABA00353431373B4731205834362E3033373549
:108ACA00303020593132362E3437303833333B4741
:108ADA0031205834362E333032303833205931323F
:108AEA00362E3230363235303B4731205834362E26
:108AFA0033303230383320593132352E3637373029
:108B0A0038333B4731205834362E353636363637E9
:108B1A0020593132352E3431323530303B4731200D
:108B2A005834362E35363636363720593132352EC8
:108B3A003134373931373B4731205834362E3833C0
:108B4A003132353020593132342E383833333333D9
:108B5A003B4731205834362E38333132353020599C
:108B6A003132342E3631383735303B47312058349C
:108B7A00372E30393538333320593132342E3335A4
:108B8A00343136373B4731205834372E303935386F
:108B9A00333320593132342E3038393538333B4764
:108BAA0031205834372E3336303431372059313268
:108BBA00332E3832353030303B4731205834372E57
:108BCA0033363034313720593132332E353630345A
:108BDA0031373B4731205834372E36323530303032
:108BEA0020593132332E3239353833333B4731202D
:108BFA005834372E36323530303020593132332E10
:108C0A003033313235303B4731205834372E3838FB
:108C1A003935383320593132322E373636363637EF
:108C2A003B4731205834372E3838393538332059B4
:108C3A003132322E3530323038333B4731205834D6
:108C4A00382E31353431363720593132322E3233DB
:108C5A00373530303B4731205834382E31353431AE
:108C6A00363720593132312E3937323931373B478D
:108C7A0031205834382E3431383735302059313292
