:0400000090EF1BF072
:1037200000EEA5F0160EEE6AE806FDE1000EF86E5A
:103730000001DEEF1BF00CBEA8EF1BF00C5006E101
:103740000B04D8B0A6EF1BF0A8EF1BF0B6EF1BF0F0
:103750000BC00DF00CC00EF00D1E0E1E0D4A0E2AF1
:103760000DC00BF00EC00CF0BAEF1BF00BC00BF04D
:103770000CC00CF01200000E151A000E161A000EE6
:10378000171A800E181A11C001F012C002F013C0EF
:1037900003F014C004F015C005F016C006F017C001
:1037A00007F018C008F00FEC25F001C011F002C0BE
:1037B00012F003C013F004C014F01200000E946E57
:1037C000000E936E000E966E000E956E800E826E49
:1037D000000E846E020E816E000E836E9E0E00013E
:1037E000A46F6D0EA36FFF0EA325A36FFF0EA42180
:1037F000A46F890E5B6E610E5C6EA3C05DF0A4C009
:103800005EF0B9EC2AF094EC1DF005EF1CF000EF2F
:1038100000F0200E836E000E486E000E476E1FEF04
:103820001CF0500E8312A60EE82EFED700D0AF0E6D
:103830008316530EE82EFED700F0474A482A47C0A9
:103840000FF048C010F0000E10BEFF0E116E126E89
:10385000010E73EC1FF00FC01DF010C01EF011C060
:103860001FF012C020F043C021F044C022F045C038
:1038700023F046C024F06EEC1EF0D8A042EF1CF0FE
:1038800044EF1CF011EF1CF01200A00E836E000E2E
:10389000486E000E476E5BEF1CF0500E8312A60EB2
:1038A000E82EFED700D0AF0E8316530EE82EFED7BB
:1038B00000F0474A482A47C00FF048C010F0000EF9
:1038C00010BEFF0E116E126E010E73EC1FF00FC0D2
:1038D0001DF010C01EF011C01FF012C020F043C038
:1038E00021F044C022F045C023F046C024F06EEC25
:1038F0001EF0D8A07EEF1CF080EF1CF04DEF1CF006
:103900001200000E836E000E486E000E476E97EF99
:103910001CF0500E8312A60EE82EFED700D0AF0E7C
:103920008316530EE82EFED700F0474A482A47C0B8
:103930000FF048C010F0000E10BEFF0E116E126E98
:10394000010E73EC1FF00FC01DF010C01EF011C06F
:103950001FF012C020F043C021F044C022F045C047
:1039600023F046C024F06EEC1EF0D8A0BAEF1CF095
:10397000BCEF1CF089EF1CF01200800E836E000E6D
:10398000486E000E476ED3EF1CF0500E8312A60E49
:10399000E82EFED700D0AF0E8316530EE82EFED7CA
:1039A00000F0474A482A47C00FF048C010F0000E08
:1039B00010BEFF0E116E126E010E73EC1FF00FC0E1
:1039C0001DF010C01EF011C01FF012C020F043C047
:1039D00021F044C022F045C023F046C024F06EEC34
:1039E0001EF0D8A0F6EF1CF0F8EF1CF0C5EF1CF0AD
:1039F0001200000E056E000E046E640E0118021017
:103A0000D8A405EF1DF007EF1DF017EF1DF0818220
:103A1000D60E00D000D0E82EFCD700D08192190E2F
:103A2000036E050EE82EFED7032EFCD700F00A0E1B
:103A300001180210D8A41FEF1DF021EF1DF02EEF8A
:103A40001DF08182FA0EE82EFED78192190E036EC8
:103A5000FF0EE82EFED7032EFCD700F0044A052AFD
:103A600005BE3CEF1DF0055009E1190E045CD8A01D
:103A70003CEF1DF03EEF1DF0FDEF1CF01200000EBC
:103A80000114096E000E02140A6E800E03140B6EF0
:103A90007F0E04140C6E09500A100B100C10D8A4E1
:103AA00054EF1DF056EF1DF05EEF1DF0000E016E9D
:103AB000000E026E000E036E000E046E000E051462
:103AC000096E000E06140A6E800E07140B6E7F0E30
:103AD00008140C6E09500A100B100C10D8A473EFC8
:103AE0001DF075EF1DF07DEF1DF0000E056E000E50
:103AF000066E000E076E000E086E055001180FE1ED
:103B0000065002180CE10750031809E10850041888
:103B1000D8B48DEF1DF08FEF1DF092EF1DF0D8900F
:103B200093EF1DF0D8801200000E1D6E000E1E6E69
:103B3000000E1F6E000E206EB1C021F0B2C022F048
:103B4000B3C023F0B4C024F06EEC1EF0D8B0ABEFDD
:103B50001DF0ADEF1DF0C1EF1DF0B1C033F0B2C0EC
:103B600034F0B3C035F0B4C036F04DEC20F033C0C3
:103B700043F034C044F035C045F036C046F0BDECEB
:103B80001CF0000E1D6E000E1E6E000E1F6E000E4D
:103B9000206EB5C021F0B6C022F0B7C023F0B8C087
:103BA00024F06EEC1EF0D8B0D8EF1DF0DAEF1DF067
:103BB000EEEF1DF0B5C033F0B6C034F0B7C035F04D
:103BC000B8C036F04DEC20F033C043F034C044F0C0
:103BD00035C045F036C046F045EC1CF01200A5C0DB
:103BE0000BF0A6C00CF0A7C00DF0A8C00EF001C0ED
:103BF0000BF002C00CF003C00DF004C00EF00BC0BF
:103C000005F00CC006F00DC007F00EC008F0180E4D
:103C10000FEF1EF0D8900832073206320532E82E38
:103C20000AEF1EF00550096E0A6A09500A10D8A45E
:103C30001CEF1EF01EEF1EF03EEF1EF0D8900B346E
:103C4000056E0C34066E0D34076E0E34086E05508A
:103C5000061007100810D8A430EF1EF032EF1EF047
:103C600038EF1EF0000E026E020E016E6DEF1EF0B8
:103C7000000E026E030E016E6DEF1EF009280A1091
:103C8000D8A445EF1EF047EF1EF069EF1EF00BC001
:103C900005F00CC006F00DC007F00EC008F0090ECC
:103CA000D8900536063607360836E82E50EF1EF057
:103CB0000550061007100810D8B461EF1EF064EF2D
:103CC0001EF0010E65EF1EF0000E016E026A6DEF30
:103CD0001EF0000E026E040E016E1200000E1D1486
:103CE000256E000E1E14266E800E1F14276E7F0E8A
:103CF0002014286E2550261027102810D8A483EFF2
:103D00001EF085EF1EF08DEF1EF0000E1D6E000EF2
:103D10001E6E000E1F6E000E206E000E2114256E0A
:103D2000000E2214266E800E2314276E7F0E24149C
:103D3000286E2550261027102810D8A4A2EF1EF0B8
:103D4000A4EF1EF0ACEF1EF0000E216E000E226EEE
:103D5000000E236E000E246E20AEB1EF1EF0B3EF06
:103D60001EF0BCEF1EF01D6C1E1ED8B01E2A1F1EBA
:103D7000D8B01F2A800E205624AEC1EF1EF0C3EF2C
:103D80001EF0CCEF1EF0216C221ED8B0222A231E7A
:103D9000D8B0232A800E2456000E1D1A000E1E1ABB
:103DA000000E1F1A800E201A000E211A000E221A71
:103DB000000E231A800E241A21501D5C22501E581A
:103DC00023501F5824502058D8B0E9EF1EF0EBEFD5
:103DD0001EF0EEEF1EF0D890EFEF1EF0D88012002C
:103DE000033404340A6E0A50D8A4F9EF1EF0FBEF36
:103DF0001EF005EF1FF0000E016E000E026E000EA9
:103E0000036E000E046E72EF1FF001C005F002C0D9
:103E100006F003C007F004C008F0200E15EF1FF0F5
:103E2000D8900832073206320532E82E10EF1FF024
:103E30000550096E038EFF0E0116FF0E0216FF0ECF
:103E40000316000E0416960E0A5E0ABE2CEF1FF033
:103E50002AEF1FF042EF1FF00A50800A970FD8B0E8
:103E600034EF1FF036EF1FF038EF1FF0FBEF1EF0BE
:103E7000D89004320332023201320A3E38EF1FF08A
:103E80005AEF1FF01F0E0A6448EF1FF04AEF1FF0B1
:103E900052EF1FF0FBEF1EF0D890013602360336CA
:103EA00004360A060A50D8A458EF1FF05AEF1FF044
:103EB0004CEF1FF00950D8B460EF1FF062EF1FF015
:103EC0006AEF1FF0041E031E021E016C000E022288
:103ED0000322042201C001F002C002F003C003F07B
:103EE00004C004F01200176E1750D8B47AEF1FF018
:103EF0007CEF1FF09EEF1FF012BE83EF1FF081EFEB
:103F00001FF09EEF1FF00FC013F010C014F011C08F
:103F100015F012C016F0131E141E151E161E132ABD
:103F2000000E14221522162213C019F014C01AF024
:103F300015C01BF016C01CF0A6EF1FF00FC019F043
:103F400010C01AF011C01BF012C01CF00F5010105E
:103F500011101210D8A4AFEF1FF0B1EF1FF0BBEF9C
:103F60001FF0000E0F6E000E106E000E116E000E90
:103F7000126E4CEF20F0960E186EC5EF1FF0182A47
:103F8000D8901C321B321A321932000E1914136EDB
:103F9000000E1A14146E000E1B14156EFE0E1C1467
:103FA000166E1350141015101610D8A4DAEF1FF067
:103FB000DCEF1FF0BFEF1FF0EAEF1FF0182A010E31
:103FC0001926000E1A221B221C22D8901C321B32EA
:103FD0001A321932000E1914136E000E1A14146ED0
:103FE000000E1B14156EFF0E1C14166E13501410C9
:103FF00015101610D8A4FFEF1FF001EF20F0DEEF30
:104000001FF009EF20F01806D89019361A361B3623
:104010001C361BBE0EEF20F010EF20F018EF20F042
:10402000020E186016EF20F018EF20F003EF20F0DA
:1040300018B01DEF20F01FEF20F020EF20F01B9EA6
:10404000D890183218C013F0146A156A166A13C093
:1040500016F0156A146A136A1350191214501A12C2
:1040600015501B1216501C121750D8B43AEF20F0FE
:104070003CEF20F044EF20F012BE43EF20F041EF80
:1040800020F044EF20F01C8E19C00FF01AC010F081
:104090001BC011F01CC012F01200000E376E000E93
:1040A000386E000E396E000E3A6E000E3F6E000E36
:1040B000406E000E416E000E426E33C01AF034C0E6
:1040C0001BF035C01CF036C01DF00A0E1E6ED70E58
:1040D0001F6E230E206E3E0E216E2DEC21F01AC0B5
:1040E0003BF01BC03CF01CC03DF01DC03EF033C097
:1040F00001F034C002F035C003F036C004F0000E09
:10410000056E000E066EC80E076E420E086EFAECC3
:1041100022F037C001F038C002F039C003F03AC0D5
:1041200004F0F0EC1EF00F0E0116000E021601C096
:104130000FF002C010F0000E10BEFF0E116E126ED6
:10414000010E73EC1FF00FC03FF010C040F011C023
:1041500041F012C042F03FC01DF040C01EF041C00F
:104160001FF042C020F0000E216E000E226E000EE5
:10417000236E410E246E6EEC1EF0D8A0C2EF20F02C
:10418000C4EF20F0D8EF20F03BC001F03CC002F0BB
:104190003DC003F03EC004F0000E056E000E066E3A
:1041A000800E076E3F0E086E0FEC25F01CEF21F01D
:1041B0003FC01DF040C01EF041C01FF042C020F0C3
:1041C000000E216E000E226E000E236E410E246E34
:1041D0006EEC1EF0D8B0EFEF20F0F1EF20F01CEF06
:1041E00021F03FC001F040C002F041C003F042C0E6
:1041F00004F0000E056E000E066E000E076E000E37
:10420000086E3FEC1DF0D8B008EF21F00AEF21F066
:104210001CEF21F03BC001F03CC002F03DC003F0B8
:104220003EC004F0000E056E000E066E800E076E96
:10423000BF0E086E0FEC25F03BC037F03CC038F0E5
:104240003DC039F03EC03AF037C033F038C034F0EA
:1042500039C035F03AC036F012001D50800B2A6E7E
:104260001D501D24316E1CAE38EF21F03AEF21F0C5
:104270003BEF21F031803150D8B441EF21F043EFD2
:1042800021F058EF21F03128D8A449EF21F04BEF6D
:1042900021F053EF21F0000E1A6E000E1B6E000E7F
:1042A0001C6E000E1D6E1C8E000E1D6E60EF21F048
:1042B000000E1A6E000E1B6E000E1C6E000E1D6EA0
:1042C0002150800B2A1A21502124326E20AE6BEF30
:1042D00021F06DEF21F06EEF21F032803250D8B432
:1042E00074EF21F076EF21F08BEF21F03228D8A483
:1042F0007CEF21F07EEF21F086EF21F0000E1E6EA4
:10430000000E1F6E000E206E000E216E208E000E1D
:10431000216E93EF21F0000E1E6E000E1F6E000E38
:10432000206E000E216E1E501F1020102110D8A4E8
:104330009CEF21F09EEF21F0B6EF21F0000E1A6EF7
:10434000000E1B6E000E1C6E000E1D6E800E1C12E9
:104350007F0E1D122A501D121AC01AF01BC01BF02E
:104360001CC01CF01DC01DF0F9EF22F03150D8A484
:10437000BCEF21F0BEEF21F0C8EF21F0000E1A6E65
:10438000000E1B6E000E1C6E000E1D6EF9EF22F06B
:10439000325031C022F0236A225E000E235A7F0E73
:1043A00022242B6E000E23202C6E1AC026F01BC078
:1043B00027F01CC028F01DC029F0000E1A6E000E58
:1043C0001B6E000E1C6E000E1D6E000E2D6E000E7C
:1043D0002E6E000E2F6E000E306E000E326E29EF24
:1043E00022F03250D8B4F7EF21F0F9EF21F010EFBE
:1043F00022F0D8902636273628362936D8901A3615
:104400001B361C361D3630AE08EF22F00AEF22F0C4
:104410000BEF22F01A80D8902D362E362F363036FC
:104420001E50265C1F5027582050285821502958CC
:10443000D8A01DEF22F01FEF22F028EF22F0308CE1
:104440001E50265E1F50275A2050285A2150295AA4
:10445000322A190E32642FEF22F031EF22F0F1EF01
:1044600021F02650271028102910D8B43AEF22F056
:104470003CEF22F054EF22F02D8054EF22F0D89040
:104480001A361B361C361D3630AE49EF22F04BEF84
:1044900022F04CEF22F01A80D8902D362E362F368F
:1044A00030362B06D8A02C061CAE59EF22F05BEF5D
:1044B00022F03FEF22F0000E326E30AE62EF22F0BB
:1044C00064EF22F088EF22F0FF0E2D14226EFF0E13
:1044D0002E14236EFF0E2F14246E7F0E3014256EC3
:1044E0002250231024102510D8B479EF22F07BEF4E
:1044F00022F07FEF22F0010E326E88EF22F01AA038
:1045000084EF22F086EF22F088EF22F07BEF22F09A
:104510003250D8B48EEF22F090EF22F0B4EF22F0B8
:10452000010E1A26000E1B221C221D221DA09BEF2D
:1045300022F09DEF22F0B4EF22F01AC022F01BC04F
:1045400023F01CC024F01DC025F025342532243270
:104550002332223222C01AF023C01BF024C01CF0E8
:1045600025C01DF02B4A2C2A2CBEBFEF22F02C5068
:1045700008E12B28D8A0BFEF22F0C1EF22F0CCEF4A
:1045800022F0000E2C6E2B68000E1A6E000E1B6EB1
:10459000000E1C6E000E1D6E2CBED9EF22F02C50AA
:1045A00006E12B04D8B0D7EF22F0D9EF22F0E7EFE5
:1045B00022F0000E2C6E000E2B6E000E1A6E000EF6
:1045C0001B6E000E1C6E000E1D6E000E2A6E2BC0A0
:1045D00031F031A0EEEF22F0F0EF22F0F3EF22F015
:1045E0001C8EF4EF22F01C9ED89031301D6EAAEF85
:1045F00021F012000450800B0D6E04500424136E41
:1046000003AE05EF23F007EF23F008EF23F013804C
:104610001350D8B40EEF23F010EF23F023EF23F064
:104620001328D8A416EF23F018EF23F020EF23F07F
:10463000000E016E000E026E000E036E000E046E80
:10464000038E2BEF23F0000E016E000E026E000EA3
:10465000036E000E046E0850800B0D1A08500824DB
:10466000126E07AE36EF23F038EF23F039EF23F068
:1046700012801250D8B43FEF23F041EF23F054EFF3
:1046800023F01228D8A447EF23F049EF23F051EF8D
:1046900023F0000E056E000E066E000E076E000E73
:1046A000086E078E5CEF23F0000E056E000E066E9E
:1046B000000E076E000E086E1250D8B462EF23F0A1
:1046C00064EF23F06CEF23F01350D8A46AEF23F0CB
:1046D0006CEF23F076EF23F0000E016E000E026EF9
:1046E000000E036E000E046E0EEF25F0075001025F
:1046F000F3CF18F0F4CF19F018500E6E0F6A106A4D
:10470000116A1950146E156A166A176A0650020269
:10471000F3CF18F0F4CF19F018500E26000E0F2228
:104720001022112219501426000E152216221722CB
:1047300005500302F3CF18F0F4CF19F018500E26ED
:10474000000E0F221022112219501426000E1522DD
:104750001622172210C011F00FC010F00EC00FF07B
:104760000E6A05500202F3CF18F0F4CF19F018507A
:104770000E2619500F22000E1022000E1122065094
:104780000102F3CF18F0F4CF19F018500E2619508B
:104790000F22000E1022000E112210C011F00FC0C7
:1047A00010F00EC00FF00E6A05500102F3CF18F0A2
:1047B000F4CF19F018500E2619500F22000E1022B7
:1047C000000E112207500202F3CF18F0F4CF19F0B7
:1047D0001850142619501522000E1622000E17220A
:1047E00006500302F3CF18F0F4CF19F01850142636
:1047F00019501522000E1622000E17220750030230
:10480000F3CF18F0F4CF19F01850096E19500A6E52
:104810000B6A0C6A0BC00CF00AC00BF009C00AF05E
:10482000096A095014260A5015220B5016220C5002
:1048300017220EC009F00FC00AF010C00BF011C013
:104840000CF0190E29EF24F0D8900C320B320A32FA
:104850000932E82E24EF24F0095014260A501522BC
:104860000B5016220C50172210C011F00FC010F080
:104870000EC00FF00E6A125013C009F00A6A092622
:10488000000E0A22820E0924186EFF0E0A20196EED
:104890005FEF24F0D890143615361636173611AE61
:1048A00054EF24F056EF24F057EF24F01480D89002
:1048B0000E360F36103611361806D8A0190616AE69
:1048C00064EF24F066EF24F04AEF24F0000E126E3D
:1048D00011AE6DEF24F06FEF24F093EF24F0FF0E94
:1048E0000E14096EFF0E0F140A6EFF0E10140B6EDD
:1048F0007F0E11140C6E09500A100B100C10D8B456
:1049000084EF24F086EF24F08AEF24F0010E126E7B
:1049100093EF24F014A08FEF24F091EF24F093EFA5
:1049200024F086EF24F01250D8B499EF24F09BEFD6
:1049300024F0BFEF24F0010E1426000E15221622DB
:10494000172217A0A6EF24F0A8EF24F0BFEF24F061
:1049500014C009F015C00AF016C00BF017C00CF017
:104960000C340C320B320A32093209C014F00AC07E
:1049700015F00BC016F00CC017F0184A192A19BE12
:10498000CAEF24F0195008E11828D8A0CAEF24F083
:10499000CCEF24F0D6EF24F0000E146E000E156E4E
:1049A000800E166E7F0E176E04EF25F019BEE3EF32
:1049B00024F0195006E11804D8B0E1EF24F0E3EF39
:1049C00024F0EFEF24F0000E146E000E156E000EB2
:1049D000166E000E176E000E0D6E04EF25F018C057
:1049E00013F0FF0E1416FF0E15167F0E1616000E8E
:1049F000171613A0FEEF24F000EF25F001EF25F0CD
:104A0000168ED8901330176E0D50171214C001F087
:104A100015C002F016C003F017C004F012000450D5
:104A2000800B0D6E045004240F6E03AE1AEF25F0B8
:104A30001CEF25F01DEF25F00F800F50D8B423EFA9
:104A400025F025EF25F03AEF25F00F28D8A42BEF1D
:104A500025F02DEF25F035EF25F0000E016E000E4C
:104A6000026E000E036E000E046E038E000E046EC6
:104A700042EF25F0000E016E000E026E000E036E76
:104A8000000E046E0850800B0E6E0D500E18D8B438
:104A90004CEF25F04EEF25F04FEF25F00D8C085030
:104AA00008240E6E07AE57EF25F059EF25F05AEFA8
:104AB00025F00E800E50D8B460EF25F062EF25F09F
:104AC00077EF25F00E28D8A468EF25F06AEF25F0DF
:104AD00072EF25F0000E056E000E066E000E076EDA
:104AE000000E086E078E000E086E7FEF25F0000E98
:104AF000056E000E066E000E076E000E086E0F505B
:104B00000E5CD8B086EF25F088EF25F0AFEF25F0EA
:104B10000DAC8DEF25F08FEF25F091EF25F0800E95
:104B20000D1A0FC010F00EC00FF010C00EF001C033
:104B300010F005C001F010C005F002C010F006C072
:104B400002F010C006F003C010F007C003F010C060
:104B500007F004C010F008C004F010C008F0000E08
:104B6000106E0F500EC009F00A6A095E000E0A5A54
:104B70000ABEC4EF25F00A5009E11A0E095CD8A05C
:104B8000C4EF25F0C6EF25F0FDEF25F0015002102F
:104B900003100410D8A4CFEF25F0D2EF25F0010EBA
:104BA000D3EF25F0000E106E000E016E000E026EA7
:104BB000000E036E000E046E0EC00FF006EF26F01E
:104BC00010A0E5EF25F0E7EF25F0EDEF25F0D89008
:104BD00010300109106EEFEF25F0D890103201A0CF
:104BE000F4EF25F0F6EF25F0F7EF25F0108E043402
:104BF00004320332023201320F2A0E500F5CD8A069
:104C000004EF26F006EF26F0E0EF25F00DBC0BEFE9
:104C100026F00DEF26F04DEF26F00F50D8A413EF3D
:104C200026F015EF26F01FEF26F0000E016E000EA5
:104C3000026E000E036E000E046E6EEF27F005503C
:104C4000012606500222075003220850042204A025
:104C50002CEF26F02EEF26F0DAEF26F010A033EF3F
:104C600026F035EF26F03BEF26F0D8901030010902
:104C7000106E3DEF26F0D890103201A042EF26F0E2
:104C800044EF26F045EF26F0108E04340432033250
:104C9000023201320F2ADAEF26F00550015C06508D
:104CA0000258075003580450800A096E0850800AC1
:104CB0000958D8B05EEF26F060EF26F08BEF26F0B3
:104CC0000150055C096E025006580A6E03500758E1
:104CD0000B6E045008580C6EFF0E0924016EFF0E77
:104CE0000A20026EFF0E0B20036EFF0E0C20046ED6
:104CF000800E0D1A106C1050D8A481EF26F083EFAF
:104D000026F093EF26F0010E0126000E0222032268
:104D1000042293EF26F00550015E0650025A075018
:104D2000035A0850045A0150021003100410D8A46A
:104D30009CEF26F09EEF26F0D3EF26F01050D8A47B
:104D4000A4EF26F0A6EF26F0D3EF26F0000E016EBA
:104D5000000E026E000E036E000E046E6EEF27F062
:104D6000D890013602360336043610AEBAEF26F07C
:104D7000BCEF26F0BDEF26F0018010A0C2EF26F0B8
:104D8000C4EF26F0C8EF26F0D8801036CAEF26F020
:104D9000D89010360F50D8B4D0EF26F0D2EF26F0CE
:104DA000D3EF26F00F0603AED8EF26F0DAEF26F0A9
:104DB000B0EF26F0000E0E6E10AEE1EF26F0E3EF3E
:104DC00026F0FBEF26F010C009F07F0E0916D8B4CC
:104DD000ECEF26F0EEEF26F0F2EF26F0010E0E6E6D
:104DE000FBEF26F001A0F7EF26F0F9EF26F0FBEF3E
:104DF00026F0EEEF26F00E50D8B401EF27F003EFC7
:104E000027F02EEF27F0010E0126000E02220322CA
:104E1000042204A00EEF27F010EF27F02EEF27F06A
:104E200001C009F002C00AF003C00BF004C00CF08E
:104E30000C340C320B320A32093209C001F00AC0BC
:104E400002F00BC003F00CC004F00F28D8B42BEF15
:104E500027F02DEF27F02EEF27F00F2A0F28D8B4D8
:104E600034EF27F036EF27F03EEF27F00F50D8A4AD
:104E70003CEF27F03EEF27F050EF27F0000E016ED9
:104E8000000E026E000E036E000E046E0F50D8A4CA
:104E90004CEF27F04EEF27F050EF27F0000E0D6E8D
:104EA0000FA055EF27F057EF27F05AEF27F0038EAA
:104EB0005BEF27F0039ED8900F30046E0DAE63EFCA
:104EC00027F065EF27F066EF27F0048E01C001F0B0
:104ED00002C002F003C003F004C004F01200ADC031
:104EE00049F0AEC04AF0AFC04BF0B0C04CF033C098
:104EF00049F034C04AF035C04BF036C04CF0A9C080
:104F00004FF0AAC050F0ABC051F0ACC052F037C067
:104F10004FF038C050F039C051F03AC052F049C09B
:104F20003BF04AC03CF04BC03DF04CC03EF0180E88
:104F30009FEF27F0D8903E323D323C323B32E82E94
:104F40009AEF27F03B504D6E4E6A4FC03BF050C079
:104F50003CF051C03DF052C03EF0180EB5EF27F0C6
:104F6000D8903E323D323C323B32E82EB0EF27F053
:104F70003B50476E486A000E4914436E000E4A14B7
:104F8000446E000E4B14456E800E4C14466E49C0A4
:104F900057F04AC058F04BC059F04CC05AF0D89066
:104FA0004F343B6E50343C6E51343D6E52343E6E45
:104FB0003B503C103D103E10D8B4E1EF27F0E3EF3A
:104FC00027F0FFEF27F037C001F038C002F039C0FA
:104FD00003F03AC004F0EFEC1DF001500210D8B419
:104FE000F4EF27F0F6EF27F0FFEF27F04D284E10F3
:104FF000D8A4FDEF27F0FFEF27F03FEF28F037C0F0
:1050000005F038C006F039C007F03AC008F033C0E8
:1050100001F034C002F035C003F036C004F0FAEC01
:1050200022F001C01AF002C01BF003C01CF004C043
:105030001DF037C005F038C006F039C007F03AC09F
:1050400008F033C001F034C002F035C003F036C0C0
:1050500004F0FAEC22F001C01EF002C01FF003C001
:1050600020F004C021F02DEC21F01AC033F01BC059
:1050700034F01CC035F01DC036F0B8EF2AF0D890DF
:1050800057343B6E58343C6E59343D6E5A343E6E44
:10509000D8904F343F6E5034406E5134416E52348C
:1050A000426E3B503F5C3C5040583D5041583E5052
:1050B0004258D8A05EEF28F060EF28F0AAEF28F061
:1050C000D8904F343B6E50343C6E51343D6E523468
:1050D0003E6ED89057343F6E5834406E5934416E0E
:1050E0005A34426E3B503F180DE13C5040180AE1E3
:1050F0003D50411807E13E504218D8A482EF28F0F5
:1051000084EF28F0A0EF28F033C001F034C002F0A3
:1051100035C003F036C004F0000E056E000E066EBA
:10512000000E076E000E086EFAEC22F001C033F09C
:1051300002C034F003C035F004C036F0B8EF2AF0F6
:1051400033C033F034C034F035C035F036C036F0FB
:10515000B8EF2AF04D504E10D8A4B1EF28F0B3EFBD
:1051600028F004EF29F057C03BF058C03CF059C07C
:105170003DF05AC03EF0090ED8903B363C363D36E5
:105180003E36E82EBCEF28F03BC053F03CC054F054
:105190003DC055F03EC056F0D6EF28F04D06D8A0E1
:1051A0004E06D890533654365536563653C03BF0DB
:1051B00054C03CF055C03DF056C03EF0200EE6EF26
:1051C00028F0D8903E323D323C323B32E82EE1EFBF
:1051D00028F03B503C103D103E10D8B4F2EF28F0C0
:1051E000F4EF28F0CEEF28F04D5001083B6E3B283D
:1051F000FFEF28F0D8905736583659365A36E82EF1
:10520000FAEF28F00DEF29F0FF0E5716FF0E581693
:105210007F0E5916000E5A16598E47504810D8A4C2
:1052200014EF29F016EF29F067EF29F04FC03BF09B
:1052300050C03CF051C03DF052C03EF0090ED89035
:105240003B363C363D363E36E82E1FEF29F03BC05C
:1052500053F03CC054F03DC055F03EC056F039EF1D
:1052600029F04706D8A04806D8905336543655360C
:10527000563653C03BF054C03CF055C03DF056C0CC
:105280003EF0200E49EF29F0D8903E323D323C32BC
:105290003B32E82E44EF29F03B503C103D103E10CD
:1052A000D8B455EF29F057EF29F031EF29F04750E6
:1052B00001083B6E3B2862EF29F0D8904F365036FC
:1052C00051365236E82E5DEF29F0D3EF29F0FF0E6C
:1052D0004F16FF0E50167F0E5116000E5216518EAD
:1052E000D3EF29F04F50575C536E50505858546EBE
:1052F00051505958556E52505A58566E53C03BF043
:1053000054C03CF055C03DF056C03EF0200E8EEF2C
:1053100029F0D8903E323D323C323B32E82E89EFC4
:1053200029F03B503C103D103E10D8A49AEF29F0D4
:105330009CEF29F0CBEF29F0535054105510561024
:10534000D8A4A5EF29F0A7EF29F0C3EF29F033C0C7
:1053500001F034C002F035C003F036C004F0000E96
:10536000056E000E066E000E076E000E086EFAEC5B
:1053700022F001C033F002C034F003C035F004C0A5
:1053800036F0B8EF2AF053C057F054C058F055C06B
:1053900059F056C05AF0D8905736583659365A36C2
:1053A0004D06D8A04E064D50475C4850800A3B6ED3
:1053B0004E50800A3B58D8A0E0EF29F0E2EF29F0E8
:1053C00072EF29F04F50575C536E50505858546E3E
:1053D00051505958556E52505A58566E53C03BF062
:1053E00054C03CF055C03DF056C03EF0200EFEEFDC
:1053F00029F0D8903E323D323C323B32E82EF9EF74
:1054000029F03B503C103D103E10D8A40AEF2AF082
:105410000CEF2AF045EF2AF0535054105510561057
:10542000D8A415EF2AF017EF2AF033EF2AF033C093
:1054300001F034C002F035C003F036C004F0000EB5
:10544000056E000E066E000E076E000E086EFAEC7A
:1054500022F001C033F002C034F003C035F004C0C4
:1054600036F0B8EF2AF053C057F054C058F055C08A
:1054700059F056C05AF045EF2AF0D89057365836B2
:1054800059365A364D06D8A04E0657C03BF058C084
:105490003CF059C03DF05AC03EF0180E55EF2AF0CE
:1054A000D8903E323D323C323B32E82E50EF2AF06B
:1054B0003B503C103D103E10D8B461EF2AF063EF32
:1054C0002AF03DEF2AF04EBE6EEF2AF04E5008E172
:1054D0004D04D8A06EEF2AF070EF2AF091EF2AF079
:1054E000000E575E000E585A800E595A000E5A5A36
:1054F0004D503B6E4E503C6E3D6A3E6A170ED89042
:105500003B363C363D363E36E82E7FEF2AF03B50A8
:1055100057123C5058123D5059123E505A12A0EFAB
:105520002AF04D5001083B6E3B283C6E9DEF2AF05F
:10553000D8905A325932583257323C2E98EF2AF0CE
:1055400043505712445058124550591246505A125F
:1055500057C049F058C04AF059C04BF05AC04CF0FF
:1055600049C033F04AC034F04BC035F04CC036F07F
:105570001200000E0001816F000E826F000E836F1B
:10558000000E846F000E856F000E866F000E876F11
:10559000000E886F000E786F010E776F000E656F3A
:1055A000000E666F000E676F000E686F000E896F49
:1055B000000E8A6F000E8B6F000E8C6F000E916FC5
:1055C000000E926F000E936F000E946F000E956F99
:1055D000000E966F000E976F000E986F000E996F79
:1055E000000E9A6F000E9B6F000E9C6F000E9D6F59
:1055F000000E9E6F000E9F6F000EA06F000E7A6F60
:10560000000E796F000E7C6F000E7B6F000E7E6FB8
:10561000000E7D6F000E806F000E7F6F000E696FB1
:10562000000E6A6F000E6B6F000E6C6F6D696E6915
:10563000000EA26F000EA16FB6EF30F0A1515B24F7
:10564000606FA2515C20616F60C0F6FF61C0F7FF20
:105650000800F550580AD8A430EF2BF032EF2BF0A9
:1056600038EF2BF0000E7C6F010E7B6FB3EF30F044
:10567000A1515B24606FA2515C20616F60C0F6FF96
:1056800061C0F7FF0800F550590AD8A44AEF2BF083
:105690004CEF2BF052EF2BF0000E7E6F010E7D6F62
:1056A000B3EF30F0A1515B24606FA2515C20616FB9
:1056B00060C0F6FF61C0F7FF0800F5505A0AD8A491
:1056C00064EF2BF066EF2BF06CEF2BF0000E806F89
:1056D000010E7F6FB3EF30F0A1515B24606FA251D8
:1056E0005C20616F60C0F6FF61C0F7FF0800F550F5
:1056F000320AD8A47EEF2BF080EF2BF091EF2BF045
:105700007F518011D8B487EF2BF089EF2BF091EF08
:105710002BF0000E026E0A0E016EF9EC1CF0B3EFD6
:1057200030F0A1515B24606FA2515C20616F60C0BA
:10573000F6FF61C0F7FF0800F550330AD8A4A3EFC5
:105740002BF0A5EF2BF0B6EF2BF07F518011D8B4E2
:10575000ACEF2BF0AEEF2BF0B6EF2BF0000E026E9D
:10576000640E016EF9EC1CF0B3EF30F0A1515B2434
:10577000606FA2515C20616F60C0F6FF61C0F7FFEF
:105780000800F5502E0AD8A4C8EF2BF0CAEF2BF072
:10579000FDEF2BF0A1515B24606FA2515C20616F83
:1057A000FE0E6025626FFF0E6121636F62C0F6FF1F
:1057B00063C0F7FF0800F5505A0AD8A4E2EF2BF0B7
:1057C000E4EF2BF0F7EF2BF07F058011D8A4EBEF7F
:1057D0002BF0EDEF2BF0F7EF2BF0000E7A6F000EB1
:1057E000796F000E806F000E7F6FB3EF30F0000E08
:1057F0007A6F010E796FB3EF30F0A1515B24606FC7
:10580000A2515C20616F60C0F6FF61C0F7FF080025
:10581000F5503B0AD8B40FEF2CF011EF2CF025EF28
:105820002DF079517A11D8A418EF2CF01AEF2CF042
:1058300025EF2DF0A1515B24606FA2515C20616FB8
:1058400060C0F6FF61C0F7FF0800F550200AD8B429
:105850002CEF2CF02EEF2CF025EF2DF07B517C114E
:10586000D8B435EF2CF037EF2CF0A8EF2CF0A15185
:105870005B24606FA2515C20616F60C0F6FF61C065
:10588000F7FF0800F5CF62F0D00E6225636F646BFE
:10589000FF0E642363C00FF064C010F0116A126A37
:1058A000000E73EC1FF00FC081F010C082F011C029
:1058B00083F012C084F0000E1D6E000E1E6E000EEE
:1058C0001F6E000E206E91C021F092C022F093C096
:1058D00023F094C024F06EEC1EF0D8B072EF2CF0E0
:1058E00074EF2CF08EEF2CF091C001F092C002F01A
:1058F00093C003F094C004F0000E056E000E066E17
:10590000200E076E410E086EFAEC22F001C091F0F5
:1059100002C092F003C093F004C094F091C001F073
:1059200092C002F093C003F094C004F081C005F06F
:1059300082C006F083C007F084C008F00FEC25F0A9
:1059400001C091F002C092F003C093F004C094F043
:1059500000017D517E11D8B4B0EF2CF0B2EF2CF0E5
:10596000B3EF30F0A1515B24606FA2515C20616FF6
:1059700060C0F6FF61C0F7FF0800F5CF62F0D00EFF
:105980006225636F646BFF0E642363C00FF064C015
:1059900010F0116A126A000E73EC1FF00FC085F050
:1059A00010C086F011C087F012C088F0000E1D6E86
:1059B000000E1E6E000E1F6E000E206E95C021F0B0
:1059C00096C022F097C023F098C024F06EEC1EF031
:1059D000D8B0EDEF2CF0EFEF2CF009EF2DF095C0E3
:1059E00001F096C002F097C003F098C004F0000EDA
:1059F000056E000E066E200E076E410E086EFAEC64
:105A000022F001C095F002C096F003C097F004C0E8
:105A100098F095C001F096C002F097C003F098C0CE
:105A200004F085C005F086C006F087C007F088C086
:105A300008F00FEC25F001C095F002C096F003C00D
:105A400097F004C098F0B3EF30F0A1515B24606F81
:105A5000A2515C20616F60C0F6FF61C0F7FF0800D3
:105A6000F5503B0AD8B437EF2DF039EF2DF038EF71
:105A70002EF079057A11D8A440EF2DF042EF2DF0E9
:105A800038EF2EF0A1515B24606FA2515C20616F52
:105A900060C0F6FF61C0F7FF0800F550200AD8B4D7
:105AA00054EF2DF056EF2DF038EF2EF07B517C1196
:105AB000D8B45DEF2DF05FEF2DF0D4EF2DF0A151B4
:105AC0005B24606FA2515C20616F60C0F6FF61C013
:105AD000F7FF0800F5CF62F0D00E6225636F646BAC
:105AE000FF0E642363C00FF064C010F0116A126AE5
:105AF000000E73EC1FF00FC081F010C082F011C0D7
:105B000083F012C084F0000E0001706F000E6F6F02
:105B1000A7EF2DF081C01AF082C01BF083C01CF0EB
:105B200084C01DF0000E1E6E000E1F6E200E206E33
:105B3000410E216E2DEC21F01AC081F01BC082F0C5
:105B40001CC083F01DC084F000016F4B702B775197
:105B50006F5D7051800A606F7851800A6059D8A0DB
:105B6000B4EF2DF0B6EF2DF08AEF2DF0774B782BB8
:105B700091C001F092C002F093C003F094C004F011
:105B800081C005F082C006F083C007F084C008F031
:105B90000FEC25F001C091F002C092F003C093F029
:105BA00004C094F0B3EF30F07D517E11D8B4DBEF38
:105BB0002DF0DDEF2DF0B3EF30F0A1515B24606FDD
:105BC000A2515C20616F60C0F6FF61C0F7FF080062
:105BD000F5CF62F0D00E6225636F646BFF0E642315
:105BE00063C00FF064C010F0116A126A000E73EC0B
:105BF0001FF00FC085F010C086F011C087F012C0F2
:105C000088F0000E0001726F000E716F25EF2EF00C
:105C100085C01AF086C01BF087C01CF088C01DF03C
:105C2000000E1E6E000E1F6E200E206E410E216EA5
:105C30002DEC21F01AC085F01BC086F01CC087F047
:105C40001DC088F00001714B722B7751715D72514C
:105C5000800A606F7851800A6059D8A032EF2EF028
:105C600034EF2EF008EF2EF0774B782B09EF2DF064
:105C7000A1515B24606FA2515C20616F60C0F6FF90
:105C800061C0F7FF0800F5503B0AD8B44AEF2EF088
:105C90004CEF2EF060EF2EF0A1515B24606FA2510B
:105CA0005C20616F60C0F6FF61C0F7FF0800F5502F
:105CB000200AD8A45EEF2EF060EF2EF0B3EF30F0A4
:105CC000000E7A6F000E796F000E786F010E776FFD
:105CD00091C09DF092C09EF093C09FF094C0A0F040
:105CE00095C099F096C09AF097C09BF098C09CF030
:105CF000000E916F000E926F000E936F000E946F66
:105D0000000E956F000E966F000E976F000E986F45
:105D10009DC033F09EC034F09FC035F0A0C036F077
:105D2000000E376E000E386E800E396E3F0E3A6EE2
:105D30006FEC27F033C089F034C08AF035C08BF0A7
:105D400036C08CF09DC011F09EC012F09FC013F0C1
:105D5000A0C014F089C015F08AC016F08BC017F0EF
:105D60008CC018F0BBEC1BF011C09DF012C09EF06F
:105D700013C09FF014C0A0F089C01DF08AC01EF0AF
:105D80008BC01FF08CC020F0000E216E000E226E22
:105D9000000E236E3F0E246E6EEC1EF0D8A0D3EFE3
:105DA0002EF0D5EF2EF0EFEF2EF09DC001F09EC04B
:105DB00002F09FC003F0A0C004F0000E056E000EBC
:105DC000066E800E076E3F0E086E0FEC25F001C0C8
:105DD0009DF002C09EF003C09FF004C0A0F099C0E7
:105DE00033F09AC034F09BC035F09CC036F0000E02
:105DF000376E000E386E800E396E3F0E3A6E6FECC5
:105E000027F033C089F034C08AF035C08BF036C03B
:105E10008CF099C011F09AC012F09BC013F09CC096
:105E200014F089C015F08AC016F08BC017F08CC032
:105E300018F0BBEC1BF011C099F012C09AF013C01F
:105E40009BF014C09CF089C01DF08AC01EF08BC06E
:105E50001FF08CC020F0000E216E000E226E000E8E
:105E6000236E3F0E246E6EEC1EF0D8A03AEF2FF09A
:105E70003CEF2FF056EF2FF099C001F09AC002F0DE
:105E80009BC003F09CC004F0000E056E000E066E71
:105E9000800E076E3F0E086E0FEC25F001C099F0E2
:105EA00002C09AF003C09BF004C09CF0000E0001F9
:105EB0008D6F000E8E6F000E8F6F000E906F7B51F6
:105EC0007C11D8B466EF2FF068EF2FF003EF30F0BD
:105ED0009DC08DF09EC08EF09FC08FF0A0C090F04E
:105EE0009DC011F09EC012F09FC013F0A0C014F02E
:105EF000B5C015F0B6C016F0B7C017F0B8C018F0AE
:105F0000BBEC1BF011C09DF012C09EF013C09FF0BF
:105F100014C0A0F0000E1D6E000E1E6E000E1F6E4F
:105F2000000E206E9DC021F09EC022F09FC023F085
:105F3000A0C024F06EEC1EF0D8B0A1EF2FF0A3EFBC
:105F40002FF0C1EF2FF09DC033F09EC034F09FC002
:105F500035F0A0C036F04DEC20F033C043F034C033
:105F600044F035C045F036C046F081EC1CF08DC0E1
:105F7000B5F08EC0B6F08FC0B7F090C0B8F003EFA8
:105F800030F00001A0BFC9EF2FF0C7EF2FF003EFF3
:105F900030F09DC001F09EC002F09FC003F0A0C091
:105FA00004F0F0EC1EF001C00BF002C00CF09BEC12
:105FB0001BF00BC00FF00CC010F0000E10BEFF0E57
:105FC000116E126E010E73EC1FF00FC073F010C053
:105FD00074F011C075F012C076F073C033F074C065
:105FE00034F075C035F076C036F04DEC20F033C09B
:105FF00043F034C044F035C045F036C046F045ECBF
:106000001CF0B7EF2FF000017D517E11D8B40BEFDB
:1060100030F00DEF30F0A8EF30F099C08DF09AC05D
:106020008EF09BC08FF09CC090F099C011F09AC088
:1060300012F09BC013F09CC014F0B1C015F0B2C0B8
:1060400016F0B3C017F0B4C018F0BBEC1BF011C0D1
:1060500099F012C09AF013C09BF014C09CF0000E8F
:106060001D6E000E1E6E000E1F6E000E206E99C07B
:1060700021F09AC022F09BC023F09CC024F06EEC6B
:106080001EF0D8B046EF30F048EF30F066EF30F059
:1060900099C033F09AC034F09BC035F09CC036F004
:1060A0004DEC20F033C043F034C044F035C045F02F
:1060B00036C046F009EC1CF08DC0B1F08EC0B2F0D5
:1060C0008FC0B3F090C0B4F0A8EF30F000019CBFD7
:1060D0006EEF30F06CEF30F0A8EF30F099C001F0C7
:1060E0009AC002F09BC003F09CC004F0F0EC1EF0DC
:1060F00001C00BF002C00CF09BEC1BF00BC00FF0CA
:106100000CC010F0000E10BEFF0E116E126E010ECC
:1061100073EC1FF00FC073F010C074F011C075F075
:1061200012C076F073C033F074C034F075C035F02F
:1061300076C036F04DEC20F033C043F034C044F06C
:1061400035C045F036C046F0BDEC1CF05CEF30F0D9
:10615000000E00017C6F000E7B6F000E7E6F000E44
:106160007D6FB3EF30F00001A14BA22B5D50A15D1C
:106170005E50A259D8A0BFEF30F0C1EF30F01EEF53
:106180002BF01200006042A20D4739303B20473906
:10619000313B204731205A322E30303030303020E1
:1061A0004739303B20473120583132362E32303695
:1061B00032353020593136392E3036383735303B8C
:1061C000204739313B204731205A332E3030303090
:1061D0003030204739303B20473120583132362E7D
:1061E00037333534313720593136392E3036383758
:1061F00035303B204739313B204731205A322E3051
:106200003030303030204739303B20473120583152
:1062100030312E38363435383320593136392E3036
:1062200036383735303B204739313B204731205A0B
:10623000332E303030303030204739303B2047313A
:1062400020583130382E37343337353020593136F5
:10625000392E3036383735303B204739313B2047EF
:1062600031205A322E303030303030204739303BF8
:1062700020473120583130312E30373038333320F9
:10628000593136392E3036383735303B20473931A1
:106290003B204731205A332E3030303030302047C9
:1062A00039303B20473120583130312E33333534AB
:1062B000313720593136392E3036383735303B209A
:1062C0004739313B204731205A322E303030303080
:1062D00030204739303B204731205839382E393566
:1062E0003431363720593136392E3036383735305B
:1062F0003B204739313B204731205A332E30303054
:10630000303030204739303B204731205831303051
:106310002E32373730383320593136392E3036382F
:106320003735303B204739313B204731205A322E18
:10633000303030303030204739303B204731205822
:1063400038302E36393739313720593136392E30F9
:1063500036383735303B204739313B204731205ADA
:10636000332E303030303030204739303B20473109
:10637000205839382E3432353030302059313639C2
:106380002E3036383735303B204739313B204731C6
:10639000205A322E303030303030204739303B20D8
:1063A0004731205837382E38343538333320593177
:1063B00036392E3036383735303B204739313B209F
:1063C0004731205A332E303030303030204739308A
:1063D0003B204731205837392E3930343136372079
:1063E000593136392E3036383735303B2047393140
:1063F0003B204731205A322E303030303030204769
:1064000039303B204731205837362E39393337352C
:106410003020593136392E3036383735303B204729
:1064200039313B204731205A332E30303030303034
:10643000204739303B204731205837382E3331360A
:1064400036363720593136392E3036383735303BED
:10645000204739313B204731205A322E30303030FE
:106460003030204739303B204731205837362E34E2
:10647000363435383320593136392E3036383735C1
:10648000303B204739313B204731205A332E3030C2
:1064900030303030204739303B204739313B2047BE
:1064A00031205A322E303030303030204739303BB6
:1064B000204731205837342E383737303833205979
:1064C0003136392E3036383735303B204739313B7D
:1064D000204731205A332E30303030303020473989
:1064E000303B204731205837352E3933353431375A
:1064F00020593136392E3036383735303B20473940
:10650000313B204731205A322E303030303030206D
:106510004739303B204731205837332E3535343119
:10652000363720593136392E3036383735303B2022
:106530004739313B204731205A332E30303030300C
:1065400030204739303B204731205837342E3038FF
:106550003333333320593136392E303638373530EE
:106560003B204739313B204731205A322E303030E2
:10657000303030204739303B204731205837312EDA
:1065800031373239313720593136392E30363837B4
:1065900035303B204739313B204731205A332E30AC
:1065A0003030303030204739303B204731205837A9
:1065B000332E30323530303020593136392E3036A6
:1065C000383735303B204739313B204731205A326C
:1065D0002E303030303030204739303B20473120AA
:1065E0005837302E33373931363720593136392E36
:1065F0003036383735303B204739313B2047312062
:106600005A332E303030303030204739303B20473D
:1066100031205837302E3634333735302059313623
:10662000392E3036383735303B204739313B20471B
:1066300031205A322E303030303030204739303B24
:10664000204731205836392E3035363235302059F2
:106650003136392E3036383735303B204739313BEB
:10666000204731205A332E303030303030204739F7
:10667000303B204731205836392E383530303030D5
:1066800020593136392E3036383735303B204739AE
:10669000313B204731205A322E30303030303020DC
:1066A0004739303B204731205836382E3532373085
:1066B000383320593136392E3036383735303B2093
:1066C0004739313B204731205A332E30303030307B
:1066D00030204739303B204739313B204731205A61
:1066E000322E303030303030204739303B20473187
:1066F000205838302E31363837353020593136363B
:106700002E3638373530303B204739313B20473142
:10671000205A332E303030303030204739303B2053
:106720004731205838302E34333333333320593106
:1067300036362E3638373530303B204739313B201E
:106740004731205A322E3030303030302047393007
:106750003B204731205834332E33393136363720F9
:10676000593132312E3137393136373B20473931C3
:106770003B204731205A332E3030303030302047E4
:1067800039303B204739313B204731205A322E30B7
:106790003030303030204739303B204731205835B9
:1067A000372E39343337353020593131392E3036A0
:1067B000323530303B204739313B204731205A3386
:1067C0002E303030303030204739303B20473120B8
:1067D0005835372E39343337353020593131392E49
:1067E0003539313636373B204731205835372E364C
:1067F000373931363720593131392E38353632353F
:10680000303B204731205835372E39343337353037
:1068100020593131392E3539313636373B20473121
:10682000205835382E32303833333320593131390E
:106830002E3835363235303B204731205835372E0B
:1068400039343337353020593131392E35393136F5
:1068500036373B204739313B204731205A322E30E2
:106860003030303030204739303B204731205833EA
:10687000382E36323931363720593131392E3036CB
:10688000323530303B204739313B204731205A33B5
:106890002E303030303030204739303B20473120E7
:1068A0005833382E36323931363720593131392E76
:1068B0003332373038333B204731205833382E338A
:1068C000363435383320593131392E353931363671
:1068D000373B204731205833382E33363435383360
:1068E00020593132302E3931343538333B2047315D
:1068F000205833382E333634353833205931313936
:106900002E3539313636373B204731205833382E33
:1069100036323931363720593131392E333237302A
:1069200038333B204739313B204731205A322E3013
:106930003030303030204739303B20473120583517
:10694000392E35333132353020593131372E32310D
:10695000303431373B204739313B204731205A33DF
:106960002E303030303030204739303B2047312016
:106970005835392E37393538333320593131372EA0
:106980003437353030303B204731205835392E37B9
:10699000393538333320593131372E37333935389B
:1069A000333B204731205836302E333235303030AB
:1069B00020593131382E3236383735303B20473187
:1069C000205836302E33323530303020593131387E
:1069D0002E3533333333333B204731205836302E76
:1069E00035383935383320593131382E3739373940
:1069F00031373B204731205836302E35383935383D
:106A00003320593131392E3036323530303B204742
:106A100031205836302E383534313637205931311F
:106A2000392E3332373038333B2047312058363017
:106A30002E38353431363720593131392E3036320F
:106A40003530303B204731205836302E3332353008
:106A5000303020593131382E3533333333333B2006
:106A60004731205836302E333235303030205931CE
:106A700031382E3236383735303B204731205835C3
:106A8000392E37393538333320593131372E3733B2
:106A9000393538333B204731205835392E37393591
:106AA00038333320593131372E3437353030303B9D
:106AB000204739313B204731205A322E3030303098
:106AC0003030204739303B204731205834302E3485
:106AD000383132353020593131362E363831323571
:106AE000303B204739313B204731205A332E30305C
:106AF00030303030204739303B2047312058343057
:106B00002E37343538333320593131362E39343538
:106B10003833333B204731205834302E3734353822
:106B2000333320593131372E3231303431373B2035
:106B30004731205834312E303130343137205931FB
:106B400031372E3437353030303B20473120583400
:106B5000312E30313034313720593131372E3733FF
:106B6000393538333B204731205834312E383034D2
:106B700031363720593131382E3533333333333BC7
:106B8000204731205834312E3830343136372059AF
:106B90003131382E3739373931373B20473120589A
:106BA00034322E35393739313720593131392E3594
:106BB00039313636373B204731205834322E35397B
:106BC0003739313720593131392E38353632353071
:106BD0003B204731205834332E3132373038332080
:106BE000593132302E3338353431373B204731205C
:106BF0005834332E31323730383320593132302E39
:106C00003635303030303B204731205834332E3148
:106C1000323730383320593132302E333835343131
:106C2000373B204731205834322E38363235303019
:106C300020593132302E3132303833333B20473116
:106C4000205834322E3836323530302059313139EF
:106C50002E3835363235303B204731205834322EED
:106C600033333333333320593131392E33323730E4
:106C700038333B204731205834322E3333333333CB
:106C80003320593131392E3036323530303B2047C0
:106C900031205834312E32373530303020593131AF
:106CA000382E3030343136373B204731205834319C
:106CB0002E32373530303020593131372E37333995
:106CC0003538333B204731205834302E373435386F
:106CD000333320593131372E3231303431373B2084
:106CE0004731205834302E3734353833332059313A
:106CF00031362E3934353833333B204739313B2058
:106D00004731205A322E3030303030302047393041
:106D10003B204731205835382E3733373530302037
:106D2000593131352E3838373530303B20473931FD
:106D30003B204731205A332E30303030303020471E
:106D400039303B204731205835392E3030323038F9
:106D50003320593131362E3135323038333B2047EC
:106D600031205835392E30303230383320593131D6
:106D7000362E3431363636373B20473120583539B8
:106D80002E32363636363720593131362E363831B6
:106D90003235303B204731205835392E30303230B3
:106DA000383320593131362E3431363636373B20A0
:106DB0004731205835392E30303230383320593170
:106DC00031362E3135323038333B204739313B2094
:106DD0004731205A322E3030303030302047393071
:106DE0003B204731205835382E343732393137205F
:106DF000593131352E3335383333333B2047393130
:106E00003B204731205A332E30303030303020474D
:106E100039303B204739313B204731205A322E3020
:106E20003030303030204739303B20473120583522
:106E3000372E34313435383320593131352E30390D
:106E4000333735303B204739313B204731205A33E7
:106E50002E303030303030204739303B2047312021
:106E60005835372E34313435383320593131362EB8
:106E70003431363636373B204731205835372E36B9
:106E8000373931363720593131362E3638313235AF
:106E9000303B204731205835372E36373931363799
:106EA00020593131382E3533333333333B2047319A
:106EB000205835372E36373931363720593131366B
:106EC0002E3638313235303B204731205835372E79
:106ED00034313435383320593131362E3431363669
:106EE00036373B204731205835372E363739313643
:106EF0003720593131362E3135323038333B204747
:106F000031205835372E363739313637205931311F
:106F1000352E3632323931373B204731205835371C
:106F20002E34313435383320593131352E3335381C
:106F30003333333B204739313B204731205A322EFF
:106F4000303030303030204739303B204731205806
:106F500035362E30393136363720593131352E30ED
:106F600039333735303B204739313B204731205AC0
:106F7000332E303030303030204739303B204731ED
:106F8000205835352E3832373038332059313135A5
:106F90002E3335383333333B204731205835352EA7
:106FA00038323730383320593131352E3632323994
:106FB00031373B204731205835352E32393739317A
:106FC0003720593131362E3135323038333B204776
:106FD00031205835352E3239373931372059313152
:106FE000362E3431363636373B204731205835344B
:106FF0002E37363837353020593131362E39343541
:107000003833333B204731205835342E3736383724
:10701000353020593131372E3231303431373B2041
:107020004731205835342E323339353833205931F1
:1070300031372E3733393538333B204731205835F7
:10704000342E32333935383320593131382E3030FF
:10705000343136373B204731205835332E373130E5
:1070600034313720593131382E3533333333333BD4
:10707000204731205835332E3731303431372059BD
:107080003131382E3739373931373B2047312058A5
:1070900035332E34343538333320593131392E30AD
:1070A00036323530303B204731205835332E37319A
:1070B0003034313720593131392E30363235303095
:1070C0003B204731205835332E373130343137208B
:1070D000593131382E3533333333333B2047312068
:1070E0005835342E32333935383320593131382E32
:1070F0003030343136373B204731205835342E324A
:10710000333935383320593131372E373339353823
:10711000333B204731205835342E37363837353019
:1071200020593131372E3231303431373B2047311D
:10713000205835342E3736383735302059313136EE
:107140002E3934353833333B204731205835352EEE
:1071500032393739313720593131362E34313636DC
:1071600036373B204731205835352E3239373931C3
:107170003720593131362E3135323038333B2047C4
:1071800031205835352E38323730383320593131A7
:10719000352E3632323931373B204731205835359C
:1071A0002E38323730383320593131352E33353897
:1071B0003333333B204739313B204731205A322E7D
:1071C000303030303030204739303B204731205884
:1071D00035372E34313435383320593131332E356B
:1071E00030363235303B204739313B204731205A49
:1071F000332E303030303030204739303B2047316B
:10720000205835362E38383534313720593131341D
:107210002E3033353431373B204731205835362E28
:1072200036323038333320593131342E303335341F
:1072300031373B204731205835362E3632303833FF
:107240003320593131342E3330303030303B204709
:1072500031205835362E33353632353020593131DC
:10726000342E3536343538333B20473120583537C6
:107270002E31353030303020593131332E373730E0
:107280003833333B204731205835382E32303833AD
:10729000333320593131342E3832393136373B20AF
:1072A0004731205835372E36373931363720593166
:1072B00031342E3330303030303B20473120583598
:1072C000372E36373931363720593131342E303375
:1072D000353431373B204731205835372E3431345F
:1072E00035383320593131342E3033353431373B52
:1072F000204731205835372E313530303030205945
:107300003131332E3737303833333B204739313B37
:10731000204731205A322E3030303030302047393B
:10732000303B204731205831372E39393136363706
:1073300020593131322E3937373038333B204739F5
:10734000313B204731205A332E303030303030201E
:107350004739303B204731205831392E33313435CD
:10736000383320593131322E3937373038333B20DA
:107370004739313B204731205A322E3030303030BF
:1073800030204739303B204731205831392E3834AE
:107390003337353020593131322E373132353030B4
:1073A0003B204739313B204731205A332E30303093
:1073B000303030204739303B204731205832302E92
:1073C00036333735303020593131322E373132357E
:1073D00030303B204739313B204731205A322E3064
:1073E0003030303030204739303B20473120583260
:1073F000322E32323530303020593131322E313860
:10740000333333333B204739313B204731205A3324
:107410002E303030303030204739303B204731205B
:107420005832312E39363034313720593131322EFD
:107430003434373931373B204731205832312E31FF
:10744000363636363720593131322E3434373931E9
:10745000373B204731205832312E393630343137DE
:1074600020593131322E3434373931373B204731CE
:10747000205832322E3232353030302059313132CC
:107480002E3138333333333B204731205832322EBC
:1074900034383935383320593131322E313833339D
:1074A00033333B204739313B204731205A322E308D
:1074B0003030303030204739303B2047312058358C
:1074C000372E31353030303020593131312E39318D
:1074D000383735303B204739313B204731205A334C
:1074E0002E303030303030204739303B204731208B
:1074F0005835372E31353030303020593131322E39
:107500003138333333333B204731205835372E342D
:10751000313435383320593131322E343437393122
:10752000373B204731205835372E31353030303019
:1075300020593131322E3731323530303B2047310E
:10754000205835372E3431343538332059313132E3
:107550002E3937373038333B204731205835372ED6
:1075600031353030303020593131322E37313235EB
:1075700030303B204731205835372E3431343538C0
:107580003320593131322E3434373931373B2047AB
:1075900031205835372E31353030303020593131A7
:1075A000322E3138333333333B204739313B204798
:1075B00031205A322E303030303030204739303B95
:1075C000204731205832332E35343739313720595E
:1075D0003131312E3635343136373B204739313B66
:1075E000204731205A332E30303030303020473968
:1075F000303B204731205832332E32383333333347
:1076000020593131312E3931383735303B2047312F
:10761000205832332E30313837353020593131311E
:107620002E3931383735303B204731205832332E10
:1076300032383333333320593131312E3931383701
:1076400035303B204731205832332E3534373931ED
:107650003720593131312E3635343136373B2047DA
:1076600031205832332E38313235303020593131D3
:10767000312E3635343136373B204739313B2047C0
:1076800031205A322E303030303030204739303BC4
:10769000204731205833392E39353230383320598C
:1076A0003131312E3338393538333B204739313B8E
:1076B000204731205A332E30303030303020473997
:1076C000303B204731205833392E3638373530306B
:1076D00020593131312E3635343136373B20473160
:1076E000205833392E393532303833205931313141
:1076F0002E3931383735303B204731205833392E39
:1077000039353230383320593131332E3530363235
:1077100035303B204731205833392E363837353015
:107720003020593131332E3737303833333B20470F
:1077300031205833392E36383735303020593131F1
:10774000342E3330303030303B20473120583339FD
:107750002E39353230383320593131342E353634E4
:107760003538333B204731205833392E36383735BA
:10777000303020593131342E3832393136373B20D0
:107780004731205833392E3638373530302059318B
:1077900031352E3632323931373B2047312058339C
:1077A000382E33363435383320593131362E39348A
:1077B000353833333B204731205833382E31303081
:1077C00030303020593131362E3934353833333B6F
:1077D000204731205833372E303431363637205950
:1077E0003131382E3030343136373B204731205854
:1077F00033362E37373730383320593131382E3041
:1078000030343136373B204731205833352E34352C
:107810003431363720593131392E3332373038331D
:107820003B204731205833352E3138393538332015
:10783000593131392E3332373038333B20473120FC
:107840005833342E33393538333320593132302ED2
:107850003132303833333B204731205833342E31E6
:10786000333132353020593132302E3132303833E5
:10787000333B204731205833332E383636363637AF
:1078800020593132302E3338353431373B204731AF
:10789000205833332E36303230383320593132309D
:1078A0002E3132303833333B204731205833332E9A
:1078B00038363636363720593132302E3338353473
:1078C00031373B204731205833332E363032303871
:1078D0003320593132302E3635303030303B20476E
:1078E00031205833332E3836363636372059313238
:1078F000302E3635303030303B204731205833344D
:107900002E39323530303020593131392E35393138
:107910003636373B204731205833352E313839350C
:10792000383320593131392E3539313636373B200D
:107930004731205833352E393833333333205931DA
:1079400031382E3739373931373B204731205833DA
:10795000362E32343739313720593131382E3739D4
:10796000373931373B204731205833372E353730C0
:1079700038333320593131372E3437353030303BBE
:10798000204731205833372E38333534313720599A
:107990003131372E3437353030303B2047312058A5
:1079A00033382E36323931363720593131362E368A
:1079B00038313235303B204731205833382E383972
:1079C0003337353020593131362E36383132353073
:1079D0003B204731205833392E3432323931372069
:1079E000593131372E3231303431373B2047312055
:1079F0005833382E38393337353020593131372E16
:107A00003733393538333B204731205833392E311D
:107A1000353833333320593131382E303034313624
:107A2000373B204731205833382E383933373530FB
:107A300020593131382E3236383735303B204731F6
:107A4000205833382E3839333735302059313138D2
:107A50002E3533333333333B204731205833382EE0
:107A600038393337353020593131382E32363837BE
:107A700035303B204731205833392E3135383333B8
:107A80003320593131382E3030343136373B2047AE
:107A900031205833382E3839333735302059313189
:107AA000372E3733393538333B2047312058333977
:107AB0002E34323239313720593131372E3231308C
:107AC0003431373B204731205833392E3135383364
:107AD000333320593131362E3934353833333B2066
:107AE0004731205833392E3135383333332059312B
:107AF00031362E3431363636373B20473120583335
:107B0000392E36383735303020593131352E383826
:107B1000373530303B204731205833392E39353214
:107B200030383320593131352E3838373530303B05
:107B3000204731205834302E3231363636372059EE
:107B40003131362E3135323038333B2047312058F1
:107B500033392E36383735303020593131352E36DD
:107B600032323931373B204731205833392E3638BD
:107B70003735303020593131342E383239313637BB
:107B80003B204731205833392E39353230383320B5
:107B9000593131342E3536343538333B2047312096
:107BA0005833392E39353230383320593131342E6B
:107BB0003033353431373B204731205833392E3676
:107BC000383735303020593131332E37373038336C
:107BD000333B204731205833392E39353230383352
:107BE00020593131332E3530363235303B20473154
:107BF000205833392E39353230383320593131312C
:107C00002E3931383735303B204731205833392E23
:107C100036383735303020593131312E3635343120
:107C200036373B204739313B204731205A322E30FE
:107C30003030303030204739303B20473120583108
:107C4000352E33343538333320593131312E3132FA
:107C5000353030303B204739313B204731205A33D3
:107C60002E303030303030204739303B2047312003
:107C70005831352E33343538333320593131312EA4
:107C80003338393538333B204731205831352E3899
:107C9000373530303020593131312E3931383735A0
:107CA000303B204731205831352E38373530303091
:107CB00020593131322E3138333333333B20473181
:107CC000205831362E31333935383320593131325D
:107CD0002E3138333333333B204731205831362E61
:107CE00034303431363720593131322E343437394B
:107CF00031373B204731205831362E36363837352C
:107D00003020593131322E3434373931373B204726
:107D100031205831362E3933333333332059313112
:107D2000322E3731323530303B2047312058313711
:107D30002E34363235303020593131322E3731320F
:107D40003530303B204731205831362E39333333EC
:107D5000333320593131322E3731323530303B20F8
:107D60004731205831362E363638373530205931A4
:107D700031322E3434373931373B204731205831B6
:107D8000362E34303431363720593131322E3434B6
:107D9000373931373B204731205831352E33343590
:107DA00038333320593131312E3338393538333B7C
:107DB000204739313B204731205A322E3030303085
:107DC0003030204739303B204731205835322E3370
:107DD000383735303020593131302E333331323568
:107DE000303B204739313B204731205A332E303049
:107DF00030303030204739303B2047312058353241
:107E00002E31323239313720593131302E35393532
:107E10003833333B204731205835312E3036343516
:107E2000383320593131302E3539353833333B2012
:107E30004731205835302E383030303030205931ED
:107E400031302E3836303431373B204731205835E9
:107E5000302E35333534313720593131302E3539E4
:107E6000353833333B204731205835302E323730C8
:107E700038333320593131302E3836303431373BB6
:107E8000204731205834372E3632353030302059A3
:107E90003131302E3836303431373B20473120589D
:107EA00034372E33363034313720593131312E3199
:107EB00032353030303B204731205834372E30397E
:107EC0003538333320593131302E3836303431376C
:107ED0003B204731205834352E353038333333206A
:107EE000593131302E3836303431373B204731204C
:107EF0005834352E32343337353020593131312E24
:107F00003132353030303B204731205834342E3137
:107F1000383534313720593131312E313235303026
:107F2000303B204731205834332E39323038333308
:107F300020593131302E3836303431373B204731FB
:107F4000205834332E3132373038332059313130E4
:107F50002E3836303431373B204731205834322EDA
:107F600038363235303020593131312E31323530DA
:107F700030303B204731205834322E3539373931B3
:107F80003720593131302E3836303431373B2047A5
:107F900031205834302E373435383333205931318D
:107FA000302E3836303431373B204731205834308A
:107FB0002E34383132353020593131302E35393583
:107FC0003833333B204731205834302E3231363667
:107FD000363720593131302E3836303431373B2066
:107FE0004731205833392E39353230383320593122
:107FF00031302E3539353833333B20473120583333
:10800000392E31353833333320593131302E35392B
:10801000353833333B204731205833392E36383703
:1080200035303020593131302E3539353833333B06
:10803000204731205833392E3935323038332059E2
:108040003131302E3836303431373B2047312058EB
:1080500034302E32313636363720593131302E38E1
:1080600036303431373B204731205834302E3438C5
:108070003132353020593131302E353935383333BE
:108080003B204731205834302E37343538333320B5
:10809000593131302E3836303431373B204731209A
:1080A0005834322E35393739313720593131302E65
:1080B0003836303431373B204731205834322E386F
:1080C000363235303020593131312E313235303081
:1080D000303B204731205834332E36353632353058
:1080E00020593131312E3132353030303B2047315B
:1080F000205834332E39323038333320593131302F
:108100002E3836303431373B204731205834342E26
:1081100031383534313720593131312E3132353023
:1081200030303B204731205834352E323433373508
:108130003020593131312E3132353030303B20470B
:1081400031205834352E35303833333320593131DE
:10815000302E3836303431373B20473120583435D3
:108160002E37373239313720593131312E313235CE
:108170003030303B204731205834372E33363034BE
:10818000313720593131312E3132353030303B20CA
:108190004731205834372E3632353030302059317F
:1081A00031302E3836303431373B20473120583586
:1081B000302E32373038333320593131302E383683
:1081C000303431373B204731205835302E35333568
:1081D00034313720593131302E3539353833333B4E
:1081E000204731205835302E38303030303020594B
:1081F0003131302E3836303431373B20473120583A
:1082000035312E30363435383320593131302E3532
:1082100039353833333B204731205835322E31320F
:108220003239313720593131302E35393538333301
:108230003B204731205835322E3338373530302007
:10824000593131302E3333313235303B20473120F4
:108250005835322E36353230383320593131302EC0
:108260003539353833333B204731205835322E39B4
:10827000313636363720593131302E3539353833AD
:10828000333B204731205835332E313831323530A9
:1082900020593131302E3333313235303B204731A4
:1082A000205835342E323339353833205931313076
:1082B0002E3333313235303B204731205835332E81
:1082C00031383132353020593131302E333331327B
:1082D00035303B204731205835322E39313636364D
:1082E0003720593131302E3539353833333B20473B
:1082F00031205835322E363532303833205931312D
:10830000302E3333313235303B204739313B204733
:1083100031205A322E303030303030204739303B27
:10832000204731205833382E31303030303020590A
:108330003131302E3333313235303B204739313B08
:10834000204731205A332E303030303030204739FA
:10835000303B204731205833382E363239313637CA
:1083600020593131302E3333313235303B204739CB
:10837000313B204731205A322E30303030303020DF
:108380004739303B204731205831342E383136368A
:10839000363720593130392E3533373530303B20A0
:1083A0004739313B204731205A332E30303030307E
:1083B00030204739303B204731205831342E383176
:1083C0003636363720593131302E3036363636375C
:1083D0003B204731205831352E303831323530206E
:1083E000593131302E3333313235303B2047312053
:1083F0005831352E30383132353020593131302E28
:108400003539353833333B204731205831352E301C
:10841000383132353020593131302E333331323525
:10842000303B204731205831342E383136363637FC
:1084300020593131302E3036363636373B204739E9
:10844000313B204731205A322E303030303030200E
:108450004739303B204731205835382E32303833B9
:10846000333320593130392E3030383333333B20D9
:108470004739313B204731205A332E3030303030AD
:1084800030204739303B204731205835372E39349A
:108490003337353020593130392E32373239313790
:1084A0003B204731205835372E3637393136372083
:1084B000593130392E3237323931373B204731206C
:1084C0005835372E34313435383320593130392E40
:1084D0003533373530303B204731205835372E3152
:1084E000353030303020593130392E323732393151
:1084F000373B204731205835362E3632303833332B
:1085000020593130392E3830323038333B20473122
:10851000205835362E3039313636372059313039FA
:108520002E3830323038333B204731205835352E05
:1085300038323730383320593131302E30363636F4
:1085400036373B204731205835352E3536323530D9
:108550003020593130392E3830323038333B2047D3
:1085600031205835352E32393739313720593131AC
:10857000302E3036363636373B20473120583534AA
:108580002E37363837353020593131302E303636A7
:108590003636373B204731205835352E323937397A
:1085A000313720593131302E3036363636373B2090
:1085B0004731205835352E35363235303020593157
:1085C00030392E3830323038333B2047312058355F
:1085D000352E38323730383320593131302E30365D
:1085E000363636373B204731205835362E30393134
:1085F00036363720593130392E3830323038333B27
:10860000204731205835362E333536323530205913
:108610003130392E3830323038333B204731205812
:1086200035362E38383534313720593131302E3304
:1086300033313235303B204731205835362E3632F3
:108640003038333320593131302E353935383333E2
:108650003B204731205835362E38383534313720D5
:10866000593131302E3836303431373B20473120C4
:108670005835362E38383534313720593131312E8E
:108680003338393538333B204731205835362E388A
:10869000383534313720593131302E383630343195
:1086A000373B204731205835362E36323038333379
:1086B00020593131302E3539353833333B2047316D
:1086C000205835362E38383534313720593131304D
:1086D0002E3333313235303B204731205835362E5A
:1086E00036323038333320593131302E3036363649
:1086F00036373B204731205835362E363230383326
:108700003320593130392E3830323038333B20471E
:1087100031205835372E3135303030302059313016
:10872000392E3237323931373B20473120583537EF
:108730002E34313435383320593130392E353337F2
:108740003530303B204731205835372E36373931D8
:10875000363720593130392E3237323931373B20D4
:108760004731205835372E39343337353020593199
:1087700030392E3237323931373B204731205835A6
:10878000382E32303833333320593130392E3030AF
:10879000383333333B204731205835382E34373285
:1087A00039313720593130392E3030383333333B7B
:1087B000204739313B204731205A322E303030307B
:1087C0003030204739303B204731205834362E3363
:1087D000303230383320593130372E363835343155
:1087E000373B204739313B204731205A332E303038
:1087F00030303030204739303B2047312058343634
:108800002E35363636363720593130372E36383514
:108810003431373B204731205834362E383331320B
:10882000353020593130372E3935303030303B201B
:108830004731205834372E303935383333205931C9
:1088400030372E3638353431373B204731205834D5
:10885000372E33363034313720593130372E3935D1
:10886000303030303B204731205835302E303036D4
:1088700032353020593130372E3935303030303BB9
:10888000204731205835302E323730383333205995
:108890003130382E3231343538333B20473120588F
:1088A00035312E38353833333320593130382E3284
:1088B00031343538333B204731205835322E313270
:1088C0003239313720593130372E39353030303068
:1088D0003B204731205835342E353034313637205F
:1088E000593130372E3935303030303B2047312048
:1088F0005835342E37363837353020593130372E09
:108900003638353431373B204731205835352E3015
:10891000333333333320593130372E39353030301B
:10892000303B204731205835352E323937393137F1
:1089300020593130372E3638353431373B204731E6
:10894000205835362E3039313636372059313037C8
:108950002E3638353431373B204731205835352EC7
:1089600032393739313720593130372E36383534AE
:1089700031373B204731205835352E3033333333B0
:108980003320593130372E3935303030303B2047A5
:1089900031205835342E373638373530205931307C
:1089A000372E3638353431373B204731205835346F
:1089B0002E35303431363720593130372E39353075
:1089C0003030303B204731205835322E3132323969
:1089D000313720593130372E3935303030303B2067
:1089E0004731205835312E3835383333332059311B
:1089F00030382E3231343538333B2047312058352A
:108A0000312E35393337353020593130372E39351D
:108A1000303030303B204731205835302E3533351B
:108A200034313720593130372E3935303030303B02
:108A3000204731205835302E3237303833332059E3
:108A40003130382E3231343538333B2047312058DD
:108A500035302E30303632353020593130372E39DE
:108A600035303030303B204731205834372E3336C4
:108A70003034313720593130372E393530303030BD
:108A80003B204731205834372E30393538333320A6
:108A9000593130372E3638353431373B2047312085
:108AA0005834362E38333132353020593130372E64
:108AB0003935303030303B204731205834362E3570
:108AC000363636363720593130372E363835343150
:108AD000373B204739313B204731205A322E303046
:108AE00030303030204739303B2047312058333246
:108AF0002E30313435383320593130342E37373534
:108B00003030303B204739313B204731205A332E1B
:108B1000303030303030204739303B20473120581A
:108B200033322E30313435383320593130352E3010
:108B300033393538333B204731205833322E3237E2
:108B40003931363720593130352E333034313637DC
:108B50003B204731205832392E38393739313720C8
:108B6000593130372E3638353431373B20473120B4
:108B70005832392E36333333333320593130372E90
:108B80003638353431373B204731205832382E358E
:108B9000373530303020593130382E37343337358F
:108BA000303B204731205832382E33313034313782
:108BB00020593130382E3734333735303B20473168
:108BC000205832372E353136363637205931303944
:108BD0002E3533373530303B204731205832372E51
:108BE00032353230383320593130392E353337353C
:108BF00030303B204731205832362E37323239312F
:108C00003720593131302E3036363636373B204713
:108C100031205832362E3435383333332059313100
:108C2000302E3036363636373B20473120583235F5
:108C30002E39323931363720593131302E353935E8
:108C40003833333B204731205832352E36363435D1
:108C5000383320593131302E3539353833333B20D4
:108C60004731205832352E313335343137205931A0
:108C700031312E3132353030303B204731205832BF
:108C8000342E38373038333320593131312E3132A8
:108C9000353030303B204731205832342E36303694
:108CA00032353020593131312E3338393538333B74
:108CB000204731205832342E33343136363720595C
:108CC0003131312E3338393538333B204731205854
:108CD00032342E36303632353020593131312E3360
:108CE00038393538333B204731205832342E383725
:108CF0003038333320593131312E31323530303044
:108D00003B204731205832352E313335343137202E
:108D1000593131312E3132353030303B204731201E
:108D20005832352E34303030303020593131302EF9
:108D30003836303431373B204731205832352E36E3
:108D4000363435383320593131302E3836303431DD
:108D5000373B204731205832362E313933373530C2
:108D600020593131302E3333313235303B204731C9
:108D7000205832362E3435383333332059313130A0
:108D80002E3333313235303B204731205832362EA6
:108D900039383735303020593130392E383032308B
:108DA00038333B204731205832372E323532303875
:108DB0003320593130392E3830323038333B204768
:108DC00031205832382E3034353833332059313051
:108DD000392E3030383333333B2047312058323846
:108DE0002E33313034313720593130392E3030384C
:108DF0003333333B204731205832392E3130343130
:108E0000363720593130382E3231343538333B2023
:108E10004731205832392E333638373530205931E2
:108E200030382E3231343538333B204731205833F7
:108E3000302E39353632353020593130362E3632F3
:108E4000373038333B204731205833312E323230DF
:108E500038333320593130362E3632373038333BC1
:108E6000204731205833322E3031343538332059B1
:108E70003130352E3833333333333B2047312058AC
:108E800033322E32373931363720593130352E389A
:108E900033333333333B204731205833322E35348C
:108EA0003337353020593130362E30393739313774
:108EB0003B204731205833322E353433373530207C
:108EC000593130362E3336323530303B2047312061
:108ED0005833322E38303833333320593130362E30
:108EE0003632373038333B204731205833322E3832
:108EF000303833333320593130362E383931363625
:108F0000373B204731205833342E3133313235301E
:108F100020593130382E3231343538333B20473107
:108F2000205833342E3339353833332059313038E3
:108F30002E3231343538333B204731205833342EEC
:108F400039323530303020593130382E37343337DC
:108F500035303B204731205833352E3138393538BC
:108F60003320593130382E3734333735303B2047B2
:108F700031205833352E373138373530205931309C
:108F8000392E3237323931373B204731205833358B
:108F90002E39383333333320593130392E3237328A
:108FA0003931373B204731205833362E3234373968
:108FB000313720593130392E3533373530303B2079
:108FC0004731205833362E35313235303020593143
:108FD00030392E3533373530303B20473120583348
:108FE000362E37373730383320593130392E383034
:108FF000323038333B204731205833372E3034312C
:1090000036363720593130392E3830323038333B0C
:10901000204731205833372E3330363235302059FF
:109020003131302E3036363636373B2047312058F6
:1090300033372E35373038333320593131302E30F5
:1090400036363636373B204731205833372E3330CB
:109050003632353020593131302E303636363637CB
:109060003B204731205833372E30343136363720C5
:10907000593130392E3830323038333B20473120A7
:109080005833362E37373730383320593130392E70
:109090003830323038333B204731205833362E3584
:1090A000313235303020593130392E353337353083
:1090B000303B204731205833362E32343739313760
:1090C00020593130392E3533373530303B20473158
:1090D000205833352E393833333333205931303932
:1090E0002E3237323931373B204731205833352E35
:1090F00037313837353020593130392E323732391F
:1091000031373B204731205833352E313839353807
:109110003320593130382E3734333735303B204700
:1091200031205833342E39323530303020593130F7
:10913000382E3734333735303B20473120583333DE
:109140002E38363636363720593130372E363835C8
:109150003431373B204731205833332E36303230CC
:10916000383320593130372E3638353431373B20BB
:109170004731205833322E38303833333320593189
:1091800030362E3839313636373B20473120583388
:10919000322E38303833333320593130362E363290
:1091A000373038333B204731205833322E35343373
:1091B00037353020593130362E3336323530303B6A
:1091C000204731205833322E35343337353020594B
:1091D0003130362E3039373931373B20473120583E
:1091E00033322E32373931363720593130352E3837
:1091F00033333333333B204731205833322E323729
