:04000000CAEF6AF0E9
:10D59400E40EF66ED90EF76E000EF86E02EE00F091
:10D5A40010EEE6F00900F5CFEEFFE550E150FAE1A8
:10D5B40000EEA1F0140EEE6AE806FDE1000126EF8C
:10D5C4006BF00CBEF0EF6AF00C5006E10B04D8B01F
:10D5D400EEEF6AF0F0EF6AF0FEEF6AF00BC00DF0C8
:10D5E4000CC00EF00D1E0E1E0D4A0E2A0DC00BF0BF
:10D5F4000EC00CF002EF6BF00BC00BF00CC00CF083
:10D604001200000E151A000E161A000E171A800EBC
:10D61400181A11C001F012C002F013C003F014C0B4
:10D6240004F015C005F016C006F017C007F018C0C6
:10D6340008F085EC74F001C011F002C012F003C0D0
:10D6440013F004C014F01200000E946E000E936EDA
:10D65400000E966E000E956E000E826E000E846EA5
:10D66400020E816E000E836E22EE00F011EE00F0C9
:10D67400E50EDECFE6FFE806FCE2E60ED95EE15EEB
:10D68400000E0101E76FE60EE66FFF0EE625E66F7A
:10D69400FF0EE721E76F000E5B6E010E5C6EE6C1C4
:10D6A4005DF0E7C15EF02FEC7AF057EF6BF000EF1E
:10D6B40000F0200E836E000E496E000E486E74EF6B
:10D6C4006BF0500E8312030E476E980EE82EFED7B1
:10D6D400472EFCD7AF0E8316C80E00D0E82EFDD718
:10D6E400484A492A48C00FF049C010F0000E10BE45
:10D6F400FF0E116E126E010EE9EC6EF00FC01DF0FC
:10D7040010C01EF011C01FF012C020F043C021F061
:10D7140044C022F045C023F046C024F0E4EC6DF090
:10D72400D8A097EF6BF099EF6BF063EF6BF01200FA
:10D73400A00E836E000E496E000E486EB3EF6BF0C0
:10D74400500E8312030E476E980EE82EFED7472E16
:10D75400FCD7AF0E8316C80E00D0E82EFDD7484A7A
:10D76400492A48C00FF049C010F0000E10BEFF0E49
:10D77400116E126E010EE9EC6EF00FC01DF010C0B8
:10D784001EF011C01FF012C020F043C021F044C0AD
:10D7940022F045C023F046C024F0E4EC6DF0D8A09C
:10D7A400D6EF6BF0D8EF6BF0A2EF6BF01200000E27
:10D7B400836E000E496E000E486EF2EF6BF0500E51
:10D7C4008312030E476E980EE82EFED7472EFCD721
:10D7D400AF0E8316C80E00D0E82EFDD7484A492A5A
:10D7E40048C00FF049C010F0000E10BEFF0E116EBD
:10D7F400126E010EE9EC6EF00FC01DF010C01EF0A9
:10D8040011C01FF012C020F043C021F044C022F028
:10D8140045C023F046C024F0E4EC6DF0D8A015EF29
:10D824006CF017EF6CF0E1EF6BF01200800E836E7A
:10D83400000E496E000E486E31EF6CF0500E8312EC
:10D84400030E476E980EE82EFED7472EFCD7AF0E78
:10D854008316C80E00D0E82EFDD7484A492A48C08E
:10D864000FF049C010F0000E10BEFF0E116E126EC4
:10D87400010EE9EC6EF00FC01DF010C01EF011C0D7
:10D884001FF012C020F043C021F044C022F045C074
:10D8940023F046C024F0E4EC6DF0D8A054EF6CF013
:10D8A40056EF6CF020EF6CF01200000E056E000EC7
:10D8B400046E640E01180210D8A463EF6CF065EFD7
:10D8C4006CF075EF6CF08182D60E00D000D0E82E9B
:10D8D400FCD700D08192190E036E050EE82EFED7F8
:10D8E400032EFCD700F00A0E01180210D8A47DEF15
:10D8F4006CF07FEF6CF08CEF6CF08182FA0EE82E06
:10D90400FED78192190E036EFF0EE82EFED7032E6A
:10D91400FCD700F0044A052A05BE9AEF6CF00550C6
:10D9240009E1190E045CD8A09AEF6CF09CEF6CF03E
:10D934005BEF6CF01200000E0114096E000E02146D
:10D944000A6E800E03140B6E7F0E04140C6E0950C5
:10D954000A100B100C10D8A4B2EF6CF0B4EF6CF0FA
:10D96400BCEF6CF0000E016E000E026E000E036E32
:10D97400000E046E000E0514096E000E06140A6EE5
:10D98400800E07140B6E7F0E08140C6E09500A10DB
:10D994000B100C10D8A4D1EF6CF0D3EF6CF0DBEFCC
:10D9A4006CF0000E056E000E066E000E076E000E83
:10D9B400086E055001180FE1065002180CE10750DB
:10D9C400031809E108500418D8B4EBEF6CF0EDEF3C
:10D9D4006CF0F0EF6CF0D890F1EF6CF0D88012009E
:10D9E4004739303B204731205831362E31333935D1
:10D9F4003833205934362E3833313235303B2047D2
:10DA040039313B204731205A332E303030303030DA
:10DA1400204739303B204731205831352E383735AF
:10DA2400303030205934372E3039353833333B20B9
:10DA34004731205831362E31333935383320593473
:10DA4400362E3833313235303B2047312058373881
:10DA54002E383435383333205934362E3833313276
:10DA640035303B204731205837392E31313034316D
:10DA740037205934372E3039353833333B2047314A
:10DA8400205837382E383435383333205934362E2D
:10DA94003833313235303B204739313B2047312050
:10DAA4005A322E303030303030204739303B204726
:10DAB40039313B204731205A322E3030303030302B
:10DAC400204739303B00A1C00BF0A2C00CF0A3C02A
:10DAD4000DF0A4C00EF001C00BF002C00CF003C0A6
:10DAE4000DF004C00EF00BC005F00CC006F00DC024
:10DAF40007F00EC008F0180E85EF6DF0D8900832CC
:10DB0400073206320532E82E80EF6DF00550096EBB
:10DB14000A6A09500A10D8A492EF6DF094EF6DF0E0
:10DB2400B4EF6DF0D8900B34056E0C34066E0D34E2
:10DB3400076E0E34086E0550061007100810D8A49E
:10DB4400A6EF6DF0A8EF6DF0AEEF6DF0000E026E73
:10DB5400020E016EE3EF6DF0000E026E030E016E15
:10DB6400E3EF6DF009280A10D8A4BBEF6DF0BDEF08
:10DB74006DF0DFEF6DF00BC005F00CC006F00DC0CA
:10DB840007F00EC008F0090ED890053606360736A1
:10DB94000836E82EC6EF6DF0055006100710081081
:10DBA400D8B4D7EF6DF0DAEF6DF0010EDBEF6DF066
:10DBB400000E016E026AE3EF6DF0000E026E040EB9
:10DBC400016E1200000E1D14256E000E1E14266E2A
:10DBD400800E1F14276E7F0E2014286E25502610E9
:10DBE40027102810D8A4F9EF6DF0FBEF6DF003EFC8
:10DBF4006EF0000E1D6E000E1E6E000E1F6E000EE7
:10DC0400206E000E2114256E000E2214266E800E46
:10DC14002314276E7F0E2414286E255026102710F7
:10DC24002810D8A418EF6EF01AEF6EF022EF6EF001
:10DC3400000E216E000E226E000E236E000E246E66
:10DC440020AE27EF6EF029EF6EF032EF6EF01D6C10
:10DC54001E1ED8B01E2A1F1ED8B01F2A800E2056A2
:10DC640024AE37EF6EF039EF6EF042EF6EF0216CB8
:10DC7400221ED8B0222A231ED8B0232A800E24566E
:10DC8400000E1D1A000E1E1A000E1F1A800E201AF6
:10DC9400000E211A000E221A000E231A800E241AD6
:10DCA40021501D5C22501E5823501F5824502058C8
:10DCB400D8B05FEF6EF061EF6EF064EF6EF0D89065
:10DCC40065EF6EF0D8801200033404340A6E0A50F3
:10DCD400D8A46FEF6EF071EF6EF07BEF6EF0000E74
:10DCE400016E000E026E000E036E000E046EE8EF6D
:10DCF4006EF001C005F002C006F003C007F004C0D6
:10DD040008F0200E8BEF6EF0D890083207320632FE
:10DD14000532E82E86EF6EF00550096E038EFF0E75
:10DD24000116FF0E0216FF0E0316000E0416960EC1
:10DD34000A5E0ABEA2EF6EF0A0EF6EF0B8EF6EF0CE
:10DD44000A50800A970FD8B0AAEF6EF0ACEF6EF0CD
:10DD5400AEEF6EF071EF6EF0D890043203320232FF
:10DD640001320A3EAEEF6EF0D0EF6EF01F0E0A6481
:10DD7400BEEF6EF0C0EF6EF0C8EF6EF071EF6EF0B4
:10DD8400D89001360236033604360A060A50D8A45F
:10DD9400CEEF6EF0D0EF6EF0C2EF6EF00950D8B453
:10DDA400D6EF6EF0D8EF6EF0E0EF6EF0041E031EB7
:10DDB400021E016C000E02220322042201C001F0A3
:10DDC40002C002F003C003F004C004F01200176E96
:10DDD4001750D8B4F0EF6EF0F2EF6EF014EF6FF06E
:10DDE40012BEF9EF6EF0F7EF6EF014EF6FF00FC0A4
:10DDF40013F010C014F011C015F012C016F0131E69
:10DE0400141E151E161E132A000E14221522162285
:10DE140013C019F014C01AF015C01BF016C01CF082
:10DE24001CEF6FF00FC019F010C01AF011C01BF0F6
:10DE340012C01CF00F50101011101210D8A425EFAE
:10DE44006FF027EF6FF031EF6FF0000E0F6E000EE2
:10DE5400106E000E116E000E126EC2EF6FF0960E71
:10DE6400186E3BEF6FF0182AD8901C321B321A320E
:10DE74001932000E1914136E000E1A14146E000ECB
:10DE84001B14156EFE0E1C14166E13501410151070
:10DE94001610D8A450EF6FF052EF6FF035EF6FF01B
:10DEA40060EF6FF0182A010E1926000E1A221B22A9
:10DEB4001C22D8901C321B321A321932000E19144B
:10DEC400136E000E1A14146E000E1B14156EFF0E42
:10DED4001C14166E1350141015101610D8A475EFD8
:10DEE4006FF077EF6FF054EF6FF07FEF6FF018067D
:10DEF400D89019361A361B361C361BBE84EF6FF0C9
:10DF040086EF6FF08EEF6FF0020E18608CEF6FF0FB
:10DF14008EEF6FF079EF6FF018B093EF6FF095EF2D
:10DF24006FF096EF6FF01B9ED890183218C013F064
:10DF3400146A156A166A13C016F0156A146A136A0D
:10DF44001350191214501A1215501B1216501C1289
:10DF54001750D8B4B0EF6FF0B2EF6FF0BAEF6FF0C4
:10DF640012BEB9EF6FF0B7EF6FF0BAEF6FF01C8E1F
:10DF740019C00FF01AC010F01BC011F01CC012F031
:10DF84001200000E376E000E386E000E396E000E51
:10DF94003A6E000E3F6E000E406E000E416E000E93
:10DFA400426E33C01AF034C01BF035C01CF036C0CA
:10DFB4001DF00A0E1E6ED70E1F6E230E206E3E0E2F
:10DFC400216EA3EC70F01AC03BF01BC03CF01CC0E7
:10DFD4003DF01DC03EF033C001F034C002F035C046
:10DFE40003F036C004F0000E056E000E066EC80E77
:10DFF400076E420E086E70EC72F037C001F038C044
:10E0040002F039C003F03AC004F066EC6EF00F0E73
:10E014000116000E021601C00FF002C010F0000E2F
:10E0240010BEFF0E116E126E010EE9EC6EF00FC001
:10E034003FF010C040F011C041F012C042F03FC0A8
:10E044001DF040C01EF041C01FF042C020F0000E81
:10E05400216E000E226E000E236E410E246EE4EC3F
:10E064006DF0D8A038EF70F03AEF70F04EEF70F02A
:10E074003BC001F03CC002F03DC003F03EC004F0E0
:10E08400000E056E000E066E800E076E3F0E086EC3
:10E0940085EC74F092EF70F03FC01DF040C01EF0AC
:10E0A40041C01FF042C020F0000E216E000E226E0F
:10E0B400000E236E410E246EE4EC6DF0D8B065EFD3
:10E0C40070F067EF70F092EF70F03FC001F040C065
:10E0D40002F041C003F042C004F0000E056E000ED1
:10E0E400066E000E076E000E086E9DEC6CF0D8B044
:10E0F4007EEF70F080EF70F092EF70F03BC001F0B3
:10E104003CC002F03DC003F03EC004F0000E056EBA
:10E11400000E066E800E076EBF0E086E85EC74F05E
:10E124003BC037F03CC038F03DC039F03EC03AF057
:10E1340037C033F038C034F039C035F03AC036F067
:10E1440012001D50800B2A6E1D501D24316E1CAE12
:10E15400AEEF70F0B0EF70F0B1EF70F0318031508D
:10E16400D8B4B7EF70F0B9EF70F0CEEF70F031289B
:10E17400D8A4BFEF70F0C1EF70F0C9EF70F0000EDB
:10E184001A6E000E1B6E000E1C6E000E1D6E1C8E91
:10E19400000E1D6ED6EF70F0000E1A6E000E1B6E90
:10E1A400000E1C6E000E1D6E2150800B2A1A215089
:10E1B4002124326E20AEE1EF70F0E3EF70F0E4EF73
:10E1C40070F032803250D8B4EAEF70F0ECEF70F0B7
:10E1D40001EF71F03228D8A4F2EF70F0F4EF70F090
:10E1E400FCEF70F0000E1E6E000E1F6E000E206E0F
:10E1F400000E216E208E000E216E09EF71F0000ECC
:10E204001E6E000E1F6E000E206E000E216E1E503C
:10E214001F1020102110D8A412EF71F014EF71F028
:10E224002CEF71F0000E1A6E000E1B6E000E1C6EA9
:10E23400000E1D6E800E1C127F0E1D122A501D1220
:10E244001AC01AF01BC01BF01CC01CF01DC01DF02E
:10E254006FEF72F03150D8A432EF71F034EF71F0F7
:10E264003EEF71F0000E1A6E000E1B6E000E1C6E57
:10E27400000E1D6E6FEF72F0325031C022F0236A2F
:10E28400225E000E235A7F0E22242B6E000E2320C2
:10E294002C6E1AC026F01BC027F01CC028F01DC02D
:10E2A40029F0000E1A6E000E1B6E000E1C6E000E7E
:10E2B4001D6E000E2D6E000E2E6E000E2F6E000EC3
:10E2C400306E000E326E9FEF71F03250D8B46DEFA5
:10E2D40071F06FEF71F086EF71F0D8902636273623
:10E2E40028362936D8901A361B361C361D3630AEE1
:10E2F4007EEF71F080EF71F081EF71F01A80D890A9
:10E304002D362E362F3630361E50265C1F50275899
:10E314002050285821502958D8A093EF71F095EF38
:10E3240071F09EEF71F0308C1E50265E1F50275AFC
:10E334002050285A2150295A322A190E3264A5EF46
:10E3440071F0A7EF71F067EF71F0265027102810D5
:10E354002910D8B4B0EF71F0B2EF71F0CAEF71F0D8
:10E364002D80CAEF71F0D8901A361B361C361D3634
:10E3740030AEBFEF71F0C1EF71F0C2EF71F01A80EF
:10E38400D8902D362E362F3630362B06D8A02C06B4
:10E394001CAECFEF71F0D1EF71F0B5EF71F0000E5C
:10E3A400326E30AED8EF71F0DAEF71F0FEEF71F04B
:10E3B400FF0E2D14226EFF0E2E14236EFF0E2F144B
:10E3C400246E7F0E3014256E225023102410251045
:10E3D400D8B4EFEF71F0F1EF71F0F5EF71F0010ED9
:10E3E400326EFEEF71F01AA0FAEF71F0FCEF71F0EB
:10E3F400FEEF71F0F1EF71F03250D8B404EF72F027
:10E4040006EF72F02AEF72F0010E1A26000E1B229C
:10E414001C221D221DA011EF72F013EF72F02AEFDF
:10E4240072F01AC022F01BC023F01CC024F01DC0DF
:10E4340025F02534253224322332223222C01AF028
:10E4440023C01BF024C01CF025C01DF02B4A2C2A2D
:10E454002CBE35EF72F02C5008E12B28D8A035EFF4
:10E4640072F037EF72F042EF72F0000E2C6E2B68F0
:10E47400000E1A6E000E1B6E000E1C6E000E1D6E3A
:10E484002CBE4FEF72F02C5006E12B04D8B04DEFA8
:10E4940072F04FEF72F05DEF72F0000E2C6E000E12
:10E4A4002B6E000E1A6E000E1B6E000E1C6E000EFC
:10E4B4001D6E000E2A6E2BC031F031A064EF72F095
:10E4C40066EF72F069EF72F01C8E6AEF72F01C9EB8
:10E4D400D89031301D6E20EF71F012000450800B83
:10E4E4000D6E04500424136E03AE7BEF72F07DEFC7
:10E4F40072F07EEF72F013801350D8B484EF72F090
:10E5040086EF72F099EF72F01328D8A48CEF72F0B2
:10E514008EEF72F096EF72F0000E016E000E026E36
:10E52400000E036E000E046E038EA1EF72F0000E57
:10E53400016E000E026E000E036E000E046E085093
:10E54400800B0D1A08500824126E07AEACEF72F05F
:10E55400AEEF72F0AFEF72F012801250D8B4B5EF94
:10E5640072F0B7EF72F0CAEF72F01228D8A4BDEFC0
:10E5740072F0BFEF72F0C7EF72F0000E056E000E7E
:10E58400066E000E076E000E086E078ED2EF72F054
:10E59400000E056E000E066E000E076E000E086E6D
:10E5A4001250D8B4D8EF72F0DAEF72F0E2EF72F0F2
:10E5B4001350D8A4E0EF72F0E2EF72F0ECEF72F0D7
:10E5C400000E016E000E026E000E036E000E046E4D
:10E5D40084EF74F007500102F3CF18F0F4CF19F070
:10E5E40018500E6E0F6A106A116A1950146E156A6B
:10E5F400166A176A06500202F3CF18F0F4CF19F026
:10E6040018500E26000E0F22102211221950142623
:10E61400000E15221622172205500302F3CF18F01C
:10E62400F4CF19F018500E26000E0F2210221122DA
:10E6340019501426000E15221622172210C011F0AC
:10E644000FC010F00EC00FF00E6A05500202F3CF97
:10E6540018F0F4CF19F018500E2619500F22000E9E
:10E664001022000E112206500102F3CF18F0F4CF4D
:10E6740019F018500E2619500F22000E1022000E09
:10E68400112210C011F00FC010F00EC00FF00E6A6E
:10E6940005500102F3CF18F0F4CF19F018500E26EC
:10E6A40019500F22000E1022000E112207500202F0
:10E6B400F3CF18F0F4CF19F018501426195015227E
:10E6C400000E1622000E172206500302F3CF18F094
:10E6D400F4CF19F01850142619501522000E1622E2
:10E6E400000E172207500302F3CF18F0F4CF19F0ED
:10E6F4001850096E19500A6E0B6A0C6A0BC00CF0A4
:10E704000AC00BF009C00AF0096A095014260A501D
:10E7140015220B5016220C5017220EC009F00FC000
:10E724000AF010C00BF011C00CF0190E9FEF73F03B
:10E73400D8900C320B320A320932E82E9AEF73F079
:10E74400095014260A5015220B5016220C50172279
:10E7540010C011F00FC010F00EC00FF00E6A12506E
:10E7640013C009F00A6A0926000E0A22820E09243F
:10E77400186EFF0E0A20196ED5EF73F0D890143678
:10E7840015361636173611AECAEF73F0CCEF73F0A8
:10E79400CDEF73F01480D8900E360F361036113644
:10E7A4001806D8A0190616AEDAEF73F0DCEF73F092
:10E7B400C0EF73F0000E126E11AEE3EF73F0E5EFED
:10E7C40073F009EF74F0FF0E0E14096EFF0E0F14B0
:10E7D4000A6EFF0E10140B6E7F0E11140C6E09508E
:10E7E4000A100B100C10D8B4FAEF73F0FCEF73F0AE
:10E7F40000EF74F0010E126E09EF74F014A005EF2F
:10E8040074F007EF74F009EF74F0FCEF73F012503A
:10E81400D8B40FEF74F011EF74F035EF74F0010E0B
:10E824001426000E15221622172217A01CEF74F0CE
:10E834001EEF74F035EF74F014C009F015C00AF03F
:10E8440016C00BF017C00CF00C340C320B320A3229
:10E85400093209C014F00AC015F00BC016F00CC040
:10E8640017F0184A192A19BE40EF74F0195008E13C
:10E874001828D8A040EF74F042EF74F04CEF74F015
:10E88400000E146E000E156E800E166E7F0E176E3F
:10E894007AEF74F019BE59EF74F0195006E11804B8
:10E8A400D8B057EF74F059EF74F065EF74F0000EC0
:10E8B400146E000E156E000E166E000E176E000E0E
:10E8C4000D6E7AEF74F018C013F0FF0E1416FF0EDD
:10E8D40015167F0E1616000E171613A074EF74F09B
:10E8E40076EF74F077EF74F0168ED8901330176EBD
:10E8F4000D50171214C001F015C002F016C003F039
:10E9040017C004F012000450800B0D6E0450042450
:10E914000F6E03AE90EF74F092EF74F093EF74F017
:10E924000F800F50D8B499EF74F09BEF74F0B0EFF0
:10E9340074F00F28D8A4A1EF74F0A3EF74F0ABEF38
:10E9440074F0000E016E000E026E000E036E000ED7
:10E95400046E038E000E046EB8EF74F0000E016EA8
:10E96400000E026E000E036E000E046E0850800B43
:10E974000E6E0D500E18D8B4C2EF74F0C4EF74F0DC
:10E98400C5EF74F00D8C085008240E6E07AECDEF61
:10E9940074F0CFEF74F0D0EF74F00E800E50D8B452
:10E9A400D6EF74F0D8EF74F0EDEF74F00E28D8A41D
:10E9B400DEEF74F0E0EF74F0E8EF74F0000E056E33
:10E9C400000E066E000E076E000E086E078E000E17
:10E9D400086EF5EF74F0000E056E000E066E000E64
:10E9E400076E000E086E0F500E5CD8B0FCEF74F08A
:10E9F400FEEF74F025EF75F00DAC03EF75F005EF45
:10EA040075F007EF75F0800E0D1A0FC010F00EC0F0
:10EA14000FF010C00EF001C010F005C001F010C0DE
:10EA240005F002C010F006C002F010C006F003C0EA
:10EA340010F007C003F010C007F004C010F008C0C5
:10EA440004F010C008F0000E106E0F500EC009F054
:10EA54000A6A095E000E0A5A0ABE3AEF75F00A50B5
:10EA640009E11A0E095CD8A03AEF75F03CEF75F095
:10EA740073EF75F00150021003100410D8A445EF91
:10EA840075F048EF75F0010E49EF75F0000E106E49
:10EA9400000E016E000E026E000E036E000E046E78
:10EAA4000EC00FF07CEF75F010A05BEF75F05DEF1A
:10EAB40075F063EF75F0D89010300109106E65EFB2
:10EAC40075F0D890103201A06AEF75F06CEF75F014
:10EAD4006DEF75F0108E04340432033202320132C9
:10EAE4000F2A0E500F5CD8A07AEF75F07CEF75F00A
:10EAF40056EF75F00DBC81EF75F083EF75F0C3EF41
:10EB040075F00F50D8A489EF75F08BEF75F095EF81
:10EB140075F0000E016E000E026E000E036E000E04
:10EB2400046EE4EF76F005500126065002220750E9
:10EB340003220850042204A0A2EF75F0A4EF75F09C
:10EB440050EF76F010A0A9EF75F0ABEF75F0B1EFD0
:10EB540075F0D89010300109106EB3EF75F0D890AD
:10EB6400103201A0B8EF75F0BAEF75F0BBEF75F095
:10EB7400108E043404320332023201320F2A50EF71
:10EB840076F00550015C06500258075003580450B3
:10EB9400800A096E0850800A0958D8B0D4EF75F07D
:10EBA400D6EF75F001EF76F00150055C096E025066
:10EBB40006580A6E035007580B6E045008580C6E22
:10EBC400FF0E0924016EFF0E0A20026EFF0E0B20B9
:10EBD400036EFF0E0C20046E800E0D1A106C105084
:10EBE400D8A4F7EF75F0F9EF75F009EF76F0010EA0
:10EBF4000126000E02220322042209EF76F00550BA
:10EC0400015E0650025A0750035A0850045A015034
:10EC1400021003100410D8A412EF76F014EF76F06B
:10EC240049EF76F01050D8A41AEF76F01CEF76F086
:10EC340049EF76F0000E016E000E026E000E036EB8
:10EC4400000E046EE4EF76F0D890013602360336F7
:10EC5400043610AE30EF76F032EF76F033EF76F024
:10EC6400018010A038EF76F03AEF76F03EEF76F0C0
:10EC7400D880103640EF76F0D89010360F50D8B4C4
:10EC840046EF76F048EF76F049EF76F00F0603AEE4
:10EC94004EEF76F050EF76F026EF76F0000E0E6E23
:10ECA40010AE57EF76F059EF76F071EF76F010C0B2
:10ECB40009F07F0E0916D8B462EF76F064EF76F0AF
:10ECC40068EF76F0010E0E6E71EF76F001A06DEF35
:10ECD40076F06FEF76F071EF76F064EF76F00E5029
:10ECE400D8B477EF76F079EF76F0A4EF76F0010EF2
:10ECF4000126000E02220322042204A084EF76F0EF
:10ED040086EF76F0A4EF76F001C009F002C00AF0B5
:10ED140003C00BF004C00CF00C340C320B320A327A
:10ED2400093209C001F00AC002F00BC003F00CC0A4
:10ED340004F00F28D8B4A1EF76F0A3EF76F0A4EF97
:10ED440076F00F2A0F28D8B4AAEF76F0ACEF76F05D
:10ED5400B4EF76F00F50D8A4B2EF76F0B4EF76F0BB
:10ED6400C6EF76F0000E016E000E026E000E036E0A
:10ED7400000E046E0F50D8A4C2EF76F0C4EF76F004
:10ED8400C6EF76F0000E0D6E0FA0CBEF76F0CDEF50
:10ED940076F0D0EF76F0038ED1EF76F0039ED89024
:10EDA4000F30046E0DAED9EF76F0DBEF76F0DCEFCA
:10EDB40076F0048E01C001F002C002F003C003F03B
:10EDC40004C004F01200A9C049F0AAC04AF0ABC0C4
:10EDD4004BF0ACC04CF033C049F034C04AF035C0FD
:10EDE4004BF036C04CF0A5C04FF0A6C050F0A7C001
:10EDF40051F0A8C052F037C04FF038C050F039C0BD
:10EE040051F03AC052F049C03BF04AC03CF04BC00C
:10EE14003DF04CC03EF0180E15EF77F0D8903E321E
:10EE24003D323C323B32E82E10EF77F03B504D6ED2
:10EE34004E6A4FC03BF050C03CF051C03DF052C050
:10EE44003EF0180E2BEF77F0D8903E323D323C3234
:10EE54003B32E82E26EF77F03B50476E486A000EAF
:10EE64004914436E000E4A14446E000E4B14456E52
:10EE7400800E4C14466E49C057F04AC058F04BC03F
:10EE840059F04CC05AF0D8904F343B6E50343C6E1D
:10EE940051343D6E52343E6E3B503C103D103E109A
:10EEA400D8B457EF77F059EF77F075EF77F037C0B4
:10EEB40001F038C002F039C003F03AC004F065EC48
:10EEC4006DF001500210D8B46AEF77F06CEF77F070
:10EED40075EF77F04D284E10D8A473EF77F075EFE7
:10EEE40077F0B5EF77F037C005F038C006F039C0D9
:10EEF40007F03AC008F033C001F034C002F035C066
:10EF040003F036C004F070EC72F001C01AF002C0D5
:10EF14001BF003C01CF004C01DF037C005F038C05E
:10EF240006F039C007F03AC008F033C001F034C02D
:10EF340002F035C003F036C004F070EC72F001C08A
:10EF44001EF002C01FF003C020F004C021F0A3ECA7
:10EF540070F01AC033F01BC034F01CC035F01DC073
:10EF640036F02EEF7AF0D89057343B6E58343C6E1E
:10EF740059343D6E5A343E6ED8904F343F6E5034FF
:10EF8400406E5134416E5234426E3B503F5C3C50B3
:10EF940040583D5041583E504258D8A0D4EF77F0E5
:10EFA400D6EF77F020EF78F0D8904F343B6E5034A2
:10EFB4003C6E51343D6E52343E6ED89057343F6EA1
:10EFC4005834406E5934416E5A34426E3B503F18A7
:10EFD4000DE13C5040180AE13D50411807E13E5014
:10EFE4004218D8A4F8EF77F0FAEF77F016EF78F03C
:10EFF40033C001F034C002F035C003F036C004F071
:10F00400000E056E000E066E000E076E000E086EF2
:10F0140070EC72F001C033F002C034F003C035F07C
:10F0240004C036F02EEF7AF033C033F034C034F03D
:10F0340035C035F036C036F02EEF7AF04D504E1014
:10F04400D8A427EF78F029EF78F07AEF78F057C05A
:10F054003BF058C03CF059C03DF05AC03EF0090E98
:10F06400D8903B363C363D363E36E82E32EF78F0CB
:10F074003BC053F03CC054F03DC055F03EC056F088
:10F084004CEF78F04D06D8A04E06D890533654363F
:10F094005536563653C03BF054C03CF055C03DF095
:10F0A40056C03EF0200E5CEF78F0D8903E323D32F0
:10F0B4003C323B32E82E57EF78F03B503C103D1089
:10F0C4003E10D8B468EF78F06AEF78F044EF78F047
:10F0D4004D5001083B6E3B2875EF78F0D8905736B9
:10F0E400583659365A36E82E70EF78F083EF78F0B8
:10F0F400FF0E5716FF0E58167F0E5916000E5A169D
:10F10400598E47504810D8A48AEF78F08CEF78F0E5
:10F11400DDEF78F04FC03BF050C03CF051C03DF003
:10F1240052C03EF0090ED8903B363C363D363E3652
:10F13400E82E95EF78F03BC053F03CC054F03DC04E
:10F1440055F03EC056F0AFEF78F04706D8A0480619
:10F15400D890533654365536563653C03BF054C0C7
:10F164003CF055C03DF056C03EF0200EBFEF78F0A5
:10F17400D8903E323D323C323B32E82EBAEF78F042
:10F184003B503C103D103E10D8B4CBEF78F0CDEF9F
:10F1940078F0A7EF78F0475001083B6E3B28D8EF92
:10F1A40078F0D8904F36503651365236E82ED3EF99
:10F1B40078F049EF79F0FF0E4F16FF0E50167F0ED0
:10F1C4005116000E5216518E49EF79F04F50575C8C
:10F1D400536E50505858546E51505958556E5250A1
:10F1E4005A58566E53C03BF054C03CF055C03DF0E5
:10F1F40056C03EF0200E04EF79F0D8903E323D32F6
:10F204003C323B32E82EFFEF78F03B503C103D108F
:10F214003E10D8A410EF79F012EF79F041EF79F0B5
:10F224005350541055105610D8A41BEF79F01DEF0D
:10F2340079F039EF79F033C001F034C002F035C011
:10F2440003F036C004F0000E056E000E066E000ECC
:10F25400076E000E086E70EC72F001C033F002C04D
:10F2640034F003C035F004C036F02EEF7AF053C00A
:10F2740057F054C058F055C059F056C05AF0D890C1
:10F284005736583659365A364D06D8A04E064D5084
:10F29400475C4850800A3B6E4E50800A3B58D8A0C9
:10F2A40056EF79F058EF79F0E8EF78F04F50575C6B
:10F2B400536E50505858546E51505958556E5250C0
:10F2C4005A58566E53C03BF054C03CF055C03DF004
:10F2D40056C03EF0200E74EF79F0D8903E323D32A5
:10F2E4003C323B32E82E6FEF79F03B503C103D103E
:10F2F4003E10D8A480EF79F082EF79F0BBEF79F07B
:10F304005350541055105610D8A48BEF79F08DEF4C
:10F3140079F0A9EF79F033C001F034C002F035C0C0
:10F3240003F036C004F0000E056E000E066E000EEB
:10F33400076E000E086E70EC72F001C033F002C06C
:10F3440034F003C035F004C036F02EEF7AF053C029
:10F3540057F054C058F055C059F056C05AF0BBEF9E
:10F3640079F0D8905736583659365A364D06D8A0C3
:10F374004E0657C03BF058C03CF059C03DF05AC04F
:10F384003EF0180ECBEF79F0D8903E323D323C324D
:10F394003B32E82EC6EF79F03B503C103D103E1056
:10F3A400D8B4D7EF79F0D9EF79F0B3EF79F04EBE56
:10F3B400E4EF79F04E5008E14D04D8A0E4EF79F081
:10F3C400E6EF79F007EF7AF0000E575E000E585A18
:10F3D400800E595A000E5A5A4D503B6E4E503C6E98
:10F3E4003D6A3E6A170ED8903B363C363D363E3673
:10F3F400E82EF5EF79F03B5057123C5058123D502F
:10F4040059123E505A1216EF7AF04D5001083B6ED5
:10F414003B283C6E13EF7AF0D8905A325932583266
:10F4240057323C2E0EEF7AF0435057124450581284
:10F434004550591246505A1257C049F058C04AF024
:10F4440059C04BF05AC04CF049C033F04AC034F0B4
:10F454004BC035F04CC036F01200000E00017F6F37
:10F46400000E806F000E816F000E826F000E836F9E
:10F47400000E846F000E856F000E866F000E786F8D
:10F48400010E776F000E636F000E646F000E656FE0
:10F49400000E666F000E876F000E886F000E896F76
:10F4A400000E8A6F000E8F6F000E906F000E916F2A
:10F4B400000E926F000E936F000E946F000E956F06
:10F4C400000E966F000E976F000E986F000E996FE6
:10F4D400000E9A6F000E9B6F000E9C6F000E9D6FC6
:10F4E400000E9E6F000E766F000E756F000E7C6F1F
:10F4F400000E7B6F000E7E6F000E7D6F000E7A6F24
:10F50400000E796F000E676F000E686F000E696F52
:10F51400000E6A6F6B696C69000EA06F000E9F6F1E
:10F52400ECEF7FF09F515B24D96EA0515C20DA6E22
:10F53400580EDE18D8A4A1EF7AF0A3EF7AF0A9EF61
:10F544007AF0000E7C6F010E7B6FE9EF7FF09F5124
:10F554005B24D96EA0515C20DA6E590EDE18D8A453
:10F56400B6EF7AF0B8EF7AF0BEEF7AF0000E7E6F65
:10F57400010E7D6FE9EF7FF09F515B24D96EA0519E
:10F584005C20DA6E5A0EDE18D8A4CBEF7AF0CDEFF9
:10F594007AF0D3EF7AF0000E7A6F010E796FE9EF0B
:10F5A4007FF09F515B24D96EA0515C20DA6E320E3D
:10F5B400DE18D8A4E0EF7AF0E2EF7AF0F8EF7AF010
:10F5C40079517A11D8B4E9EF7AF0EBEF7AF0F8EFE9
:10F5D4007AF0000E026E0A0E016E57EC6CF0000E0B
:10F5E40000017A6F000E796FE9EF7FF09F515B2481
:10F5F400D96EA0515C20DA6E330EDE18D8A405EF64
:10F604007BF007EF7BF018EF7BF079517A11D8B4D7
:10F614000EEF7BF010EF7BF018EF7BF0000E026E24
:10F62400640E016E57EC6CF0F1EF7AF09F515B249D
:10F63400D96EA0515C20DA6E2E0EDE18D8A425EF08
:10F644007BF027EF7BF02DEF7BF0000E766F010E41
:10F65400756FE9EF7FF09F515B24D96EA0515C2058
:10F66400DA6E3B0EDE18D8B43AEF7BF03CEF7BF059
:10F6740041EF7CF075517611D8A443EF7BF045EF50
:10F684007BF041EF7CF09F515B24D96EA0515C204C
:10F69400DA6E200EDE18D8B452EF7BF054EF7BF014
:10F6A40041EF7CF07B517C11D8B45BEF7BF05DEFD4
:10F6B4007BF0C9EF7BF09F515B24D96EA0515C2095
:10F6C400DA6EDF50606FD00E6025616F626BFF0EE3
:10F6D400622361C00FF062C010F0116A126A000E5A
:10F6E400E9EC6EF00FC07FF010C080F011C081F023
:10F6F40012C082F0000E1D6E000E1E6E000E1F6EF4
:10F70400000E206E8FC021F090C022F091C023F033
:10F7140092C024F0E4EC6DF0D8B093EF7BF095EF59
:10F724007BF0AFEF7BF08FC001F090C002F091C08E
:10F7340003F092C004F0000E056E000E066E200E5B
:10F74400076E410E086E70EC72F001C08FF002C0BB
:10F7540090F003C091F004C092F08FC001F090C00B
:10F7640002F091C003F092C004F07FC005F080C0A5
:10F7740006F081C007F082C008F085EC74F001C087
:10F784008FF002C090F003C091F004C092F0000129
:10F794007D517E11D8B4D1EF7BF0D3EF7BF0E9EF4C
:10F7A4007FF09F515B24D96EA0515C20DA6EDF504C
:10F7B400606FD00E6025616F626BFF0E622361C0C3
:10F7C4000FF062C010F0116A126A000EE9EC6EF0DC
:10F7D4000FC083F010C084F011C085F012C086F011
:10F7E400000E1D6E000E1E6E000E1F6E000E206EAB
:10F7F40093C021F094C022F095C023F096C024F069
:10F80400E4EC6DF0D8B009EF7CF00BEF7CF025EF61
:10F814007CF093C001F094C002F095C003F096C050
:10F8240004F0000E056E000E066E200E076E410EEB
:10F83400086E70EC72F001C093F002C094F003C043
:10F8440095F004C096F093C001F094C002F095C006
:10F8540003F096C004F083C005F084C006F085C0B0
:10F8640007F086C008F085EC74F001C093F002C084
:10F8740094F003C095F004C096F0E9EF7FF09F5137
:10F884005B24D96EA0515C20DA6E3B0EDE18D8B42E
:10F894004EEF7CF050EF7CF040EF7DF07505761173
:10F8A400D8A457EF7CF059EF7CF040EF7DF09F51E6
:10F8B4005B24D96EA0515C20DA6E200EDE18D8B419
:10F8C40066EF7CF068EF7CF040EF7DF07B517C11BB
:10F8D400D8B46FEF7CF071EF7CF0E1EF7CF09F51D6
:10F8E4005B24D96EA0515C20DA6EDF50606FD00EBD
:10F8F4006025616F626BFF0E622361C00FF062C00E
:10F9040010F0116A126A000EE9EC6EF00FC07FF07D
:10F9140010C080F011C081F012C082F0000E00010E
:10F924006E6F000E6D6FB4EF7CF07FC01AF080C074
:10F934001BF081C01CF082C01DF0000E1E6E000E74
:10F944001F6E200E206E410E216EA3EC70F01AC0C3
:10F954007FF01BC080F01CC081F01DC082F000014C
:10F964006D4B6E2B77516D5D6E51800A606F7851CF
:10F97400800A6059D8A0C1EF7CF0C3EF7CF097EF08
:10F984007CF0774B782B8FC001F090C002F091C0CF
:10F9940003F092C004F07FC005F080C006F081C07F
:10F9A40007F082C008F085EC74F001C08FF002C04B
:10F9B40090F003C091F004C092F0E9EF7FF07D5124
:10F9C4007E11D8B4E8EF7CF0EAEF7CF0E9EF7FF049
:10F9D4009F515B24D96EA0515C20DA6EDF50606FBA
:10F9E400D00E6025616F626BFF0E622361C00FF061
:10F9F40062C010F0116A126A000EE9EC6EF00FC0DA
:10FA040083F010C084F011C085F012C086F0000E9F
:10FA14000001706F000E6F6F2DEF7DF083C01AF040
:10FA240084C01BF085C01CF086C01DF0000E1E6E45
:10FA3400000E1F6E200E206E410E216EA3EC70F09E
:10FA44001AC083F01BC084F01CC085F01DC086F072
:10FA540000016F4B702B77516F5D7051800A606F9E
:10FA64007851800A6059D8A03AEF7DF03CEF7DF0E0
:10FA740010EF7DF0774B782B25EF7CF09F515B24C2
:10FA8400D96EA0515C20DA6E3B0EDE18D8B44DEF6F
:10FA94007DF04FEF7DF05EEF7DF09F515B24D96EDA
:10FAA400A0515C20DA6E200EDE18D8A45CEF7DF045
:10FAB4005EEF7DF0E9EF7FF0000E766F000E756F5C
:10FAC400000E786F010E776F8FC09BF090C09CF092
:10FAD40091C09DF092C09EF093C097F094C098F0AE
:10FAE40095C099F096C09AF0000E8F6F000E906F3B
:10FAF400000E916F000E926F000E936F000E946FC4
:10FB0400000E956F000E966F9BC033F09CC034F0CE
:10FB14009DC035F09EC036F0000E376E000E386E74
:10FB2400800E396E3F0E3A6EE5EC76F033C087F006
:10FB340034C088F035C089F036C08AF09BC011F01B
:10FB44009CC012F09DC013F09EC014F087C015F045
:10FB540088C016F089C017F08AC018F003EC6BF067
:10FB640011C09BF012C09CF013C09DF014C09EF015
:10FB740087C01DF088C01EF089C01FF08AC020F025
:10FB8400000E216E000E226E000E236E3F0E246EB8
:10FB9400E4EC6DF0D8A0D1EF7DF0D3EF7DF0EDEF84
:10FBA4007DF09BC001F09CC002F09DC003F09EC09C
:10FBB40004F0000E056E000E066E800E076E3F0EFA
:10FBC400086E85EC74F001C09BF002C09CF003C089
:10FBD4009DF004C09EF097C033F098C034F099C0F3
:10FBE40035F09AC036F0000E376E000E386E800E77
:10FBF400396E3F0E3A6EE5EC76F033C087F034C0D0
:10FC040088F035C089F036C08AF097C011F098C0EA
:10FC140012F099C013F09AC014F087C015F088C090
:10FC240016F089C017F08AC018F003EC6BF011C00D
:10FC340097F012C098F013C099F014C09AF087C0DE
:10FC44001DF088C01EF089C01FF08AC020F0000E8D
:10FC5400216E000E226E000E236E3F0E246EE4EC25
:10FC64006DF0D8A038EF7EF03AEF7EF054EF7EF0DE
:10FC740097C001F098C002F099C003F09AC004F054
:10FC8400000E056E000E066E800E076E3F0E086EA7
:10FC940085EC74F001C097F002C098F003C099F0AD
:10FCA40004C09AF0000E00018B6F000E8C6F000EE2
:10FCB4008D6F000E8E6F7B517C11D8B464EF7EF093
:10FCC40066EF7EF021EF7FF0000E8B6F000E8C6FDD
:10FCD400000E8D6F000E8E6F9BC08BF09CC08CF05D
:10FCE4009DC08DF09EC08EF09BC011F09CC012F0A0
:10FCF4009DC013F09EC014F0B1C015F0B2C016F050
:10FD0400B3C017F0B4C018F003EC6BF011C09BF053
:10FD140012C09CF013C09DF014C09EF0000E1D6E26
:10FD2400000E1E6E000E1F6E000E206E9BC021F092
:10FD34009CC022F09DC023F09EC024F0E4EC6DF042
:10FD4400D8B0A7EF7EF0A9EF7EF0C7EF7EF09BC09E
:10FD540033F09CC034F09DC035F09EC036F0C3EC47
:10FD64006FF033C043F034C044F035C045F036C0C2
:10FD740046F0D9EC6BF08BC0B1F08CC0B2F08DC002
:10FD8400B3F08EC0B4F021EF7FF000019EBFCFEF3F
:10FD94007EF0CDEF7EF021EF7FF09BC001F09CC0A0
:10FDA40002F09DC003F09EC004F066EC6EF001C04A
:10FDB4000BF002C00CF0E3EC6AF00BC00FF00CC0C7
:10FDC40010F0000E10BEFF0E116E126E010EE9EC63
:10FDD4006EF00FC071F010C072F011C073F012C059
:10FDE40074F071C033F072C034F073C035F074C075
:10FDF40036F0C3EC6FF033C043F034C044F035C088
:10FE040045F036C046F09AEC6BF0B1C001F0B2C0D8
:10FE140002F0B3C003F0B4C004F08BC005F08CC092
:10FE240006F08DC007F08EC008F085EC74F001C0B8
:10FE3400B1F002C0B2F003C0B3F004C0B4F00001EA
:10FE44007D517E11D8B429EF7FF02BEF7FF0DEEFE8
:10FE54007FF097C08BF098C08CF099C08DF09AC059
:10FE64008EF097C011F098C012F099C013F09AC0A8
:10FE740014F0ADC015F0AEC016F0AFC017F0B0C0AE
:10FE840018F003EC6BF011C097F012C098F013C097
:10FE940099F014C09AF0000E1D6E000E1E6E000E36
:10FEA4001F6E000E206E97C021F098C022F099C0FA
:10FEB40023F09AC024F0E4EC6DF0D8B064EF7FF046
:10FEC40066EF7FF084EF7FF097C033F098C034F092
:10FED40099C035F09AC036F0C3EC6FF033C043F0EC
:10FEE40034C044F035C045F036C046F05BEC6BF0EE
:10FEF4008BC0ADF08CC0AEF08DC0AFF08EC0B0F052
:10FF0400DEEF7FF000019ABF8CEF7FF08AEF7FF085
:10FF1400DEEF7FF097C001F098C002F099C003F0C3
:10FF24009AC004F066EC6EF001C00BF002C00CF055
:10FF3400E3EC6AF00BC00FF00CC010F0000E10BE22
:10FF4400FF0E116E126E010EE9EC6EF00FC071F02F
:10FF540010C072F011C073F012C074F071C033F0AD
:10FF640072C034F073C035F074C036F0C3EC6FF077
:10FF740033C043F034C044F035C045F036C046F0D9
:10FF840018EC6CF0ADC001F0AEC002F0AFC003F0ED
:10FF9400B0C004F08BC005F08CC006F08DC007F033
:10FFA4008EC008F085EC74F001C0ADF002C0AEF074
:10FFB40003C0AFF004C0B0F0000E00017C6F000E6F
:10FFC4007B6F000E7E6F000E7D6FE9EF7FF0000106
:10FFD4009F4BA02B5D509F5DA051800A606F5E50C7
:10FFE400800A6059D8A0F9EF7FF0FBEF7FF094EF1F
:04FFF4007AF012008D
:08FFF8008CF010F000F000F0A5
:00000001FF
