:04000000D1EF7EF0CE
:10FDA20000EE01F0140EEE6AE806FDE100017EEFBE
:10FDB2007FF0200E836E000E196E000E186EF3EFA8
:10FDC2007EF0500E8312030E176E980EE82EFED7A9
:10FDD200172EFCD7AF0E8316C80E00D0E82EFDD723
:10FDE200184A192A1550185C1950800A176E1650B5
:10FDF200800A1758D8A000EF7FF002EF7FF0E2EF01
:10FE02007EF01200A00E836E000E196E000E186EA8
:10FE12001CEF7FF0500E8312030E176E980EE82E21
:10FE2200FED7172EFCD7AF0E8316C80E00D0E82ED1
:10FE3200FDD7184A192A1550185C1950800A176EF6
:10FE42001650800A1758D8A029EF7FF02BEF7FF0C9
:10FE52000BEF7FF01200000E836E000E196E000E83
:10FE6200186E45EF7FF0500E8312030E176E980E38
:10FE7200E82EFED7172EFCD7AF0E8316C80E00D081
:10FE8200E82EFDD7184A192A1550185C1950800A15
:10FE9200176E1650800A1758D8A052EF7FF054EF11
:10FEA2007FF034EF7FF01200800E836E000E196E29
:10FEB200000E186E6EEF7FF0500E8312030E176E57
:10FEC200980EE82EFED7172EFCD7AF0E8316C80E5B
:10FED20000D0E82EFDD7184A192A1550185C19507F
:10FEE200800A176E1650800A1758D8A07BEF7FF051
:10FEF2007DEF7FF05DEF7FF01200000E946E000E3A
:10FF0200936E000E966E000E956E000E826E000EBF
:10FF1200846E020E816E000E836E060E166EA40EA5
:10FF2200156E2CEC7FF0060E166E9F0E156E03EC0E
:10FF32007FF0050E166E140E156EDAEC7EF0050ECD
:10FF4200166E140E156E55EC7FF0000E166E0A0E2C
:10FF5200156EB6EC7FF0000E166E640E156EB6ECE2
:10FF62007FF0B2EF7FF000EF00F0000E196E000E8E
:10FF7200186E640E15181610D8A4C2EF7FF0C4EFE5
:10FF82007FF0D4EF7FF08182D60E00D000D0E82E31
:10FF9200FCD700D08192190E176E050EE82EFED7FF
:10FFA200172EFCD700F00A0E15181610D8A4DCEF95
:10FFB2007FF0DEEF7FF0EBEF7FF08182FA0EE82E2A
:10FFC200FED78192190E176EFF0EE82EFED7172E5E
:10FFD200FCD700F0184A192A19BEF9EF7FF0195020
:10FFE20009E1190E185CD8A0F9EF7FF0FBEF7FF062
:06FFF200BAEF7FF01200DF
:08FFF8008CF010F000F000F0A5
:00000001FF
