:040000009DEF7FF001
:10FF3A000001A0EF7FF0000E946E000E966E000E88
:10FF4A00956E000E826E000E846E200E836E200E59
:10FF5A00836E000E036E000E026E5F0E8312060E93
:10FF6A00016E300EE82EFED7012EFCD700D0A00E6F
:10FF7A008316C80E00D0E82EFDD7024A032A03BE14
:10FF8A00D0EF7FF0035009E1640E025CD8A0D0EFF5
:10FF9A007FF0D2EF7FF0B2EF7FF0800E836E000E1B
:10FFAA00056E000E046E5F0E8312060E016E300E91
:10FFBA00E82EFED7012EFCD700D0A00E8316C80E5D
:10FFCA0000D0E82EFDD7044A052A05BEF6EF7FF0D9
:10FFDA00055009E1640E045CD8A0F6EF7FF0F8EF53
:0EFFEA007FF0D8EF7FF0ACEF7FF000EF00F07B
:08FFF8008CF010F000F000F0A5
:00000001FF
